{
  "_format": "hh-sol-artifact-1",
  "contractName": "Crusader",
  "sourceName": "contracts/Crusader.sol",
  "abi": [
    {
      "inputs": [
        {
          "internalType": "uint256",
          "name": "_id",
          "type": "uint256"
        },
        {
          "internalType": "string",
          "name": "_name",
          "type": "string"
        },
        {
          "internalType": "string[]",
          "name": "_ingredients",
          "type": "string[]"
        },
        {
          "internalType": "uint256[]",
          "name": "_quantity",
          "type": "uint256[]"
        },
        {
          "internalType": "string",
          "name": "_intendedUse",
          "type": "string"
        },
        {
          "internalType": "string",
          "name": "_functionalUse",
          "type": "string"
        },
        {
          "internalType": "string",
          "name": "_manufacturingProcess",
          "type": "string"
        },
        {
          "internalType": "string",
          "name": "_nutritionalBenefits",
          "type": "string"
        },
        {
          "internalType": "uint256",
          "name": "_fatPercentage",
          "type": "uint256"
        },
        {
          "internalType": "uint256",
          "name": "_proteinPercentage",
          "type": "uint256"
        },
        {
          "internalType": "uint256",
          "name": "_carbohydratePercentage",
          "type": "uint256"
        }
      ],
      "name": "addProduct",
      "outputs": [],
      "stateMutability": "nonpayable",
      "type": "function"
    },
    {
      "inputs": [
        {
          "internalType": "address",
          "name": "",
          "type": "address"
        }
      ],
      "name": "analysts",
      "outputs": [
        {
          "internalType": "string",
          "name": "username",
          "type": "string"
        },
        {
          "internalType": "string",
          "name": "password",
          "type": "string"
        },
        {
          "internalType": "string",
          "name": "entity",
          "type": "string"
        }
      ],
      "stateMutability": "view",
      "type": "function"
    },
    {
      "inputs": [
        {
          "internalType": "address",
          "name": "",
          "type": "address"
        },
        {
          "internalType": "uint256",
          "name": "",
          "type": "uint256"
        }
      ],
      "name": "foodProducts",
      "outputs": [
        {
          "internalType": "uint256",
          "name": "id",
          "type": "uint256"
        },
        {
          "internalType": "string",
          "name": "name",
          "type": "string"
        },
        {
          "internalType": "string",
          "name": "intendedUse",
          "type": "string"
        },
        {
          "internalType": "string",
          "name": "functionalUse",
          "type": "string"
        },
        {
          "internalType": "string",
          "name": "manufacturingProcess",
          "type": "string"
        },
        {
          "internalType": "string",
          "name": "nutritionalBenefits",
          "type": "string"
        },
        {
          "internalType": "uint256",
          "name": "fatPercentage",
          "type": "uint256"
        },
        {
          "internalType": "uint256",
          "name": "proteinPercentage",
          "type": "uint256"
        },
        {
          "internalType": "uint256",
          "name": "carbohydratePercentage",
          "type": "uint256"
        }
      ],
      "stateMutability": "view",
      "type": "function"
    },
    {
      "inputs": [],
      "name": "getAllProducts",
      "outputs": [
        {
          "components": [
            {
              "internalType": "uint256",
              "name": "id",
              "type": "uint256"
            },
            {
              "internalType": "string",
              "name": "name",
              "type": "string"
            },
            {
              "internalType": "string[]",
              "name": "ingredients",
              "type": "string[]"
            },
            {
              "internalType": "uint256[]",
              "name": "quantity",
              "type": "uint256[]"
            },
            {
              "internalType": "string",
              "name": "intendedUse",
              "type": "string"
            },
            {
              "internalType": "string",
              "name": "functionalUse",
              "type": "string"
            },
            {
              "internalType": "string",
              "name": "manufacturingProcess",
              "type": "string"
            },
            {
              "internalType": "string",
              "name": "nutritionalBenefits",
              "type": "string"
            },
            {
              "internalType": "uint256",
              "name": "fatPercentage",
              "type": "uint256"
            },
            {
              "internalType": "uint256",
              "name": "proteinPercentage",
              "type": "uint256"
            },
            {
              "internalType": "uint256",
              "name": "carbohydratePercentage",
              "type": "uint256"
            }
          ],
          "internalType": "struct Crusader.ProductDetails[]",
          "name": "",
          "type": "tuple[]"
        }
      ],
      "stateMutability": "view",
      "type": "function"
    },
    {
      "inputs": [
        {
          "internalType": "uint256",
          "name": "_id",
          "type": "uint256"
        }
      ],
      "name": "getIdtoTxHash",
      "outputs": [
        {
          "internalType": "bytes32",
          "name": "",
          "type": "bytes32"
        }
      ],
      "stateMutability": "view",
      "type": "function"
    },
    {
      "inputs": [
        {
          "internalType": "uint256",
          "name": "_id",
          "type": "uint256"
        }
      ],
      "name": "getProductById",
      "outputs": [
        {
          "components": [
            {
              "internalType": "uint256",
              "name": "id",
              "type": "uint256"
            },
            {
              "internalType": "string",
              "name": "name",
              "type": "string"
            },
            {
              "internalType": "string[]",
              "name": "ingredients",
              "type": "string[]"
            },
            {
              "internalType": "uint256[]",
              "name": "quantity",
              "type": "uint256[]"
            },
            {
              "internalType": "string",
              "name": "intendedUse",
              "type": "string"
            },
            {
              "internalType": "string",
              "name": "functionalUse",
              "type": "string"
            },
            {
              "internalType": "string",
              "name": "manufacturingProcess",
              "type": "string"
            },
            {
              "internalType": "string",
              "name": "nutritionalBenefits",
              "type": "string"
            },
            {
              "internalType": "uint256",
              "name": "fatPercentage",
              "type": "uint256"
            },
            {
              "internalType": "uint256",
              "name": "proteinPercentage",
              "type": "uint256"
            },
            {
              "internalType": "uint256",
              "name": "carbohydratePercentage",
              "type": "uint256"
            }
          ],
          "internalType": "struct Crusader.ProductDetails",
          "name": "",
          "type": "tuple"
        }
      ],
      "stateMutability": "view",
      "type": "function"
    },
    {
      "inputs": [
        {
          "internalType": "uint256",
          "name": "",
          "type": "uint256"
        }
      ],
      "name": "idToTxHash",
      "outputs": [
        {
          "internalType": "bytes32",
          "name": "",
          "type": "bytes32"
        }
      ],
      "stateMutability": "view",
      "type": "function"
    },
    {
      "inputs": [
        {
          "internalType": "address",
          "name": "",
          "type": "address"
        }
      ],
      "name": "manufacturerAadhar",
      "outputs": [
        {
          "internalType": "string",
          "name": "",
          "type": "string"
        }
      ],
      "stateMutability": "view",
      "type": "function"
    },
    {
      "inputs": [
        {
          "internalType": "address",
          "name": "",
          "type": "address"
        }
      ],
      "name": "manufacturerReports",
      "outputs": [
        {
          "internalType": "string",
          "name": "",
          "type": "string"
        }
      ],
      "stateMutability": "view",
      "type": "function"
    },
    {
      "inputs": [
        {
          "internalType": "address",
          "name": "",
          "type": "address"
        }
      ],
      "name": "manufacturers",
      "outputs": [
        {
          "internalType": "string",
          "name": "username",
          "type": "string"
        },
        {
          "internalType": "string",
          "name": "password",
          "type": "string"
        },
        {
          "internalType": "string",
          "name": "entity",
          "type": "string"
        }
      ],
      "stateMutability": "view",
      "type": "function"
    },
    {
      "inputs": [
        {
          "internalType": "uint256",
          "name": "",
          "type": "uint256"
        }
      ],
      "name": "productsIdMapping",
      "outputs": [
        {
          "internalType": "uint256",
          "name": "id",
          "type": "uint256"
        },
        {
          "internalType": "string",
          "name": "name",
          "type": "string"
        },
        {
          "internalType": "string",
          "name": "intendedUse",
          "type": "string"
        },
        {
          "internalType": "string",
          "name": "functionalUse",
          "type": "string"
        },
        {
          "internalType": "string",
          "name": "manufacturingProcess",
          "type": "string"
        },
        {
          "internalType": "string",
          "name": "nutritionalBenefits",
          "type": "string"
        },
        {
          "internalType": "uint256",
          "name": "fatPercentage",
          "type": "uint256"
        },
        {
          "internalType": "uint256",
          "name": "proteinPercentage",
          "type": "uint256"
        },
        {
          "internalType": "uint256",
          "name": "carbohydratePercentage",
          "type": "uint256"
        }
      ],
      "stateMutability": "view",
      "type": "function"
    },
    {
      "inputs": [
        {
          "internalType": "string",
          "name": "_username",
          "type": "string"
        },
        {
          "internalType": "string",
          "name": "_password",
          "type": "string"
        }
      ],
      "name": "registerAnalyst",
      "outputs": [],
      "stateMutability": "nonpayable",
      "type": "function"
    },
    {
      "inputs": [
        {
          "internalType": "string",
          "name": "_username",
          "type": "string"
        },
        {
          "internalType": "string",
          "name": "_password",
          "type": "string"
        }
      ],
      "name": "registerCommissioner",
      "outputs": [],
      "stateMutability": "nonpayable",
      "type": "function"
    },
    {
      "inputs": [
        {
          "internalType": "string",
          "name": "_username",
          "type": "string"
        },
        {
          "internalType": "string",
          "name": "_password",
          "type": "string"
        }
      ],
      "name": "registerManufacturer",
      "outputs": [],
      "stateMutability": "nonpayable",
      "type": "function"
    },
    {
      "inputs": [
        {
          "internalType": "string",
          "name": "_username",
          "type": "string"
        },
        {
          "internalType": "string",
          "name": "_password",
          "type": "string"
        }
      ],
      "name": "registerSafetyOfficer",
      "outputs": [],
      "stateMutability": "nonpayable",
      "type": "function"
    },
    {
      "inputs": [
        {
          "internalType": "address",
          "name": "",
          "type": "address"
        }
      ],
      "name": "safetycommissioners",
      "outputs": [
        {
          "internalType": "string",
          "name": "username",
          "type": "string"
        },
        {
          "internalType": "string",
          "name": "password",
          "type": "string"
        },
        {
          "internalType": "string",
          "name": "entity",
          "type": "string"
        }
      ],
      "stateMutability": "view",
      "type": "function"
    },
    {
      "inputs": [
        {
          "internalType": "address",
          "name": "",
          "type": "address"
        }
      ],
      "name": "safetyofficers",
      "outputs": [
        {
          "internalType": "string",
          "name": "username",
          "type": "string"
        },
        {
          "internalType": "string",
          "name": "password",
          "type": "string"
        },
        {
          "internalType": "string",
          "name": "entity",
          "type": "string"
        }
      ],
      "stateMutability": "view",
      "type": "function"
    },
    {
      "inputs": [
        {
          "internalType": "string",
          "name": "_url",
          "type": "string"
        }
      ],
      "name": "setManufacturerAadhar",
      "outputs": [],
      "stateMutability": "nonpayable",
      "type": "function"
    },
    {
      "inputs": [
        {
          "internalType": "string",
          "name": "_url",
          "type": "string"
        }
      ],
      "name": "setManufacturerReport",
      "outputs": [],
      "stateMutability": "nonpayable",
      "type": "function"
    }
  ],
  "bytecode": "0x608060405234801561001057600080fd5b506136f4806100206000396000f3fe608060405234801561001057600080fd5b50600436106101215760003560e01c80634de9c2db116100ad578063b20d4c5111610071578063b20d4c5114610366578063c277a55014610382578063c50b726f1461039e578063c72c6921146103ce578063fa720d86146103fe57610121565b80634de9c2db1461027e578063600f223d146102ae5780636b5eb09c146102e6578063992c0861146103185780639d14649e1461034a57610121565b80632427a6d6116100f45780632427a6d6146101b4578063246681e6146101e457806330b15caa146102165780633f70c2b41461023257806341ad5c681461026257610121565b806302ee3a521461012657806305300de21461014457806319e751511461017c5780631e608f4614610198575b600080fd5b61012e610430565b60405161013b9190612948565b60405180910390f35b61015e600480360381019061015991906129aa565b610900565b60405161017399989796959493929190612a30565b60405180910390f35b61019660048036038101906101919190612c15565b610bf6565b005b6101b260048036038101906101ad9190612c15565b610cce565b005b6101ce60048036038101906101c99190612ceb565b610da6565b6040516101db9190612d18565b60405180910390f35b6101fe60048036038101906101f99190612ceb565b610e46565b60405161020d93929190612d3a565b60405180910390f35b610230600480360381019061022b9190612c15565b611008565b005b61024c600480360381019061024791906129aa565b6110df565b6040516102599190612e9f565b60405180910390f35b61027c60048036038101906102779190612ec1565b611540565b005b61029860048036038101906102939190612ceb565b611620565b6040516102a59190612d18565b60405180910390f35b6102c860048036038101906102c39190612f0a565b6116c0565b6040516102dd99989796959493929190612a30565b60405180910390f35b61030060048036038101906102fb9190612ceb565b6119d3565b60405161030f93929190612d3a565b60405180910390f35b610332600480360381019061032d9190612ceb565b611b95565b60405161034193929190612d3a565b60405180910390f35b610364600480360381019061035f9190612ec1565b611d57565b005b610380600480360381019061037b9190612c15565b611e37565b005b61039c600480360381019061039791906130f3565b611f0f565b005b6103b860048036038101906103b391906129aa565b6121db565b6040516103c591906132c4565b60405180910390f35b6103e860048036038101906103e391906129aa565b6121f8565b6040516103f591906132c4565b60405180910390f35b61041860048036038101906104139190612ceb565b612210565b60405161042793929190612d3a565b60405180910390f35b6060600460003373ffffffffffffffffffffffffffffffffffffffff1673ffffffffffffffffffffffffffffffffffffffff168152602001908152602001600020805480602002602001604051908101604052809291908181526020016000905b828210156108f757838290600052602060002090600b020160405180610160016040529081600082015481526020016001820180546104cf9061330e565b80601f01602080910402602001604051908101604052809291908181526020018280546104fb9061330e565b80156105485780601f1061051d57610100808354040283529160200191610548565b820191906000526020600020905b81548152906001019060200180831161052b57829003601f168201915b5050505050815260200160028201805480602002602001604051908101604052809291908181526020016000905b828210156106225783829060005260206000200180546105959061330e565b80601f01602080910402602001604051908101604052809291908181526020018280546105c19061330e565b801561060e5780601f106105e35761010080835404028352916020019161060e565b820191906000526020600020905b8154815290600101906020018083116105f157829003601f168201915b505050505081526020019060010190610576565b5050505081526020016003820180548060200260200160405190810160405280929190818152602001828054801561067957602002820191906000526020600020905b815481526020019060010190808311610665575b505050505081526020016004820180546106929061330e565b80601f01602080910402602001604051908101604052809291908181526020018280546106be9061330e565b801561070b5780601f106106e05761010080835404028352916020019161070b565b820191906000526020600020905b8154815290600101906020018083116106ee57829003601f168201915b505050505081526020016005820180546107249061330e565b80601f01602080910402602001604051908101604052809291908181526020018280546107509061330e565b801561079d5780601f106107725761010080835404028352916020019161079d565b820191906000526020600020905b81548152906001019060200180831161078057829003601f168201915b505050505081526020016006820180546107b69061330e565b80601f01602080910402602001604051908101604052809291908181526020018280546107e29061330e565b801561082f5780601f106108045761010080835404028352916020019161082f565b820191906000526020600020905b81548152906001019060200180831161081257829003601f168201915b505050505081526020016007820180546108489061330e565b80601f01602080910402602001604051908101604052809291908181526020018280546108749061330e565b80156108c15780601f10610896576101008083540402835291602001916108c1565b820191906000526020600020905b8154815290600101906020018083116108a457829003601f168201915b505050505081526020016008820154815260200160098201548152602001600a8201548152505081526020019060010190610491565b50505050905090565b60056020528060005260406000206000915090508060000154908060010180546109299061330e565b80601f01602080910402602001604051908101604052809291908181526020018280546109559061330e565b80156109a25780601f10610977576101008083540402835291602001916109a2565b820191906000526020600020905b81548152906001019060200180831161098557829003601f168201915b5050505050908060040180546109b79061330e565b80601f01602080910402602001604051908101604052809291908181526020018280546109e39061330e565b8015610a305780601f10610a0557610100808354040283529160200191610a30565b820191906000526020600020905b815481529060010190602001808311610a1357829003601f168201915b505050505090806005018054610a459061330e565b80601f0160208091040260200160405190810160405280929190818152602001828054610a719061330e565b8015610abe5780601f10610a9357610100808354040283529160200191610abe565b820191906000526020600020905b815481529060010190602001808311610aa157829003601f168201915b505050505090806006018054610ad39061330e565b80601f0160208091040260200160405190810160405280929190818152602001828054610aff9061330e565b8015610b4c5780601f10610b2157610100808354040283529160200191610b4c565b820191906000526020600020905b815481529060010190602001808311610b2f57829003601f168201915b505050505090806007018054610b619061330e565b80601f0160208091040260200160405190810160405280929190818152602001828054610b8d9061330e565b8015610bda5780601f10610baf57610100808354040283529160200191610bda565b820191906000526020600020905b815481529060010190602001808311610bbd57829003601f168201915b50505050509080600801549080600901549080600a0154905089565b60405180606001604052808381526020018281526020016040518060400160405280600781526020017f616e616c79737400000000000000000000000000000000000000000000000000815250815250600260003373ffffffffffffffffffffffffffffffffffffffff1673ffffffffffffffffffffffffffffffffffffffff1681526020019081526020016000206000820151816000019081610c9a91906134eb565b506020820151816001019081610cb091906134eb565b506040820151816002019081610cc691906134eb565b509050505050565b60405180606001604052808381526020018281526020016040518060400160405280600d81526020017f7361666574796f66666963657200000000000000000000000000000000000000815250815250600160003373ffffffffffffffffffffffffffffffffffffffff1673ffffffffffffffffffffffffffffffffffffffff1681526020019081526020016000206000820151816000019081610d7291906134eb565b506020820151816001019081610d8891906134eb565b506040820151816002019081610d9e91906134eb565b509050505050565b60076020528060005260406000206000915090508054610dc59061330e565b80601f0160208091040260200160405190810160405280929190818152602001828054610df19061330e565b8015610e3e5780601f10610e1357610100808354040283529160200191610e3e565b820191906000526020600020905b815481529060010190602001808311610e2157829003601f168201915b505050505081565b6002602052806000526040600020600091509050806000018054610e699061330e565b80601f0160208091040260200160405190810160405280929190818152602001828054610e959061330e565b8015610ee25780601f10610eb757610100808354040283529160200191610ee2565b820191906000526020600020905b815481529060010190602001808311610ec557829003601f168201915b505050505090806001018054610ef79061330e565b80601f0160208091040260200160405190810160405280929190818152602001828054610f239061330e565b8015610f705780601f10610f4557610100808354040283529160200191610f70565b820191906000526020600020905b815481529060010190602001808311610f5357829003601f168201915b505050505090806002018054610f859061330e565b80601f0160208091040260200160405190810160405280929190818152602001828054610fb19061330e565b8015610ffe5780601f10610fd357610100808354040283529160200191610ffe565b820191906000526020600020905b815481529060010190602001808311610fe157829003601f168201915b5050505050905083565b60405180606001604052808381526020018281526020016040518060400160405280600c81526020017f6d616e75666163747572657200000000000000000000000000000000000000008152508152506000803373ffffffffffffffffffffffffffffffffffffffff1673ffffffffffffffffffffffffffffffffffffffff16815260200190815260200160002060008201518160000190816110ab91906134eb565b5060208201518160010190816110c191906134eb565b5060408201518160020190816110d791906134eb565b509050505050565b6110e76123d2565b6005600083815260200190815260200160002060405180610160016040529081600082015481526020016001820180546111209061330e565b80601f016020809104026020016040519081016040528092919081815260200182805461114c9061330e565b80156111995780601f1061116e57610100808354040283529160200191611199565b820191906000526020600020905b81548152906001019060200180831161117c57829003601f168201915b5050505050815260200160028201805480602002602001604051908101604052809291908181526020016000905b828210156112735783829060005260206000200180546111e69061330e565b80601f01602080910402602001604051908101604052809291908181526020018280546112129061330e565b801561125f5780601f106112345761010080835404028352916020019161125f565b820191906000526020600020905b81548152906001019060200180831161124257829003601f168201915b5050505050815260200190600101906111c7565b505050508152602001600382018054806020026020016040519081016040528092919081815260200182805480156112ca57602002820191906000526020600020905b8154815260200190600101908083116112b6575b505050505081526020016004820180546112e39061330e565b80601f016020809104026020016040519081016040528092919081815260200182805461130f9061330e565b801561135c5780601f106113315761010080835404028352916020019161135c565b820191906000526020600020905b81548152906001019060200180831161133f57829003601f168201915b505050505081526020016005820180546113759061330e565b80601f01602080910402602001604051908101604052809291908181526020018280546113a19061330e565b80156113ee5780601f106113c3576101008083540402835291602001916113ee565b820191906000526020600020905b8154815290600101906020018083116113d157829003601f168201915b505050505081526020016006820180546114079061330e565b80601f01602080910402602001604051908101604052809291908181526020018280546114339061330e565b80156114805780601f1061145557610100808354040283529160200191611480565b820191906000526020600020905b81548152906001019060200180831161146357829003601f168201915b505050505081526020016007820180546114999061330e565b80601f01602080910402602001604051908101604052809291908181526020018280546114c59061330e565b80156115125780601f106114e757610100808354040283529160200191611512565b820191906000526020600020905b8154815290600101906020018083116114f557829003601f168201915b505050505081526020016008820154815260200160098201548152602001600a820154815250509050919050565b60008060003373ffffffffffffffffffffffffffffffffffffffff1673ffffffffffffffffffffffffffffffffffffffff168152602001908152602001600020600001805461158e9061330e565b9050116115d0576040517f08c379a00000000000000000000000000000000000000000000000000000000081526004016115c790613609565b60405180910390fd5b80600860003373ffffffffffffffffffffffffffffffffffffffff1673ffffffffffffffffffffffffffffffffffffffff168152602001908152602001600020908161161c91906134eb565b5050565b6008602052806000526040600020600091509050805461163f9061330e565b80601f016020809104026020016040519081016040528092919081815260200182805461166b9061330e565b80156116b85780601f1061168d576101008083540402835291602001916116b8565b820191906000526020600020905b81548152906001019060200180831161169b57829003601f168201915b505050505081565b600460205281600052604060002081815481106116dc57600080fd5b90600052602060002090600b0201600091509150508060000154908060010180546117069061330e565b80601f01602080910402602001604051908101604052809291908181526020018280546117329061330e565b801561177f5780601f106117545761010080835404028352916020019161177f565b820191906000526020600020905b81548152906001019060200180831161176257829003601f168201915b5050505050908060040180546117949061330e565b80601f01602080910402602001604051908101604052809291908181526020018280546117c09061330e565b801561180d5780601f106117e25761010080835404028352916020019161180d565b820191906000526020600020905b8154815290600101906020018083116117f057829003601f168201915b5050505050908060050180546118229061330e565b80601f016020809104026020016040519081016040528092919081815260200182805461184e9061330e565b801561189b5780601f106118705761010080835404028352916020019161189b565b820191906000526020600020905b81548152906001019060200180831161187e57829003601f168201915b5050505050908060060180546118b09061330e565b80601f01602080910402602001604051908101604052809291908181526020018280546118dc9061330e565b80156119295780601f106118fe57610100808354040283529160200191611929565b820191906000526020600020905b81548152906001019060200180831161190c57829003601f168201915b50505050509080600701805461193e9061330e565b80601f016020809104026020016040519081016040528092919081815260200182805461196a9061330e565b80156119b75780601f1061198c576101008083540402835291602001916119b7565b820191906000526020600020905b81548152906001019060200180831161199a57829003601f168201915b50505050509080600801549080600901549080600a0154905089565b60006020528060005260406000206000915090508060000180546119f69061330e565b80601f0160208091040260200160405190810160405280929190818152602001828054611a229061330e565b8015611a6f5780601f10611a4457610100808354040283529160200191611a6f565b820191906000526020600020905b815481529060010190602001808311611a5257829003601f168201915b505050505090806001018054611a849061330e565b80601f0160208091040260200160405190810160405280929190818152602001828054611ab09061330e565b8015611afd5780601f10611ad257610100808354040283529160200191611afd565b820191906000526020600020905b815481529060010190602001808311611ae057829003601f168201915b505050505090806002018054611b129061330e565b80601f0160208091040260200160405190810160405280929190818152602001828054611b3e9061330e565b8015611b8b5780601f10611b6057610100808354040283529160200191611b8b565b820191906000526020600020905b815481529060010190602001808311611b6e57829003601f168201915b5050505050905083565b6003602052806000526040600020600091509050806000018054611bb89061330e565b80601f0160208091040260200160405190810160405280929190818152602001828054611be49061330e565b8015611c315780601f10611c0657610100808354040283529160200191611c31565b820191906000526020600020905b815481529060010190602001808311611c1457829003601f168201915b505050505090806001018054611c469061330e565b80601f0160208091040260200160405190810160405280929190818152602001828054611c729061330e565b8015611cbf5780601f10611c9457610100808354040283529160200191611cbf565b820191906000526020600020905b815481529060010190602001808311611ca257829003601f168201915b505050505090806002018054611cd49061330e565b80601f0160208091040260200160405190810160405280929190818152602001828054611d009061330e565b8015611d4d5780601f10611d2257610100808354040283529160200191611d4d565b820191906000526020600020905b815481529060010190602001808311611d3057829003601f168201915b5050505050905083565b60008060003373ffffffffffffffffffffffffffffffffffffffff1673ffffffffffffffffffffffffffffffffffffffff1681526020019081526020016000206000018054611da59061330e565b905011611de7576040517f08c379a0000000000000000000000000000000000000000000000000000000008152600401611dde90613609565b60405180910390fd5b80600760003373ffffffffffffffffffffffffffffffffffffffff1673ffffffffffffffffffffffffffffffffffffffff1681526020019081526020016000209081611e3391906134eb565b5050565b60405180606001604052808381526020018281526020016040518060400160405280601281526020017f736166657479636f6d6d697373696f6e65720000000000000000000000000000815250815250600360003373ffffffffffffffffffffffffffffffffffffffff1673ffffffffffffffffffffffffffffffffffffffff1681526020019081526020016000206000820151816000019081611edb91906134eb565b506020820151816001019081611ef191906134eb565b506040820151816002019081611f0791906134eb565b509050505050565b60006040518061016001604052808d81526020018c81526020018b81526020018a8152602001898152602001888152602001878152602001868152602001858152602001848152602001838152509050600460003373ffffffffffffffffffffffffffffffffffffffff1673ffffffffffffffffffffffffffffffffffffffff1681526020019081526020016000208190806001815401808255809150506001900390600052602060002090600b0201600090919091909150600082015181600001556020820151816001019081611fe791906134eb565b50604082015181600201908051906020019061200492919061242c565b506060820151816003019080519060200190612021929190612485565b50608082015181600401908161203791906134eb565b5060a082015181600501908161204d91906134eb565b5060c082015181600601908161206391906134eb565b5060e082015181600701908161207991906134eb565b506101008201518160080155610120820151816009015561014082015181600a0155505080600560008e81526020019081526020016000206000820151816000015560208201518160010190816120d091906134eb565b5060408201518160020190805190602001906120ed92919061242c565b50606082015181600301908051906020019061210a929190612485565b50608082015181600401908161212091906134eb565b5060a082015181600501908161213691906134eb565b5060c082015181600601908161214c91906134eb565b5060e082015181600701908161216291906134eb565b506101008201518160080155610120820151816009015561014082015181600a01559050506000338d60405160200161219c929190613692565b60405160208183030381529060405280519060200120905080600660008f81526020019081526020016000208190555050505050505050505050505050565b600060066000838152602001908152602001600020549050919050565b60066020528060005260406000206000915090505481565b60016020528060005260406000206000915090508060000180546122339061330e565b80601f016020809104026020016040519081016040528092919081815260200182805461225f9061330e565b80156122ac5780601f10612281576101008083540402835291602001916122ac565b820191906000526020600020905b81548152906001019060200180831161228f57829003601f168201915b5050505050908060010180546122c19061330e565b80601f01602080910402602001604051908101604052809291908181526020018280546122ed9061330e565b801561233a5780601f1061230f5761010080835404028352916020019161233a565b820191906000526020600020905b81548152906001019060200180831161231d57829003601f168201915b50505050509080600201805461234f9061330e565b80601f016020809104026020016040519081016040528092919081815260200182805461237b9061330e565b80156123c85780601f1061239d576101008083540402835291602001916123c8565b820191906000526020600020905b8154815290600101906020018083116123ab57829003601f168201915b5050505050905083565b60405180610160016040528060008152602001606081526020016060815260200160608152602001606081526020016060815260200160608152602001606081526020016000815260200160008152602001600081525090565b828054828255906000526020600020908101928215612474579160200282015b8281111561247357825182908161246391906134eb565b509160200191906001019061244c565b5b50905061248191906124d2565b5090565b8280548282559060005260206000209081019282156124c1579160200282015b828111156124c05782518255916020019190600101906124a5565b5b5090506124ce91906124f6565b5090565b5b808211156124f257600081816124e99190612513565b506001016124d3565b5090565b5b8082111561250f5760008160009055506001016124f7565b5090565b50805461251f9061330e565b6000825580601f106125315750612550565b601f01602090049060005260206000209081019061254f91906124f6565b5b50565b600081519050919050565b600082825260208201905092915050565b6000819050602082019050919050565b6000819050919050565b6125928161257f565b82525050565b600081519050919050565b600082825260208201905092915050565b60005b838110156125d25780820151818401526020810190506125b7565b60008484015250505050565b6000601f19601f8301169050919050565b60006125fa82612598565b61260481856125a3565b93506126148185602086016125b4565b61261d816125de565b840191505092915050565b600081519050919050565b600082825260208201905092915050565b6000819050602082019050919050565b600061266083836125ef565b905092915050565b6000602082019050919050565b600061268082612628565b61268a8185612633565b93508360208202850161269c85612644565b8060005b858110156126d857848403895281516126b98582612654565b94506126c483612668565b925060208a019950506001810190506126a0565b50829750879550505050505092915050565b600081519050919050565b600082825260208201905092915050565b6000819050602082019050919050565b60006127228383612589565b60208301905092915050565b6000602082019050919050565b6000612746826126ea565b61275081856126f5565b935061275b83612706565b8060005b8381101561278c5781516127738882612716565b975061277e8361272e565b92505060018101905061275f565b5085935050505092915050565b6000610160830160008301516127b26000860182612589565b50602083015184820360208601526127ca82826125ef565b915050604083015184820360408601526127e48282612675565b915050606083015184820360608601526127fe828261273b565b9150506080830151848203608086015261281882826125ef565b91505060a083015184820360a086015261283282826125ef565b91505060c083015184820360c086015261284c82826125ef565b91505060e083015184820360e086015261286682826125ef565b91505061010083015161287d610100860182612589565b50610120830151612892610120860182612589565b506101408301516128a7610140860182612589565b508091505092915050565b60006128be8383612799565b905092915050565b6000602082019050919050565b60006128de82612553565b6128e8818561255e565b9350836020820285016128fa8561256f565b8060005b85811015612936578484038952815161291785826128b2565b9450612922836128c6565b925060208a019950506001810190506128fe565b50829750879550505050505092915050565b6000602082019050818103600083015261296281846128d3565b905092915050565b6000604051905090565b600080fd5b600080fd5b6129878161257f565b811461299257600080fd5b50565b6000813590506129a48161297e565b92915050565b6000602082840312156129c0576129bf612974565b5b60006129ce84828501612995565b91505092915050565b6129e08161257f565b82525050565b600082825260208201905092915050565b6000612a0282612598565b612a0c81856129e6565b9350612a1c8185602086016125b4565b612a25816125de565b840191505092915050565b600061012082019050612a46600083018c6129d7565b8181036020830152612a58818b6129f7565b90508181036040830152612a6c818a6129f7565b90508181036060830152612a8081896129f7565b90508181036080830152612a9481886129f7565b905081810360a0830152612aa881876129f7565b9050612ab760c08301866129d7565b612ac460e08301856129d7565b612ad26101008301846129d7565b9a9950505050505050505050565b600080fd5b600080fd5b7f4e487b7100000000000000000000000000000000000000000000000000000000600052604160045260246000fd5b612b22826125de565b810181811067ffffffffffffffff82111715612b4157612b40612aea565b5b80604052505050565b6000612b5461296a565b9050612b608282612b19565b919050565b600067ffffffffffffffff821115612b8057612b7f612aea565b5b612b89826125de565b9050602081019050919050565b82818337600083830152505050565b6000612bb8612bb384612b65565b612b4a565b905082815260208101848484011115612bd457612bd3612ae5565b5b612bdf848285612b96565b509392505050565b600082601f830112612bfc57612bfb612ae0565b5b8135612c0c848260208601612ba5565b91505092915050565b60008060408385031215612c2c57612c2b612974565b5b600083013567ffffffffffffffff811115612c4a57612c49612979565b5b612c5685828601612be7565b925050602083013567ffffffffffffffff811115612c7757612c76612979565b5b612c8385828601612be7565b9150509250929050565b600073ffffffffffffffffffffffffffffffffffffffff82169050919050565b6000612cb882612c8d565b9050919050565b612cc881612cad565b8114612cd357600080fd5b50565b600081359050612ce581612cbf565b92915050565b600060208284031215612d0157612d00612974565b5b6000612d0f84828501612cd6565b91505092915050565b60006020820190508181036000830152612d3281846129f7565b905092915050565b60006060820190508181036000830152612d5481866129f7565b90508181036020830152612d6881856129f7565b90508181036040830152612d7c81846129f7565b9050949350505050565b600061016083016000830151612d9f6000860182612589565b5060208301518482036020860152612db782826125ef565b91505060408301518482036040860152612dd18282612675565b91505060608301518482036060860152612deb828261273b565b91505060808301518482036080860152612e0582826125ef565b91505060a083015184820360a0860152612e1f82826125ef565b91505060c083015184820360c0860152612e3982826125ef565b91505060e083015184820360e0860152612e5382826125ef565b915050610100830151612e6a610100860182612589565b50610120830151612e7f610120860182612589565b50610140830151612e94610140860182612589565b508091505092915050565b60006020820190508181036000830152612eb98184612d86565b905092915050565b600060208284031215612ed757612ed6612974565b5b600082013567ffffffffffffffff811115612ef557612ef4612979565b5b612f0184828501612be7565b91505092915050565b60008060408385031215612f2157612f20612974565b5b6000612f2f85828601612cd6565b9250506020612f4085828601612995565b9150509250929050565b600067ffffffffffffffff821115612f6557612f64612aea565b5b602082029050602081019050919050565b600080fd5b6000612f8e612f8984612f4a565b612b4a565b90508083825260208201905060208402830185811115612fb157612fb0612f76565b5b835b81811015612ff857803567ffffffffffffffff811115612fd657612fd5612ae0565b5b808601612fe38982612be7565b85526020850194505050602081019050612fb3565b5050509392505050565b600082601f83011261301757613016612ae0565b5b8135613027848260208601612f7b565b91505092915050565b600067ffffffffffffffff82111561304b5761304a612aea565b5b602082029050602081019050919050565b600061306f61306a84613030565b612b4a565b9050808382526020820190506020840283018581111561309257613091612f76565b5b835b818110156130bb57806130a78882612995565b845260208401935050602081019050613094565b5050509392505050565b600082601f8301126130da576130d9612ae0565b5b81356130ea84826020860161305c565b91505092915050565b60008060008060008060008060008060006101608c8e03121561311957613118612974565b5b60006131278e828f01612995565b9b505060208c013567ffffffffffffffff81111561314857613147612979565b5b6131548e828f01612be7565b9a505060408c013567ffffffffffffffff81111561317557613174612979565b5b6131818e828f01613002565b99505060608c013567ffffffffffffffff8111156131a2576131a1612979565b5b6131ae8e828f016130c5565b98505060808c013567ffffffffffffffff8111156131cf576131ce612979565b5b6131db8e828f01612be7565b97505060a08c013567ffffffffffffffff8111156131fc576131fb612979565b5b6132088e828f01612be7565b96505060c08c013567ffffffffffffffff81111561322957613228612979565b5b6132358e828f01612be7565b95505060e08c013567ffffffffffffffff81111561325657613255612979565b5b6132628e828f01612be7565b9450506101006132748e828f01612995565b9350506101206132868e828f01612995565b9250506101406132988e828f01612995565b9150509295989b509295989b9093969950565b6000819050919050565b6132be816132ab565b82525050565b60006020820190506132d960008301846132b5565b92915050565b7f4e487b7100000000000000000000000000000000000000000000000000000000600052602260045260246000fd5b6000600282049050600182168061332657607f821691505b602082108103613339576133386132df565b5b50919050565b60008190508160005260206000209050919050565b60006020601f8301049050919050565b600082821b905092915050565b6000600883026133a17fffffffffffffffffffffffffffffffffffffffffffffffffffffffffffffffff82613364565b6133ab8683613364565b95508019841693508086168417925050509392505050565b6000819050919050565b60006133e86133e36133de8461257f565b6133c3565b61257f565b9050919050565b6000819050919050565b613402836133cd565b61341661340e826133ef565b848454613371565b825550505050565b600090565b61342b61341e565b6134368184846133f9565b505050565b5b8181101561345a5761344f600082613423565b60018101905061343c565b5050565b601f82111561349f576134708161333f565b61347984613354565b81016020851015613488578190505b61349c61349485613354565b83018261343b565b50505b505050565b600082821c905092915050565b60006134c2600019846008026134a4565b1980831691505092915050565b60006134db83836134b1565b9150826002028217905092915050565b6134f482612598565b67ffffffffffffffff81111561350d5761350c612aea565b5b613517825461330e565b61352282828561345e565b600060209050601f8311600181146135555760008415613543578287015190505b61354d85826134cf565b8655506135b5565b601f1984166135638661333f565b60005b8281101561358b57848901518255600182019150602085019450602081019050613566565b868310156135a857848901516135a4601f8916826134b1565b8355505b6001600288020188555050505b505050505050565b7f4e6f7420612072656769737465726564206d616e756661637475726572000000600082015250565b60006135f3601d836129e6565b91506135fe826135bd565b602082019050919050565b60006020820190508181036000830152613622816135e6565b9050919050565b60008160601b9050919050565b600061364182613629565b9050919050565b600061365382613636565b9050919050565b61366b61366682612cad565b613648565b82525050565b6000819050919050565b61368c6136878261257f565b613671565b82525050565b600061369e828561365a565b6014820191506136ae828461367b565b602082019150819050939250505056fea2646970667358221220a8f4292d74afb3f3316dc32c331cbd3ecdf82108c70b034f0310e133e2f2d19064736f6c63430008130033",
  "linkReferences": {},
  "deployedLinkReferences": {}
}