{
  "_format": "hh-sol-artifact-1",
  "contractName": "Crusader",
  "sourceName": "contracts/Crusader.sol",
  "abi": [
    {
      "inputs": [
        {
          "internalType": "uint256",
          "name": "_id",
          "type": "uint256"
        },
        {
          "internalType": "string",
          "name": "_name",
          "type": "string"
        },
        {
          "internalType": "string[]",
          "name": "_ingredients",
          "type": "string[]"
        },
        {
          "internalType": "uint256[]",
          "name": "_quantity",
          "type": "uint256[]"
        },
        {
          "internalType": "string",
          "name": "_intendedUse",
          "type": "string"
        },
        {
          "internalType": "string",
          "name": "_functionalUse",
          "type": "string"
        },
        {
          "internalType": "string",
          "name": "_manufacturingProcess",
          "type": "string"
        },
        {
          "internalType": "string",
          "name": "_nutritionalBenefits",
          "type": "string"
        },
        {
          "internalType": "uint256",
          "name": "_fatPercentage",
          "type": "uint256"
        },
        {
          "internalType": "uint256",
          "name": "_proteinPercentage",
          "type": "uint256"
        },
        {
          "internalType": "uint256",
          "name": "_carbohydratePercentage",
          "type": "uint256"
        }
      ],
      "name": "addProduct",
      "outputs": [],
      "stateMutability": "nonpayable",
      "type": "function"
    },
    {
      "inputs": [
        {
          "internalType": "address",
          "name": "",
          "type": "address"
        }
      ],
      "name": "analysts",
      "outputs": [
        {
          "internalType": "string",
          "name": "username",
          "type": "string"
        },
        {
          "internalType": "string",
          "name": "password",
          "type": "string"
        },
        {
          "internalType": "string",
          "name": "entity",
          "type": "string"
        }
      ],
      "stateMutability": "view",
      "type": "function"
    },
    {
      "inputs": [],
      "name": "getContractBalance",
      "outputs": [
        {
          "internalType": "uint256",
          "name": "",
          "type": "uint256"
        }
      ],
      "stateMutability": "view",
      "type": "function"
    },
    {
      "inputs": [
        {
          "internalType": "uint256",
          "name": "_id",
          "type": "uint256"
        }
      ],
      "name": "getProductById",
      "outputs": [
        {
          "components": [
            {
              "internalType": "uint256",
              "name": "id",
              "type": "uint256"
            },
            {
              "internalType": "string",
              "name": "name",
              "type": "string"
            },
            {
              "internalType": "string[]",
              "name": "ingredients",
              "type": "string[]"
            },
            {
              "internalType": "uint256[]",
              "name": "quantity",
              "type": "uint256[]"
            },
            {
              "internalType": "string",
              "name": "intendedUse",
              "type": "string"
            },
            {
              "internalType": "string",
              "name": "functionalUse",
              "type": "string"
            },
            {
              "internalType": "string",
              "name": "manufacturingProcess",
              "type": "string"
            },
            {
              "internalType": "string",
              "name": "nutritionalBenefits",
              "type": "string"
            },
            {
              "internalType": "uint256",
              "name": "fatPercentage",
              "type": "uint256"
            },
            {
              "internalType": "uint256",
              "name": "proteinPercentage",
              "type": "uint256"
            },
            {
              "internalType": "uint256",
              "name": "carbohydratePercentage",
              "type": "uint256"
            }
          ],
          "internalType": "struct Crusader.ProductDetails",
          "name": "",
          "type": "tuple"
        }
      ],
      "stateMutability": "view",
      "type": "function"
    },
    {
      "inputs": [],
      "name": "getTotalProducts",
      "outputs": [
        {
          "internalType": "uint256",
          "name": "",
          "type": "uint256"
        }
      ],
      "stateMutability": "view",
      "type": "function"
    },
    {
      "inputs": [
        {
          "internalType": "address",
          "name": "",
          "type": "address"
        }
      ],
      "name": "manufacturerAadhar",
      "outputs": [
        {
          "internalType": "string",
          "name": "",
          "type": "string"
        }
      ],
      "stateMutability": "view",
      "type": "function"
    },
    {
      "inputs": [
        {
          "internalType": "address",
          "name": "",
          "type": "address"
        }
      ],
      "name": "manufacturers",
      "outputs": [
        {
          "internalType": "string",
          "name": "username",
          "type": "string"
        },
        {
          "internalType": "string",
          "name": "password",
          "type": "string"
        },
        {
          "internalType": "string",
          "name": "entity",
          "type": "string"
        }
      ],
      "stateMutability": "view",
      "type": "function"
    },
    {
      "inputs": [
        {
          "internalType": "uint256",
          "name": "",
          "type": "uint256"
        }
      ],
      "name": "productsIdMapping",
      "outputs": [
        {
          "internalType": "uint256",
          "name": "id",
          "type": "uint256"
        },
        {
          "internalType": "string",
          "name": "name",
          "type": "string"
        },
        {
          "internalType": "string",
          "name": "intendedUse",
          "type": "string"
        },
        {
          "internalType": "string",
          "name": "functionalUse",
          "type": "string"
        },
        {
          "internalType": "string",
          "name": "manufacturingProcess",
          "type": "string"
        },
        {
          "internalType": "string",
          "name": "nutritionalBenefits",
          "type": "string"
        },
        {
          "internalType": "uint256",
          "name": "fatPercentage",
          "type": "uint256"
        },
        {
          "internalType": "uint256",
          "name": "proteinPercentage",
          "type": "uint256"
        },
        {
          "internalType": "uint256",
          "name": "carbohydratePercentage",
          "type": "uint256"
        }
      ],
      "stateMutability": "view",
      "type": "function"
    },
    {
      "inputs": [
        {
          "internalType": "string",
          "name": "_username",
          "type": "string"
        },
        {
          "internalType": "string",
          "name": "_password",
          "type": "string"
        }
      ],
      "name": "registerAnalyst",
      "outputs": [],
      "stateMutability": "nonpayable",
      "type": "function"
    },
    {
      "inputs": [
        {
          "internalType": "string",
          "name": "_username",
          "type": "string"
        },
        {
          "internalType": "string",
          "name": "_password",
          "type": "string"
        }
      ],
      "name": "registerCommissioner",
      "outputs": [],
      "stateMutability": "nonpayable",
      "type": "function"
    },
    {
      "inputs": [
        {
          "internalType": "string",
          "name": "_username",
          "type": "string"
        },
        {
          "internalType": "string",
          "name": "_password",
          "type": "string"
        }
      ],
      "name": "registerManufacturer",
      "outputs": [],
      "stateMutability": "nonpayable",
      "type": "function"
    },
    {
      "inputs": [
        {
          "internalType": "string",
          "name": "_username",
          "type": "string"
        },
        {
          "internalType": "string",
          "name": "_password",
          "type": "string"
        }
      ],
      "name": "registerSafetyOfficer",
      "outputs": [],
      "stateMutability": "nonpayable",
      "type": "function"
    },
    {
      "inputs": [
        {
          "internalType": "address",
          "name": "",
          "type": "address"
        }
      ],
      "name": "safetycommissioners",
      "outputs": [
        {
          "internalType": "string",
          "name": "username",
          "type": "string"
        },
        {
          "internalType": "string",
          "name": "password",
          "type": "string"
        },
        {
          "internalType": "string",
          "name": "entity",
          "type": "string"
        }
      ],
      "stateMutability": "view",
      "type": "function"
    },
    {
      "inputs": [
        {
          "internalType": "address",
          "name": "",
          "type": "address"
        }
      ],
      "name": "safetyofficers",
      "outputs": [
        {
          "internalType": "string",
          "name": "username",
          "type": "string"
        },
        {
          "internalType": "string",
          "name": "password",
          "type": "string"
        },
        {
          "internalType": "string",
          "name": "entity",
          "type": "string"
        }
      ],
      "stateMutability": "view",
      "type": "function"
    },
    {
      "inputs": [
        {
          "internalType": "string",
          "name": "_url",
          "type": "string"
        }
      ],
      "name": "setManufacturerAadhar",
      "outputs": [],
      "stateMutability": "nonpayable",
      "type": "function"
    },
    {
      "inputs": [],
      "name": "totalProducts",
      "outputs": [
        {
          "internalType": "uint256",
          "name": "",
          "type": "uint256"
        }
      ],
      "stateMutability": "view",
      "type": "function"
    }
  ],
  "bytecode": "0x608060405234801561001057600080fd5b506129a1806100206000396000f3fe608060405234801561001057600080fd5b50600436106101005760003560e01c80636b5eb09c116100975780639d14649e116100665780639d14649e146102e1578063b20d4c51146102fd578063c277a55014610319578063fa720d861461033557610100565b80636b5eb09c146102415780636f9fb98a14610273578063992c0861146102915780639b9d326d146102c357610100565b8063246681e6116100d3578063246681e6146101a557806330b15caa146101d75780633f70c2b4146101f3578063570aea8a1461022357610100565b806305300de21461010557806319e751511461013d5780631e608f46146101595780632427a6d614610175575b600080fd5b61011f600480360381019061011a9190611a2c565b610367565b60405161013499989796959493929190611af8565b60405180910390f35b61015760048036038101906101529190611cdd565b61065d565b005b610173600480360381019061016e9190611cdd565b610735565b005b61018f600480360381019061018a9190611db3565b61080d565b60405161019c9190611de0565b60405180910390f35b6101bf60048036038101906101ba9190611db3565b6108ad565b6040516101ce93929190611e02565b60405180910390f35b6101f160048036038101906101ec9190611cdd565b610a6f565b005b61020d60048036038101906102089190611a2c565b610b46565b60405161021a9190612131565b60405180910390f35b61022b610fa7565b6040516102389190612153565b60405180910390f35b61025b60048036038101906102569190611db3565b610fb1565b60405161026a93929190611e02565b60405180910390f35b61027b611173565b6040516102889190612153565b60405180910390f35b6102ab60048036038101906102a69190611db3565b61117b565b6040516102ba93929190611e02565b60405180910390f35b6102cb61133d565b6040516102d89190612153565b60405180910390f35b6102fb60048036038101906102f6919061216e565b611343565b005b61031760048036038101906103129190611cdd565b611423565b005b610333600480360381019061032e9190612360565b6114fb565b005b61034f600480360381019061034a9190611db3565b61169f565b60405161035e93929190611e02565b60405180910390f35b600560205280600052604060002060009150905080600001549080600101805461039090612547565b80601f01602080910402602001604051908101604052809291908181526020018280546103bc90612547565b80156104095780601f106103de57610100808354040283529160200191610409565b820191906000526020600020905b8154815290600101906020018083116103ec57829003601f168201915b50505050509080600401805461041e90612547565b80601f016020809104026020016040519081016040528092919081815260200182805461044a90612547565b80156104975780601f1061046c57610100808354040283529160200191610497565b820191906000526020600020905b81548152906001019060200180831161047a57829003601f168201915b5050505050908060050180546104ac90612547565b80601f01602080910402602001604051908101604052809291908181526020018280546104d890612547565b80156105255780601f106104fa57610100808354040283529160200191610525565b820191906000526020600020905b81548152906001019060200180831161050857829003601f168201915b50505050509080600601805461053a90612547565b80601f016020809104026020016040519081016040528092919081815260200182805461056690612547565b80156105b35780601f10610588576101008083540402835291602001916105b3565b820191906000526020600020905b81548152906001019060200180831161059657829003601f168201915b5050505050908060070180546105c890612547565b80601f01602080910402602001604051908101604052809291908181526020018280546105f490612547565b80156106415780601f1061061657610100808354040283529160200191610641565b820191906000526020600020905b81548152906001019060200180831161062457829003601f168201915b50505050509080600801549080600901549080600a0154905089565b60405180606001604052808381526020018281526020016040518060400160405280600781526020017f616e616c79737400000000000000000000000000000000000000000000000000815250815250600260003373ffffffffffffffffffffffffffffffffffffffff1673ffffffffffffffffffffffffffffffffffffffff16815260200190815260200160002060008201518160000190816107019190612724565b5060208201518160010190816107179190612724565b50604082015181600201908161072d9190612724565b509050505050565b60405180606001604052808381526020018281526020016040518060400160405280600d81526020017f7361666574796f66666963657200000000000000000000000000000000000000815250815250600160003373ffffffffffffffffffffffffffffffffffffffff1673ffffffffffffffffffffffffffffffffffffffff16815260200190815260200160002060008201518160000190816107d99190612724565b5060208201518160010190816107ef9190612724565b5060408201518160020190816108059190612724565b509050505050565b6006602052806000526040600020600091509050805461082c90612547565b80601f016020809104026020016040519081016040528092919081815260200182805461085890612547565b80156108a55780601f1061087a576101008083540402835291602001916108a5565b820191906000526020600020905b81548152906001019060200180831161088857829003601f168201915b505050505081565b60026020528060005260406000206000915090508060000180546108d090612547565b80601f01602080910402602001604051908101604052809291908181526020018280546108fc90612547565b80156109495780601f1061091e57610100808354040283529160200191610949565b820191906000526020600020905b81548152906001019060200180831161092c57829003601f168201915b50505050509080600101805461095e90612547565b80601f016020809104026020016040519081016040528092919081815260200182805461098a90612547565b80156109d75780601f106109ac576101008083540402835291602001916109d7565b820191906000526020600020905b8154815290600101906020018083116109ba57829003601f168201915b5050505050908060020180546109ec90612547565b80601f0160208091040260200160405190810160405280929190818152602001828054610a1890612547565b8015610a655780601f10610a3a57610100808354040283529160200191610a65565b820191906000526020600020905b815481529060010190602001808311610a4857829003601f168201915b5050505050905083565b60405180606001604052808381526020018281526020016040518060400160405280600c81526020017f6d616e75666163747572657200000000000000000000000000000000000000008152508152506000803373ffffffffffffffffffffffffffffffffffffffff1673ffffffffffffffffffffffffffffffffffffffff1681526020019081526020016000206000820151816000019081610b129190612724565b506020820151816001019081610b289190612724565b506040820151816002019081610b3e9190612724565b509050505050565b610b4e611861565b600560008381526020019081526020016000206040518061016001604052908160008201548152602001600182018054610b8790612547565b80601f0160208091040260200160405190810160405280929190818152602001828054610bb390612547565b8015610c005780601f10610bd557610100808354040283529160200191610c00565b820191906000526020600020905b815481529060010190602001808311610be357829003601f168201915b5050505050815260200160028201805480602002602001604051908101604052809291908181526020016000905b82821015610cda578382906000526020600020018054610c4d90612547565b80601f0160208091040260200160405190810160405280929190818152602001828054610c7990612547565b8015610cc65780601f10610c9b57610100808354040283529160200191610cc6565b820191906000526020600020905b815481529060010190602001808311610ca957829003601f168201915b505050505081526020019060010190610c2e565b50505050815260200160038201805480602002602001604051908101604052809291908181526020018280548015610d3157602002820191906000526020600020905b815481526020019060010190808311610d1d575b50505050508152602001600482018054610d4a90612547565b80601f0160208091040260200160405190810160405280929190818152602001828054610d7690612547565b8015610dc35780601f10610d9857610100808354040283529160200191610dc3565b820191906000526020600020905b815481529060010190602001808311610da657829003601f168201915b50505050508152602001600582018054610ddc90612547565b80601f0160208091040260200160405190810160405280929190818152602001828054610e0890612547565b8015610e555780601f10610e2a57610100808354040283529160200191610e55565b820191906000526020600020905b815481529060010190602001808311610e3857829003601f168201915b50505050508152602001600682018054610e6e90612547565b80601f0160208091040260200160405190810160405280929190818152602001828054610e9a90612547565b8015610ee75780601f10610ebc57610100808354040283529160200191610ee7565b820191906000526020600020905b815481529060010190602001808311610eca57829003601f168201915b50505050508152602001600782018054610f0090612547565b80601f0160208091040260200160405190810160405280929190818152602001828054610f2c90612547565b8015610f795780601f10610f4e57610100808354040283529160200191610f79565b820191906000526020600020905b815481529060010190602001808311610f5c57829003601f168201915b505050505081526020016008820154815260200160098201548152602001600a820154815250509050919050565b6000600454905090565b6000602052806000526040600020600091509050806000018054610fd490612547565b80601f016020809104026020016040519081016040528092919081815260200182805461100090612547565b801561104d5780601f106110225761010080835404028352916020019161104d565b820191906000526020600020905b81548152906001019060200180831161103057829003601f168201915b50505050509080600101805461106290612547565b80601f016020809104026020016040519081016040528092919081815260200182805461108e90612547565b80156110db5780601f106110b0576101008083540402835291602001916110db565b820191906000526020600020905b8154815290600101906020018083116110be57829003601f168201915b5050505050908060020180546110f090612547565b80601f016020809104026020016040519081016040528092919081815260200182805461111c90612547565b80156111695780601f1061113e57610100808354040283529160200191611169565b820191906000526020600020905b81548152906001019060200180831161114c57829003601f168201915b5050505050905083565b600047905090565b600360205280600052604060002060009150905080600001805461119e90612547565b80601f01602080910402602001604051908101604052809291908181526020018280546111ca90612547565b80156112175780601f106111ec57610100808354040283529160200191611217565b820191906000526020600020905b8154815290600101906020018083116111fa57829003601f168201915b50505050509080600101805461122c90612547565b80601f016020809104026020016040519081016040528092919081815260200182805461125890612547565b80156112a55780601f1061127a576101008083540402835291602001916112a5565b820191906000526020600020905b81548152906001019060200180831161128857829003601f168201915b5050505050908060020180546112ba90612547565b80601f01602080910402602001604051908101604052809291908181526020018280546112e690612547565b80156113335780601f1061130857610100808354040283529160200191611333565b820191906000526020600020905b81548152906001019060200180831161131657829003601f168201915b5050505050905083565b60045481565b60008060003373ffffffffffffffffffffffffffffffffffffffff1673ffffffffffffffffffffffffffffffffffffffff168152602001908152602001600020600001805461139190612547565b9050116113d3576040517f08c379a00000000000000000000000000000000000000000000000000000000081526004016113ca90612842565b60405180910390fd5b80600660003373ffffffffffffffffffffffffffffffffffffffff1673ffffffffffffffffffffffffffffffffffffffff168152602001908152602001600020908161141f9190612724565b5050565b60405180606001604052808381526020018281526020016040518060400160405280601281526020017f736166657479636f6d6d697373696f6e65720000000000000000000000000000815250815250600360003373ffffffffffffffffffffffffffffffffffffffff1673ffffffffffffffffffffffffffffffffffffffff16815260200190815260200160002060008201518160000190816114c79190612724565b5060208201518160010190816114dd9190612724565b5060408201518160020190816114f39190612724565b509050505050565b875189511461153f576040517f08c379a0000000000000000000000000000000000000000000000000000000008152600401611536906128d4565b60405180910390fd5b6004600081548092919061155290612923565b919050555060006040518061016001604052808d81526020018c81526020018b81526020018a815260200189815260200188815260200187815260200186815260200185815260200184815260200183815250905080600560008e81526020019081526020016000206000820151816000015560208201518160010190816115da9190612724565b5060408201518160020190805190602001906115f79291906118bb565b506060820151816003019080519060200190611614929190611914565b50608082015181600401908161162a9190612724565b5060a08201518160050190816116409190612724565b5060c08201518160060190816116569190612724565b5060e082015181600701908161166c9190612724565b506101008201518160080155610120820151816009015561014082015181600a0155905050505050505050505050505050565b60016020528060005260406000206000915090508060000180546116c290612547565b80601f01602080910402602001604051908101604052809291908181526020018280546116ee90612547565b801561173b5780601f106117105761010080835404028352916020019161173b565b820191906000526020600020905b81548152906001019060200180831161171e57829003601f168201915b50505050509080600101805461175090612547565b80601f016020809104026020016040519081016040528092919081815260200182805461177c90612547565b80156117c95780601f1061179e576101008083540402835291602001916117c9565b820191906000526020600020905b8154815290600101906020018083116117ac57829003601f168201915b5050505050908060020180546117de90612547565b80601f016020809104026020016040519081016040528092919081815260200182805461180a90612547565b80156118575780601f1061182c57610100808354040283529160200191611857565b820191906000526020600020905b81548152906001019060200180831161183a57829003601f168201915b5050505050905083565b60405180610160016040528060008152602001606081526020016060815260200160608152602001606081526020016060815260200160608152602001606081526020016000815260200160008152602001600081525090565b828054828255906000526020600020908101928215611903579160200282015b828111156119025782518290816118f29190612724565b50916020019190600101906118db565b5b5090506119109190611961565b5090565b828054828255906000526020600020908101928215611950579160200282015b8281111561194f578251825591602001919060010190611934565b5b50905061195d9190611985565b5090565b5b80821115611981576000818161197891906119a2565b50600101611962565b5090565b5b8082111561199e576000816000905550600101611986565b5090565b5080546119ae90612547565b6000825580601f106119c057506119df565b601f0160209004906000526020600020908101906119de9190611985565b5b50565b6000604051905090565b600080fd5b600080fd5b6000819050919050565b611a09816119f6565b8114611a1457600080fd5b50565b600081359050611a2681611a00565b92915050565b600060208284031215611a4257611a416119ec565b5b6000611a5084828501611a17565b91505092915050565b611a62816119f6565b82525050565b600081519050919050565b600082825260208201905092915050565b60005b83811015611aa2578082015181840152602081019050611a87565b60008484015250505050565b6000601f19601f8301169050919050565b6000611aca82611a68565b611ad48185611a73565b9350611ae4818560208601611a84565b611aed81611aae565b840191505092915050565b600061012082019050611b0e600083018c611a59565b8181036020830152611b20818b611abf565b90508181036040830152611b34818a611abf565b90508181036060830152611b488189611abf565b90508181036080830152611b5c8188611abf565b905081810360a0830152611b708187611abf565b9050611b7f60c0830186611a59565b611b8c60e0830185611a59565b611b9a610100830184611a59565b9a9950505050505050505050565b600080fd5b600080fd5b7f4e487b7100000000000000000000000000000000000000000000000000000000600052604160045260246000fd5b611bea82611aae565b810181811067ffffffffffffffff82111715611c0957611c08611bb2565b5b80604052505050565b6000611c1c6119e2565b9050611c288282611be1565b919050565b600067ffffffffffffffff821115611c4857611c47611bb2565b5b611c5182611aae565b9050602081019050919050565b82818337600083830152505050565b6000611c80611c7b84611c2d565b611c12565b905082815260208101848484011115611c9c57611c9b611bad565b5b611ca7848285611c5e565b509392505050565b600082601f830112611cc457611cc3611ba8565b5b8135611cd4848260208601611c6d565b91505092915050565b60008060408385031215611cf457611cf36119ec565b5b600083013567ffffffffffffffff811115611d1257611d116119f1565b5b611d1e85828601611caf565b925050602083013567ffffffffffffffff811115611d3f57611d3e6119f1565b5b611d4b85828601611caf565b9150509250929050565b600073ffffffffffffffffffffffffffffffffffffffff82169050919050565b6000611d8082611d55565b9050919050565b611d9081611d75565b8114611d9b57600080fd5b50565b600081359050611dad81611d87565b92915050565b600060208284031215611dc957611dc86119ec565b5b6000611dd784828501611d9e565b91505092915050565b60006020820190508181036000830152611dfa8184611abf565b905092915050565b60006060820190508181036000830152611e1c8186611abf565b90508181036020830152611e308185611abf565b90508181036040830152611e448184611abf565b9050949350505050565b611e57816119f6565b82525050565b600082825260208201905092915050565b6000611e7982611a68565b611e838185611e5d565b9350611e93818560208601611a84565b611e9c81611aae565b840191505092915050565b600081519050919050565b600082825260208201905092915050565b6000819050602082019050919050565b6000611edf8383611e6e565b905092915050565b6000602082019050919050565b6000611eff82611ea7565b611f098185611eb2565b935083602082028501611f1b85611ec3565b8060005b85811015611f575784840389528151611f388582611ed3565b9450611f4383611ee7565b925060208a01995050600181019050611f1f565b50829750879550505050505092915050565b600081519050919050565b600082825260208201905092915050565b6000819050602082019050919050565b6000611fa18383611e4e565b60208301905092915050565b6000602082019050919050565b6000611fc582611f69565b611fcf8185611f74565b9350611fda83611f85565b8060005b8381101561200b578151611ff28882611f95565b9750611ffd83611fad565b925050600181019050611fde565b5085935050505092915050565b6000610160830160008301516120316000860182611e4e565b50602083015184820360208601526120498282611e6e565b915050604083015184820360408601526120638282611ef4565b9150506060830151848203606086015261207d8282611fba565b915050608083015184820360808601526120978282611e6e565b91505060a083015184820360a08601526120b18282611e6e565b91505060c083015184820360c08601526120cb8282611e6e565b91505060e083015184820360e08601526120e58282611e6e565b9150506101008301516120fc610100860182611e4e565b50610120830151612111610120860182611e4e565b50610140830151612126610140860182611e4e565b508091505092915050565b6000602082019050818103600083015261214b8184612018565b905092915050565b60006020820190506121686000830184611a59565b92915050565b600060208284031215612184576121836119ec565b5b600082013567ffffffffffffffff8111156121a2576121a16119f1565b5b6121ae84828501611caf565b91505092915050565b600067ffffffffffffffff8211156121d2576121d1611bb2565b5b602082029050602081019050919050565b600080fd5b60006121fb6121f6846121b7565b611c12565b9050808382526020820190506020840283018581111561221e5761221d6121e3565b5b835b8181101561226557803567ffffffffffffffff81111561224357612242611ba8565b5b8086016122508982611caf565b85526020850194505050602081019050612220565b5050509392505050565b600082601f83011261228457612283611ba8565b5b81356122948482602086016121e8565b91505092915050565b600067ffffffffffffffff8211156122b8576122b7611bb2565b5b602082029050602081019050919050565b60006122dc6122d78461229d565b611c12565b905080838252602082019050602084028301858111156122ff576122fe6121e3565b5b835b8181101561232857806123148882611a17565b845260208401935050602081019050612301565b5050509392505050565b600082601f83011261234757612346611ba8565b5b81356123578482602086016122c9565b91505092915050565b60008060008060008060008060008060006101608c8e031215612386576123856119ec565b5b60006123948e828f01611a17565b9b505060208c013567ffffffffffffffff8111156123b5576123b46119f1565b5b6123c18e828f01611caf565b9a505060408c013567ffffffffffffffff8111156123e2576123e16119f1565b5b6123ee8e828f0161226f565b99505060608c013567ffffffffffffffff81111561240f5761240e6119f1565b5b61241b8e828f01612332565b98505060808c013567ffffffffffffffff81111561243c5761243b6119f1565b5b6124488e828f01611caf565b97505060a08c013567ffffffffffffffff811115612469576124686119f1565b5b6124758e828f01611caf565b96505060c08c013567ffffffffffffffff811115612496576124956119f1565b5b6124a28e828f01611caf565b95505060e08c013567ffffffffffffffff8111156124c3576124c26119f1565b5b6124cf8e828f01611caf565b9450506101006124e18e828f01611a17565b9350506101206124f38e828f01611a17565b9250506101406125058e828f01611a17565b9150509295989b509295989b9093969950565b7f4e487b7100000000000000000000000000000000000000000000000000000000600052602260045260246000fd5b6000600282049050600182168061255f57607f821691505b60208210810361257257612571612518565b5b50919050565b60008190508160005260206000209050919050565b60006020601f8301049050919050565b600082821b905092915050565b6000600883026125da7fffffffffffffffffffffffffffffffffffffffffffffffffffffffffffffffff8261259d565b6125e4868361259d565b95508019841693508086168417925050509392505050565b6000819050919050565b600061262161261c612617846119f6565b6125fc565b6119f6565b9050919050565b6000819050919050565b61263b83612606565b61264f61264782612628565b8484546125aa565b825550505050565b600090565b612664612657565b61266f818484612632565b505050565b5b818110156126935761268860008261265c565b600181019050612675565b5050565b601f8211156126d8576126a981612578565b6126b28461258d565b810160208510156126c1578190505b6126d56126cd8561258d565b830182612674565b50505b505050565b600082821c905092915050565b60006126fb600019846008026126dd565b1980831691505092915050565b600061271483836126ea565b9150826002028217905092915050565b61272d82611a68565b67ffffffffffffffff81111561274657612745611bb2565b5b6127508254612547565b61275b828285612697565b600060209050601f83116001811461278e576000841561277c578287015190505b6127868582612708565b8655506127ee565b601f19841661279c86612578565b60005b828110156127c45784890151825560018201915060208501945060208101905061279f565b868310156127e157848901516127dd601f8916826126ea565b8355505b6001600288020188555050505b505050505050565b7f4e6f7420612072656769737465726564206d616e756661637475726572000000600082015250565b600061282c601d83611a73565b9150612837826127f6565b602082019050919050565b6000602082019050818103600083015261285b8161281f565b9050919050565b7f496e6772656469656e747320616e64207175616e74697479206172726179732060008201527f6d7573742068617665207468652073616d65206c656e67746800000000000000602082015250565b60006128be603983611a73565b91506128c982612862565b604082019050919050565b600060208201905081810360008301526128ed816128b1565b9050919050565b7f4e487b7100000000000000000000000000000000000000000000000000000000600052601160045260246000fd5b600061292e826119f6565b91507fffffffffffffffffffffffffffffffffffffffffffffffffffffffffffffffff82036129605761295f6128f4565b5b60018201905091905056fea26469706673582212205ebc34556693db944ea53095c18e450fd9742038ef4042520111c66105348a6564736f6c63430008130033",
  "linkReferences": {},
  "deployedLinkReferences": {}
}