{
  "_format": "hh-sol-artifact-1",
  "contractName": "Crusader",
  "sourceName": "contracts/Crusader.sol",
  "abi": [
    {
      "inputs": [
        {
          "internalType": "uint256",
          "name": "_id",
          "type": "uint256"
        },
        {
          "internalType": "string",
          "name": "_name",
          "type": "string"
        },
        {
          "internalType": "string[]",
          "name": "_ingredients",
          "type": "string[]"
        },
        {
          "internalType": "uint256[]",
          "name": "_quantity",
          "type": "uint256[]"
        },
        {
          "internalType": "string",
          "name": "_intendedUse",
          "type": "string"
        },
        {
          "internalType": "string",
          "name": "_functionalUse",
          "type": "string"
        },
        {
          "internalType": "string",
          "name": "_manufacturingProcess",
          "type": "string"
        },
        {
          "internalType": "string",
          "name": "_nutritionalBenefits",
          "type": "string"
        },
        {
          "internalType": "uint256",
          "name": "_fatPercentage",
          "type": "uint256"
        },
        {
          "internalType": "uint256",
          "name": "_proteinPercentage",
          "type": "uint256"
        },
        {
          "internalType": "uint256",
          "name": "_carbohydratePercentage",
          "type": "uint256"
        }
      ],
      "name": "addProduct",
      "outputs": [],
      "stateMutability": "nonpayable",
      "type": "function"
    },
    {
      "inputs": [
        {
          "internalType": "address",
          "name": "",
          "type": "address"
        }
      ],
      "name": "analysts",
      "outputs": [
        {
          "internalType": "string",
          "name": "username",
          "type": "string"
        },
        {
          "internalType": "string",
          "name": "password",
          "type": "string"
        },
        {
          "internalType": "string",
          "name": "entity",
          "type": "string"
        }
      ],
      "stateMutability": "view",
      "type": "function"
    },
    {
      "inputs": [
        {
          "internalType": "bytes32",
          "name": "_txHash",
          "type": "bytes32"
        }
      ],
      "name": "approveProductByFSC",
      "outputs": [
        {
          "components": [
            {
              "internalType": "uint256",
              "name": "id",
              "type": "uint256"
            },
            {
              "internalType": "string",
              "name": "name",
              "type": "string"
            },
            {
              "internalType": "string[]",
              "name": "ingredients",
              "type": "string[]"
            },
            {
              "internalType": "uint256[]",
              "name": "quantity",
              "type": "uint256[]"
            },
            {
              "internalType": "string",
              "name": "intendedUse",
              "type": "string"
            },
            {
              "internalType": "string",
              "name": "functionalUse",
              "type": "string"
            },
            {
              "internalType": "string",
              "name": "manufacturingProcess",
              "type": "string"
            },
            {
              "internalType": "string",
              "name": "nutritionalBenefits",
              "type": "string"
            },
            {
              "internalType": "uint256",
              "name": "fatPercentage",
              "type": "uint256"
            },
            {
              "internalType": "uint256",
              "name": "proteinPercentage",
              "type": "uint256"
            },
            {
              "internalType": "uint256",
              "name": "carbohydratePercentage",
              "type": "uint256"
            },
            {
              "internalType": "enum Crusader.ApprovalStatus",
              "name": "foodSafetyOfficerApproval",
              "type": "uint8"
            },
            {
              "internalType": "enum Crusader.ApprovalStatus",
              "name": "foodAnalystApproval",
              "type": "uint8"
            },
            {
              "internalType": "enum Crusader.ApprovalStatus",
              "name": "fscApproval",
              "type": "uint8"
            }
          ],
          "internalType": "struct Crusader.ProductDetails",
          "name": "",
          "type": "tuple"
        }
      ],
      "stateMutability": "nonpayable",
      "type": "function"
    },
    {
      "inputs": [
        {
          "internalType": "bytes32",
          "name": "_txHash",
          "type": "bytes32"
        }
      ],
      "name": "approveProductByFoodAnalyst",
      "outputs": [
        {
          "components": [
            {
              "internalType": "uint256",
              "name": "id",
              "type": "uint256"
            },
            {
              "internalType": "string",
              "name": "name",
              "type": "string"
            },
            {
              "internalType": "string[]",
              "name": "ingredients",
              "type": "string[]"
            },
            {
              "internalType": "uint256[]",
              "name": "quantity",
              "type": "uint256[]"
            },
            {
              "internalType": "string",
              "name": "intendedUse",
              "type": "string"
            },
            {
              "internalType": "string",
              "name": "functionalUse",
              "type": "string"
            },
            {
              "internalType": "string",
              "name": "manufacturingProcess",
              "type": "string"
            },
            {
              "internalType": "string",
              "name": "nutritionalBenefits",
              "type": "string"
            },
            {
              "internalType": "uint256",
              "name": "fatPercentage",
              "type": "uint256"
            },
            {
              "internalType": "uint256",
              "name": "proteinPercentage",
              "type": "uint256"
            },
            {
              "internalType": "uint256",
              "name": "carbohydratePercentage",
              "type": "uint256"
            },
            {
              "internalType": "enum Crusader.ApprovalStatus",
              "name": "foodSafetyOfficerApproval",
              "type": "uint8"
            },
            {
              "internalType": "enum Crusader.ApprovalStatus",
              "name": "foodAnalystApproval",
              "type": "uint8"
            },
            {
              "internalType": "enum Crusader.ApprovalStatus",
              "name": "fscApproval",
              "type": "uint8"
            }
          ],
          "internalType": "struct Crusader.ProductDetails",
          "name": "",
          "type": "tuple"
        }
      ],
      "stateMutability": "nonpayable",
      "type": "function"
    },
    {
      "inputs": [
        {
          "internalType": "bytes32",
          "name": "_txHash",
          "type": "bytes32"
        }
      ],
      "name": "approveProductByFoodSafetyOfficer",
      "outputs": [
        {
          "components": [
            {
              "internalType": "uint256",
              "name": "id",
              "type": "uint256"
            },
            {
              "internalType": "string",
              "name": "name",
              "type": "string"
            },
            {
              "internalType": "string[]",
              "name": "ingredients",
              "type": "string[]"
            },
            {
              "internalType": "uint256[]",
              "name": "quantity",
              "type": "uint256[]"
            },
            {
              "internalType": "string",
              "name": "intendedUse",
              "type": "string"
            },
            {
              "internalType": "string",
              "name": "functionalUse",
              "type": "string"
            },
            {
              "internalType": "string",
              "name": "manufacturingProcess",
              "type": "string"
            },
            {
              "internalType": "string",
              "name": "nutritionalBenefits",
              "type": "string"
            },
            {
              "internalType": "uint256",
              "name": "fatPercentage",
              "type": "uint256"
            },
            {
              "internalType": "uint256",
              "name": "proteinPercentage",
              "type": "uint256"
            },
            {
              "internalType": "uint256",
              "name": "carbohydratePercentage",
              "type": "uint256"
            },
            {
              "internalType": "enum Crusader.ApprovalStatus",
              "name": "foodSafetyOfficerApproval",
              "type": "uint8"
            },
            {
              "internalType": "enum Crusader.ApprovalStatus",
              "name": "foodAnalystApproval",
              "type": "uint8"
            },
            {
              "internalType": "enum Crusader.ApprovalStatus",
              "name": "fscApproval",
              "type": "uint8"
            }
          ],
          "internalType": "struct Crusader.ProductDetails",
          "name": "",
          "type": "tuple"
        }
      ],
      "stateMutability": "nonpayable",
      "type": "function"
    },
    {
      "inputs": [
        {
          "internalType": "uint256",
          "name": "",
          "type": "uint256"
        }
      ],
      "name": "foodAnalystApprovalTimestamps",
      "outputs": [
        {
          "internalType": "uint256",
          "name": "",
          "type": "uint256"
        }
      ],
      "stateMutability": "view",
      "type": "function"
    },
    {
      "inputs": [
        {
          "internalType": "uint256",
          "name": "",
          "type": "uint256"
        }
      ],
      "name": "foodAnalystApprovers",
      "outputs": [
        {
          "internalType": "address",
          "name": "",
          "type": "address"
        }
      ],
      "stateMutability": "view",
      "type": "function"
    },
    {
      "inputs": [
        {
          "internalType": "address",
          "name": "",
          "type": "address"
        },
        {
          "internalType": "uint256",
          "name": "",
          "type": "uint256"
        }
      ],
      "name": "foodProducts",
      "outputs": [
        {
          "internalType": "uint256",
          "name": "id",
          "type": "uint256"
        },
        {
          "internalType": "string",
          "name": "name",
          "type": "string"
        },
        {
          "internalType": "string",
          "name": "intendedUse",
          "type": "string"
        },
        {
          "internalType": "string",
          "name": "functionalUse",
          "type": "string"
        },
        {
          "internalType": "string",
          "name": "manufacturingProcess",
          "type": "string"
        },
        {
          "internalType": "string",
          "name": "nutritionalBenefits",
          "type": "string"
        },
        {
          "internalType": "uint256",
          "name": "fatPercentage",
          "type": "uint256"
        },
        {
          "internalType": "uint256",
          "name": "proteinPercentage",
          "type": "uint256"
        },
        {
          "internalType": "uint256",
          "name": "carbohydratePercentage",
          "type": "uint256"
        },
        {
          "internalType": "enum Crusader.ApprovalStatus",
          "name": "foodSafetyOfficerApproval",
          "type": "uint8"
        },
        {
          "internalType": "enum Crusader.ApprovalStatus",
          "name": "foodAnalystApproval",
          "type": "uint8"
        },
        {
          "internalType": "enum Crusader.ApprovalStatus",
          "name": "fscApproval",
          "type": "uint8"
        }
      ],
      "stateMutability": "view",
      "type": "function"
    },
    {
      "inputs": [
        {
          "internalType": "uint256",
          "name": "",
          "type": "uint256"
        }
      ],
      "name": "foodSafetyComissionerApprovers",
      "outputs": [
        {
          "internalType": "address",
          "name": "",
          "type": "address"
        }
      ],
      "stateMutability": "view",
      "type": "function"
    },
    {
      "inputs": [
        {
          "internalType": "uint256",
          "name": "",
          "type": "uint256"
        }
      ],
      "name": "foodSafetyComissionerTimestamps",
      "outputs": [
        {
          "internalType": "uint256",
          "name": "",
          "type": "uint256"
        }
      ],
      "stateMutability": "view",
      "type": "function"
    },
    {
      "inputs": [
        {
          "internalType": "uint256",
          "name": "",
          "type": "uint256"
        }
      ],
      "name": "foodSafetyOfficerApprovalTimestamps",
      "outputs": [
        {
          "internalType": "uint256",
          "name": "",
          "type": "uint256"
        }
      ],
      "stateMutability": "view",
      "type": "function"
    },
    {
      "inputs": [
        {
          "internalType": "uint256",
          "name": "",
          "type": "uint256"
        }
      ],
      "name": "foodSafetyOfficerApprovers",
      "outputs": [
        {
          "internalType": "address",
          "name": "",
          "type": "address"
        }
      ],
      "stateMutability": "view",
      "type": "function"
    },
    {
      "inputs": [],
      "name": "getAllProducts",
      "outputs": [
        {
          "components": [
            {
              "internalType": "uint256",
              "name": "id",
              "type": "uint256"
            },
            {
              "internalType": "string",
              "name": "name",
              "type": "string"
            },
            {
              "internalType": "string[]",
              "name": "ingredients",
              "type": "string[]"
            },
            {
              "internalType": "uint256[]",
              "name": "quantity",
              "type": "uint256[]"
            },
            {
              "internalType": "string",
              "name": "intendedUse",
              "type": "string"
            },
            {
              "internalType": "string",
              "name": "functionalUse",
              "type": "string"
            },
            {
              "internalType": "string",
              "name": "manufacturingProcess",
              "type": "string"
            },
            {
              "internalType": "string",
              "name": "nutritionalBenefits",
              "type": "string"
            },
            {
              "internalType": "uint256",
              "name": "fatPercentage",
              "type": "uint256"
            },
            {
              "internalType": "uint256",
              "name": "proteinPercentage",
              "type": "uint256"
            },
            {
              "internalType": "uint256",
              "name": "carbohydratePercentage",
              "type": "uint256"
            },
            {
              "internalType": "enum Crusader.ApprovalStatus",
              "name": "foodSafetyOfficerApproval",
              "type": "uint8"
            },
            {
              "internalType": "enum Crusader.ApprovalStatus",
              "name": "foodAnalystApproval",
              "type": "uint8"
            },
            {
              "internalType": "enum Crusader.ApprovalStatus",
              "name": "fscApproval",
              "type": "uint8"
            }
          ],
          "internalType": "struct Crusader.ProductDetails[]",
          "name": "",
          "type": "tuple[]"
        }
      ],
      "stateMutability": "view",
      "type": "function"
    },
    {
      "inputs": [
        {
          "internalType": "uint256",
          "name": "_productId",
          "type": "uint256"
        }
      ],
      "name": "getFoodAnalystApprovalTimestamp",
      "outputs": [
        {
          "internalType": "uint256",
          "name": "",
          "type": "uint256"
        }
      ],
      "stateMutability": "view",
      "type": "function"
    },
    {
      "inputs": [
        {
          "internalType": "uint256",
          "name": "_productId",
          "type": "uint256"
        }
      ],
      "name": "getFoodAnalystApprover",
      "outputs": [
        {
          "internalType": "address",
          "name": "",
          "type": "address"
        }
      ],
      "stateMutability": "view",
      "type": "function"
    },
    {
      "inputs": [
        {
          "internalType": "uint256",
          "name": "_productId",
          "type": "uint256"
        }
      ],
      "name": "getFoodSafetyComissionerApprovalTimestamp",
      "outputs": [
        {
          "internalType": "uint256",
          "name": "",
          "type": "uint256"
        }
      ],
      "stateMutability": "view",
      "type": "function"
    },
    {
      "inputs": [
        {
          "internalType": "uint256",
          "name": "_productId",
          "type": "uint256"
        }
      ],
      "name": "getFoodSafetyComissionerApprover",
      "outputs": [
        {
          "internalType": "address",
          "name": "",
          "type": "address"
        }
      ],
      "stateMutability": "view",
      "type": "function"
    },
    {
      "inputs": [
        {
          "internalType": "uint256",
          "name": "_productId",
          "type": "uint256"
        }
      ],
      "name": "getFoodSafetyOfficerApprovalTimestamp",
      "outputs": [
        {
          "internalType": "uint256",
          "name": "",
          "type": "uint256"
        }
      ],
      "stateMutability": "view",
      "type": "function"
    },
    {
      "inputs": [
        {
          "internalType": "uint256",
          "name": "_productId",
          "type": "uint256"
        }
      ],
      "name": "getFoodSafetyOfficerApprover",
      "outputs": [
        {
          "internalType": "address",
          "name": "",
          "type": "address"
        }
      ],
      "stateMutability": "view",
      "type": "function"
    },
    {
      "inputs": [
        {
          "internalType": "uint256",
          "name": "_id",
          "type": "uint256"
        }
      ],
      "name": "getIdtoTxHash",
      "outputs": [
        {
          "internalType": "bytes32",
          "name": "",
          "type": "bytes32"
        }
      ],
      "stateMutability": "view",
      "type": "function"
    },
    {
      "inputs": [
        {
          "internalType": "uint256",
          "name": "_id",
          "type": "uint256"
        }
      ],
      "name": "getProductById",
      "outputs": [
        {
          "components": [
            {
              "internalType": "uint256",
              "name": "id",
              "type": "uint256"
            },
            {
              "internalType": "string",
              "name": "name",
              "type": "string"
            },
            {
              "internalType": "string[]",
              "name": "ingredients",
              "type": "string[]"
            },
            {
              "internalType": "uint256[]",
              "name": "quantity",
              "type": "uint256[]"
            },
            {
              "internalType": "string",
              "name": "intendedUse",
              "type": "string"
            },
            {
              "internalType": "string",
              "name": "functionalUse",
              "type": "string"
            },
            {
              "internalType": "string",
              "name": "manufacturingProcess",
              "type": "string"
            },
            {
              "internalType": "string",
              "name": "nutritionalBenefits",
              "type": "string"
            },
            {
              "internalType": "uint256",
              "name": "fatPercentage",
              "type": "uint256"
            },
            {
              "internalType": "uint256",
              "name": "proteinPercentage",
              "type": "uint256"
            },
            {
              "internalType": "uint256",
              "name": "carbohydratePercentage",
              "type": "uint256"
            },
            {
              "internalType": "enum Crusader.ApprovalStatus",
              "name": "foodSafetyOfficerApproval",
              "type": "uint8"
            },
            {
              "internalType": "enum Crusader.ApprovalStatus",
              "name": "foodAnalystApproval",
              "type": "uint8"
            },
            {
              "internalType": "enum Crusader.ApprovalStatus",
              "name": "fscApproval",
              "type": "uint8"
            }
          ],
          "internalType": "struct Crusader.ProductDetails",
          "name": "",
          "type": "tuple"
        }
      ],
      "stateMutability": "view",
      "type": "function"
    },
    {
      "inputs": [
        {
          "internalType": "uint256",
          "name": "",
          "type": "uint256"
        }
      ],
      "name": "idToTxHash",
      "outputs": [
        {
          "internalType": "bytes32",
          "name": "",
          "type": "bytes32"
        }
      ],
      "stateMutability": "view",
      "type": "function"
    },
    {
      "inputs": [
        {
          "internalType": "address",
          "name": "",
          "type": "address"
        }
      ],
      "name": "manufacturerAadhar",
      "outputs": [
        {
          "internalType": "string",
          "name": "",
          "type": "string"
        }
      ],
      "stateMutability": "view",
      "type": "function"
    },
    {
      "inputs": [
        {
          "internalType": "address",
          "name": "",
          "type": "address"
        }
      ],
      "name": "manufacturerReports",
      "outputs": [
        {
          "internalType": "string",
          "name": "",
          "type": "string"
        }
      ],
      "stateMutability": "view",
      "type": "function"
    },
    {
      "inputs": [
        {
          "internalType": "address",
          "name": "",
          "type": "address"
        }
      ],
      "name": "manufacturers",
      "outputs": [
        {
          "internalType": "string",
          "name": "username",
          "type": "string"
        },
        {
          "internalType": "string",
          "name": "password",
          "type": "string"
        },
        {
          "internalType": "string",
          "name": "entity",
          "type": "string"
        }
      ],
      "stateMutability": "view",
      "type": "function"
    },
    {
      "inputs": [
        {
          "internalType": "uint256",
          "name": "",
          "type": "uint256"
        }
      ],
      "name": "productsIdMapping",
      "outputs": [
        {
          "internalType": "uint256",
          "name": "id",
          "type": "uint256"
        },
        {
          "internalType": "string",
          "name": "name",
          "type": "string"
        },
        {
          "internalType": "string",
          "name": "intendedUse",
          "type": "string"
        },
        {
          "internalType": "string",
          "name": "functionalUse",
          "type": "string"
        },
        {
          "internalType": "string",
          "name": "manufacturingProcess",
          "type": "string"
        },
        {
          "internalType": "string",
          "name": "nutritionalBenefits",
          "type": "string"
        },
        {
          "internalType": "uint256",
          "name": "fatPercentage",
          "type": "uint256"
        },
        {
          "internalType": "uint256",
          "name": "proteinPercentage",
          "type": "uint256"
        },
        {
          "internalType": "uint256",
          "name": "carbohydratePercentage",
          "type": "uint256"
        },
        {
          "internalType": "enum Crusader.ApprovalStatus",
          "name": "foodSafetyOfficerApproval",
          "type": "uint8"
        },
        {
          "internalType": "enum Crusader.ApprovalStatus",
          "name": "foodAnalystApproval",
          "type": "uint8"
        },
        {
          "internalType": "enum Crusader.ApprovalStatus",
          "name": "fscApproval",
          "type": "uint8"
        }
      ],
      "stateMutability": "view",
      "type": "function"
    },
    {
      "inputs": [
        {
          "internalType": "string",
          "name": "_username",
          "type": "string"
        },
        {
          "internalType": "string",
          "name": "_password",
          "type": "string"
        }
      ],
      "name": "registerAnalyst",
      "outputs": [],
      "stateMutability": "nonpayable",
      "type": "function"
    },
    {
      "inputs": [
        {
          "internalType": "string",
          "name": "_username",
          "type": "string"
        },
        {
          "internalType": "string",
          "name": "_password",
          "type": "string"
        }
      ],
      "name": "registerCommissioner",
      "outputs": [],
      "stateMutability": "nonpayable",
      "type": "function"
    },
    {
      "inputs": [
        {
          "internalType": "string",
          "name": "_username",
          "type": "string"
        },
        {
          "internalType": "string",
          "name": "_password",
          "type": "string"
        }
      ],
      "name": "registerManufacturer",
      "outputs": [],
      "stateMutability": "nonpayable",
      "type": "function"
    },
    {
      "inputs": [
        {
          "internalType": "string",
          "name": "_username",
          "type": "string"
        },
        {
          "internalType": "string",
          "name": "_password",
          "type": "string"
        }
      ],
      "name": "registerSafetyOfficer",
      "outputs": [],
      "stateMutability": "nonpayable",
      "type": "function"
    },
    {
      "inputs": [
        {
          "internalType": "address",
          "name": "",
          "type": "address"
        }
      ],
      "name": "safetycommissioners",
      "outputs": [
        {
          "internalType": "string",
          "name": "username",
          "type": "string"
        },
        {
          "internalType": "string",
          "name": "password",
          "type": "string"
        },
        {
          "internalType": "string",
          "name": "entity",
          "type": "string"
        }
      ],
      "stateMutability": "view",
      "type": "function"
    },
    {
      "inputs": [
        {
          "internalType": "address",
          "name": "",
          "type": "address"
        }
      ],
      "name": "safetyofficers",
      "outputs": [
        {
          "internalType": "string",
          "name": "username",
          "type": "string"
        },
        {
          "internalType": "string",
          "name": "password",
          "type": "string"
        },
        {
          "internalType": "string",
          "name": "entity",
          "type": "string"
        }
      ],
      "stateMutability": "view",
      "type": "function"
    },
    {
      "inputs": [
        {
          "internalType": "string",
          "name": "_url",
          "type": "string"
        }
      ],
      "name": "setManufacturerAadhar",
      "outputs": [],
      "stateMutability": "nonpayable",
      "type": "function"
    },
    {
      "inputs": [
        {
          "internalType": "string",
          "name": "_url",
          "type": "string"
        }
      ],
      "name": "setManufacturerReport",
      "outputs": [],
      "stateMutability": "nonpayable",
      "type": "function"
    },
    {
      "inputs": [
        {
          "internalType": "bytes32",
          "name": "",
          "type": "bytes32"
        }
      ],
      "name": "txHashToProductId",
      "outputs": [
        {
          "internalType": "uint256",
          "name": "",
          "type": "uint256"
        }
      ],
      "stateMutability": "view",
      "type": "function"
    }
  ],
  "bytecode": "0x608060405234801561001057600080fd5b50615e7680620000216000396000f3fe608060405234801561001057600080fd5b50600436106102115760003560e01c8063600f223d11610125578063b78deb43116100ad578063c72c69211161007c578063c72c692114610734578063ca4fc08e14610764578063dc9784e714610794578063ec728483146107c4578063fa720d86146107f457610211565b8063b78deb4314610688578063c277a550146106b8578063c50b726f146106d4578063c5c8f89f1461070457610211565b80639697384a116100f45780639697384a146105be57806397970b2f146105ee578063992c08611461061e5780639d14649e14610650578063b20d4c511461066c57610211565b8063600f223d146104f15780636970c35b1461052c5780636b5eb09c1461055c57806379bb290b1461058e57610211565b8063246681e6116101a857806330b15caa1161017757806330b15caa146104295780633de14ef9146104455780633f70c2b41461047557806341ad5c68146104a55780634de9c2db146104c157610211565b8063246681e61461036757806327aa2a43146103995780632d236ec3146103c95780632ddd3813146103f957610211565b80631029a604116101e45780631029a604146102cf57806319e75151146102ff5780631e608f461461031b5780632427a6d61461033757610211565b80630254ce2c1461021657806302ee3a521461024657806305300de2146102645780630e9e7ad31461029f575b600080fd5b610230600480360381019061022b9190614668565b610826565b60405161023d91906146d6565b60405180910390f35b61024e610859565b60405161025b9190614b92565b60405180910390f35b61027e60048036038101906102799190614668565b610dda565b6040516102969c9b9a99989796959493929190614c1c565b60405180910390f35b6102b960048036038101906102b49190614668565b611109565b6040516102c69190614cf9565b60405180910390f35b6102e960048036038101906102e49190614d4a565b611126565b6040516102f69190614ecf565b60405180910390f35b61031960048036038101906103149190615026565b611830565b005b61033560048036038101906103309190615026565b61198a565b005b610351600480360381019061034c91906150ca565b611ae4565b60405161035e91906150f7565b60405180910390f35b610381600480360381019061037c91906150ca565b611b84565b60405161039093929190615119565b60405180910390f35b6103b360048036038101906103ae9190614d4a565b611d46565b6040516103c09190614ecf565b60405180910390f35b6103e360048036038101906103de9190614668565b612450565b6040516103f091906146d6565b60405180910390f35b610413600480360381019061040e9190614668565b612483565b60405161042091906146d6565b60405180910390f35b610443600480360381019061043e9190615026565b6124c0565b005b61045f600480360381019061045a9190614668565b612619565b60405161046c9190614cf9565b60405180910390f35b61048f600480360381019061048a9190614668565b612631565b60405161049c9190614ecf565b60405180910390f35b6104bf60048036038101906104ba9190615165565b612b43565b005b6104db60048036038101906104d691906150ca565b612c23565b6040516104e891906150f7565b60405180910390f35b61050b600480360381019061050691906151ae565b612cc3565b6040516105239c9b9a99989796959493929190614c1c565b60405180910390f35b61054660048036038101906105419190614668565b61300f565b60405161055391906146d6565b60405180910390f35b610576600480360381019061057191906150ca565b613042565b60405161058593929190615119565b60405180910390f35b6105a860048036038101906105a39190614668565b613204565b6040516105b59190614cf9565b60405180910390f35b6105d860048036038101906105d39190614668565b613221565b6040516105e591906146d6565b60405180910390f35b61060860048036038101906106039190614d4a565b61325e565b6040516106159190614cf9565b60405180910390f35b610638600480360381019061063391906150ca565b613276565b60405161064793929190615119565b60405180910390f35b61066a60048036038101906106659190615165565b613438565b005b61068660048036038101906106819190615026565b613518565b005b6106a2600480360381019061069d9190614d4a565b613672565b6040516106af9190614ecf565b60405180910390f35b6106d260048036038101906106cd9190615397565b613d7c565b005b6106ee60048036038101906106e99190614668565b6141d1565b6040516106fb919061555e565b60405180910390f35b61071e60048036038101906107199190614668565b6141ee565b60405161072b9190614cf9565b60405180910390f35b61074e60048036038101906107499190614668565b61420b565b60405161075b919061555e565b60405180910390f35b61077e60048036038101906107799190614668565b614223565b60405161078b9190614cf9565b60405180910390f35b6107ae60048036038101906107a99190614668565b61423b565b6040516107bb91906146d6565b60405180910390f35b6107de60048036038101906107d99190614668565b614278565b6040516107eb9190614cf9565b60405180910390f35b61080e600480360381019061080991906150ca565b614290565b60405161081d93929190615119565b60405180910390f35b60096020528060005260406000206000915054906101000a900473ffffffffffffffffffffffffffffffffffffffff1681565b6060600d60003373ffffffffffffffffffffffffffffffffffffffff1673ffffffffffffffffffffffffffffffffffffffff168152602001908152602001600020805480602002602001604051908101604052809291908181526020016000905b82821015610dd157838290600052602060002090600c0201604051806101c0016040529081600082015481526020016001820180546108f8906155a8565b80601f0160208091040260200160405190810160405280929190818152602001828054610924906155a8565b80156109715780601f1061094657610100808354040283529160200191610971565b820191906000526020600020905b81548152906001019060200180831161095457829003601f168201915b5050505050815260200160028201805480602002602001604051908101604052809291908181526020016000905b82821015610a4b5783829060005260206000200180546109be906155a8565b80601f01602080910402602001604051908101604052809291908181526020018280546109ea906155a8565b8015610a375780601f10610a0c57610100808354040283529160200191610a37565b820191906000526020600020905b815481529060010190602001808311610a1a57829003601f168201915b50505050508152602001906001019061099f565b50505050815260200160038201805480602002602001604051908101604052809291908181526020018280548015610aa257602002820191906000526020600020905b815481526020019060010190808311610a8e575b50505050508152602001600482018054610abb906155a8565b80601f0160208091040260200160405190810160405280929190818152602001828054610ae7906155a8565b8015610b345780601f10610b0957610100808354040283529160200191610b34565b820191906000526020600020905b815481529060010190602001808311610b1757829003601f168201915b50505050508152602001600582018054610b4d906155a8565b80601f0160208091040260200160405190810160405280929190818152602001828054610b79906155a8565b8015610bc65780601f10610b9b57610100808354040283529160200191610bc6565b820191906000526020600020905b815481529060010190602001808311610ba957829003601f168201915b50505050508152602001600682018054610bdf906155a8565b80601f0160208091040260200160405190810160405280929190818152602001828054610c0b906155a8565b8015610c585780601f10610c2d57610100808354040283529160200191610c58565b820191906000526020600020905b815481529060010190602001808311610c3b57829003601f168201915b50505050508152602001600782018054610c71906155a8565b80601f0160208091040260200160405190810160405280929190818152602001828054610c9d906155a8565b8015610cea5780601f10610cbf57610100808354040283529160200191610cea565b820191906000526020600020905b815481529060010190602001808311610ccd57829003601f168201915b505050505081526020016008820154815260200160098201548152602001600a8201548152602001600b820160009054906101000a900460ff166002811115610d3657610d3561492d565b5b6002811115610d4857610d4761492d565b5b8152602001600b820160019054906101000a900460ff166002811115610d7157610d7061492d565b5b6002811115610d8357610d8261492d565b5b8152602001600b820160029054906101000a900460ff166002811115610dac57610dab61492d565b5b6002811115610dbe57610dbd61492d565b5b81525050815260200190600101906108ba565b50505050905090565b600e602052806000526040600020600091509050806000015490806001018054610e03906155a8565b80601f0160208091040260200160405190810160405280929190818152602001828054610e2f906155a8565b8015610e7c5780601f10610e5157610100808354040283529160200191610e7c565b820191906000526020600020905b815481529060010190602001808311610e5f57829003601f168201915b505050505090806004018054610e91906155a8565b80601f0160208091040260200160405190810160405280929190818152602001828054610ebd906155a8565b8015610f0a5780601f10610edf57610100808354040283529160200191610f0a565b820191906000526020600020905b815481529060010190602001808311610eed57829003601f168201915b505050505090806005018054610f1f906155a8565b80601f0160208091040260200160405190810160405280929190818152602001828054610f4b906155a8565b8015610f985780601f10610f6d57610100808354040283529160200191610f98565b820191906000526020600020905b815481529060010190602001808311610f7b57829003601f168201915b505050505090806006018054610fad906155a8565b80601f0160208091040260200160405190810160405280929190818152602001828054610fd9906155a8565b80156110265780601f10610ffb57610100808354040283529160200191611026565b820191906000526020600020905b81548152906001019060200180831161100957829003601f168201915b50505050509080600701805461103b906155a8565b80601f0160208091040260200160405190810160405280929190818152602001828054611067906155a8565b80156110b45780601f10611089576101008083540402835291602001916110b4565b820191906000526020600020905b81548152906001019060200180831161109757829003601f168201915b50505050509080600801549080600901549080600a01549080600b0160009054906101000a900460ff169080600b0160019054906101000a900460ff169080600b0160029054906101000a900460ff1690508c565b600060086000838152602001908152602001600020549050919050565b61112e614452565b6000601060008481526020019081526020016000205490506000600e6000838152602001908152602001600020905060405160200161116c90615630565b60405160208183030381529060405280519060200120600460003373ffffffffffffffffffffffffffffffffffffffff1673ffffffffffffffffffffffffffffffffffffffff1681526020019081526020016000206040516020016111d191906156dd565b6040516020818303038152906040528051906020012014611227576040517f08c379a000000000000000000000000000000000000000000000000000000000815260040161121e90615740565b60405180910390fd5b6000600281111561123b5761123a61492d565b5b81600b0160019054906101000a900460ff16600281111561125f5761125e61492d565b5b1461129f576040517f08c379a0000000000000000000000000000000000000000000000000000000008152600401611296906157d2565b60405180910390fd5b600181600b0160016101000a81548160ff021916908360028111156112c7576112c661492d565b5b0217905550336009600084815260200190815260200160002060006101000a81548173ffffffffffffffffffffffffffffffffffffffff021916908373ffffffffffffffffffffffffffffffffffffffff16021790555042600a60008481526020019081526020016000208190555080604051806101c00160405290816000820154815260200160018201805461135d906155a8565b80601f0160208091040260200160405190810160405280929190818152602001828054611389906155a8565b80156113d65780601f106113ab576101008083540402835291602001916113d6565b820191906000526020600020905b8154815290600101906020018083116113b957829003601f168201915b5050505050815260200160028201805480602002602001604051908101604052809291908181526020016000905b828210156114b0578382906000526020600020018054611423906155a8565b80601f016020809104026020016040519081016040528092919081815260200182805461144f906155a8565b801561149c5780601f106114715761010080835404028352916020019161149c565b820191906000526020600020905b81548152906001019060200180831161147f57829003601f168201915b505050505081526020019060010190611404565b5050505081526020016003820180548060200260200160405190810160405280929190818152602001828054801561150757602002820191906000526020600020905b8154815260200190600101908083116114f3575b50505050508152602001600482018054611520906155a8565b80601f016020809104026020016040519081016040528092919081815260200182805461154c906155a8565b80156115995780601f1061156e57610100808354040283529160200191611599565b820191906000526020600020905b81548152906001019060200180831161157c57829003601f168201915b505050505081526020016005820180546115b2906155a8565b80601f01602080910402602001604051908101604052809291908181526020018280546115de906155a8565b801561162b5780601f106116005761010080835404028352916020019161162b565b820191906000526020600020905b81548152906001019060200180831161160e57829003601f168201915b50505050508152602001600682018054611644906155a8565b80601f0160208091040260200160405190810160405280929190818152602001828054611670906155a8565b80156116bd5780601f10611692576101008083540402835291602001916116bd565b820191906000526020600020905b8154815290600101906020018083116116a057829003601f168201915b505050505081526020016007820180546116d6906155a8565b80601f0160208091040260200160405190810160405280929190818152602001828054611702906155a8565b801561174f5780601f106117245761010080835404028352916020019161174f565b820191906000526020600020905b81548152906001019060200180831161173257829003601f168201915b505050505081526020016008820154815260200160098201548152602001600a8201548152602001600b820160009054906101000a900460ff16600281111561179b5761179a61492d565b5b60028111156117ad576117ac61492d565b5b8152602001600b820160019054906101000a900460ff1660028111156117d6576117d561492d565b5b60028111156117e8576117e761492d565b5b8152602001600b820160029054906101000a900460ff1660028111156118115761181061492d565b5b60028111156118235761182261492d565b5b8152505092505050919050565b60405180606001604052808381526020018281526020016040518060400160405280600781526020017f616e616c79737400000000000000000000000000000000000000000000000000815250815250600260003373ffffffffffffffffffffffffffffffffffffffff1673ffffffffffffffffffffffffffffffffffffffff16815260200190815260200160002060008201518160000190816118d49190615989565b5060208201518160010190816118ea9190615989565b5060408201518160020190816119009190615989565b509050506040518060400160405280600781526020017f616e616c79737400000000000000000000000000000000000000000000000000815250600460003373ffffffffffffffffffffffffffffffffffffffff1673ffffffffffffffffffffffffffffffffffffffff16815260200190815260200160002090816119859190615989565b505050565b60405180606001604052808381526020018281526020016040518060400160405280600d81526020017f7361666574796f66666963657200000000000000000000000000000000000000815250815250600160003373ffffffffffffffffffffffffffffffffffffffff1673ffffffffffffffffffffffffffffffffffffffff1681526020019081526020016000206000820151816000019081611a2e9190615989565b506020820151816001019081611a449190615989565b506040820151816002019081611a5a9190615989565b509050506040518060400160405280600d81526020017f7361666574796f66666963657200000000000000000000000000000000000000815250600460003373ffffffffffffffffffffffffffffffffffffffff1673ffffffffffffffffffffffffffffffffffffffff1681526020019081526020016000209081611adf9190615989565b505050565b60056020528060005260406000206000915090508054611b03906155a8565b80601f0160208091040260200160405190810160405280929190818152602001828054611b2f906155a8565b8015611b7c5780601f10611b5157610100808354040283529160200191611b7c565b820191906000526020600020905b815481529060010190602001808311611b5f57829003601f168201915b505050505081565b6002602052806000526040600020600091509050806000018054611ba7906155a8565b80601f0160208091040260200160405190810160405280929190818152602001828054611bd3906155a8565b8015611c205780601f10611bf557610100808354040283529160200191611c20565b820191906000526020600020905b815481529060010190602001808311611c0357829003601f168201915b505050505090806001018054611c35906155a8565b80601f0160208091040260200160405190810160405280929190818152602001828054611c61906155a8565b8015611cae5780601f10611c8357610100808354040283529160200191611cae565b820191906000526020600020905b815481529060010190602001808311611c9157829003601f168201915b505050505090806002018054611cc3906155a8565b80601f0160208091040260200160405190810160405280929190818152602001828054611cef906155a8565b8015611d3c5780601f10611d1157610100808354040283529160200191611d3c565b820191906000526020600020905b815481529060010190602001808311611d1f57829003601f168201915b5050505050905083565b611d4e614452565b6000601060008481526020019081526020016000205490506000600e60008381526020019081526020016000209050604051602001611d8c90615aa7565b60405160208183030381529060405280519060200120600460003373ffffffffffffffffffffffffffffffffffffffff1673ffffffffffffffffffffffffffffffffffffffff168152602001908152602001600020604051602001611df191906156dd565b6040516020818303038152906040528051906020012014611e47576040517f08c379a0000000000000000000000000000000000000000000000000000000008152600401611e3e90615b2e565b60405180910390fd5b60006002811115611e5b57611e5a61492d565b5b81600b0160009054906101000a900460ff166002811115611e7f57611e7e61492d565b5b14611ebf576040517f08c379a0000000000000000000000000000000000000000000000000000000008152600401611eb690615bc0565b60405180910390fd5b600181600b0160006101000a81548160ff02191690836002811115611ee757611ee661492d565b5b0217905550336007600084815260200190815260200160002060006101000a81548173ffffffffffffffffffffffffffffffffffffffff021916908373ffffffffffffffffffffffffffffffffffffffff16021790555042600860008481526020019081526020016000208190555080604051806101c001604052908160008201548152602001600182018054611f7d906155a8565b80601f0160208091040260200160405190810160405280929190818152602001828054611fa9906155a8565b8015611ff65780601f10611fcb57610100808354040283529160200191611ff6565b820191906000526020600020905b815481529060010190602001808311611fd957829003601f168201915b5050505050815260200160028201805480602002602001604051908101604052809291908181526020016000905b828210156120d0578382906000526020600020018054612043906155a8565b80601f016020809104026020016040519081016040528092919081815260200182805461206f906155a8565b80156120bc5780601f10612091576101008083540402835291602001916120bc565b820191906000526020600020905b81548152906001019060200180831161209f57829003601f168201915b505050505081526020019060010190612024565b5050505081526020016003820180548060200260200160405190810160405280929190818152602001828054801561212757602002820191906000526020600020905b815481526020019060010190808311612113575b50505050508152602001600482018054612140906155a8565b80601f016020809104026020016040519081016040528092919081815260200182805461216c906155a8565b80156121b95780601f1061218e576101008083540402835291602001916121b9565b820191906000526020600020905b81548152906001019060200180831161219c57829003601f168201915b505050505081526020016005820180546121d2906155a8565b80601f01602080910402602001604051908101604052809291908181526020018280546121fe906155a8565b801561224b5780601f106122205761010080835404028352916020019161224b565b820191906000526020600020905b81548152906001019060200180831161222e57829003601f168201915b50505050508152602001600682018054612264906155a8565b80601f0160208091040260200160405190810160405280929190818152602001828054612290906155a8565b80156122dd5780601f106122b2576101008083540402835291602001916122dd565b820191906000526020600020905b8154815290600101906020018083116122c057829003601f168201915b505050505081526020016007820180546122f6906155a8565b80601f0160208091040260200160405190810160405280929190818152602001828054612322906155a8565b801561236f5780601f106123445761010080835404028352916020019161236f565b820191906000526020600020905b81548152906001019060200180831161235257829003601f168201915b505050505081526020016008820154815260200160098201548152602001600a8201548152602001600b820160009054906101000a900460ff1660028111156123bb576123ba61492d565b5b60028111156123cd576123cc61492d565b5b8152602001600b820160019054906101000a900460ff1660028111156123f6576123f561492d565b5b60028111156124085761240761492d565b5b8152602001600b820160029054906101000a900460ff1660028111156124315761243061492d565b5b60028111156124435761244261492d565b5b8152505092505050919050565b600b6020528060005260406000206000915054906101000a900473ffffffffffffffffffffffffffffffffffffffff1681565b6000600b600083815260200190815260200160002060009054906101000a900473ffffffffffffffffffffffffffffffffffffffff169050919050565b60405180606001604052808381526020018281526020016040518060400160405280600c81526020017f6d616e75666163747572657200000000000000000000000000000000000000008152508152506000803373ffffffffffffffffffffffffffffffffffffffff1673ffffffffffffffffffffffffffffffffffffffff16815260200190815260200160002060008201518160000190816125639190615989565b5060208201518160010190816125799190615989565b50604082015181600201908161258f9190615989565b509050506040518060400160405280600c81526020017f6d616e7566616374757265720000000000000000000000000000000000000000815250600460003373ffffffffffffffffffffffffffffffffffffffff1673ffffffffffffffffffffffffffffffffffffffff16815260200190815260200160002090816126149190615989565b505050565b600a6020528060005260406000206000915090505481565b612639614452565b600e6000838152602001908152602001600020604051806101c001604052908160008201548152602001600182018054612672906155a8565b80601f016020809104026020016040519081016040528092919081815260200182805461269e906155a8565b80156126eb5780601f106126c0576101008083540402835291602001916126eb565b820191906000526020600020905b8154815290600101906020018083116126ce57829003601f168201915b5050505050815260200160028201805480602002602001604051908101604052809291908181526020016000905b828210156127c5578382906000526020600020018054612738906155a8565b80601f0160208091040260200160405190810160405280929190818152602001828054612764906155a8565b80156127b15780601f10612786576101008083540402835291602001916127b1565b820191906000526020600020905b81548152906001019060200180831161279457829003601f168201915b505050505081526020019060010190612719565b5050505081526020016003820180548060200260200160405190810160405280929190818152602001828054801561281c57602002820191906000526020600020905b815481526020019060010190808311612808575b50505050508152602001600482018054612835906155a8565b80601f0160208091040260200160405190810160405280929190818152602001828054612861906155a8565b80156128ae5780601f10612883576101008083540402835291602001916128ae565b820191906000526020600020905b81548152906001019060200180831161289157829003601f168201915b505050505081526020016005820180546128c7906155a8565b80601f01602080910402602001604051908101604052809291908181526020018280546128f3906155a8565b80156129405780601f1061291557610100808354040283529160200191612940565b820191906000526020600020905b81548152906001019060200180831161292357829003601f168201915b50505050508152602001600682018054612959906155a8565b80601f0160208091040260200160405190810160405280929190818152602001828054612985906155a8565b80156129d25780601f106129a7576101008083540402835291602001916129d2565b820191906000526020600020905b8154815290600101906020018083116129b557829003601f168201915b505050505081526020016007820180546129eb906155a8565b80601f0160208091040260200160405190810160405280929190818152602001828054612a17906155a8565b8015612a645780601f10612a3957610100808354040283529160200191612a64565b820191906000526020600020905b815481529060010190602001808311612a4757829003601f168201915b505050505081526020016008820154815260200160098201548152602001600a8201548152602001600b820160009054906101000a900460ff166002811115612ab057612aaf61492d565b5b6002811115612ac257612ac161492d565b5b8152602001600b820160019054906101000a900460ff166002811115612aeb57612aea61492d565b5b6002811115612afd57612afc61492d565b5b8152602001600b820160029054906101000a900460ff166002811115612b2657612b2561492d565b5b6002811115612b3857612b3761492d565b5b815250509050919050565b60008060003373ffffffffffffffffffffffffffffffffffffffff1673ffffffffffffffffffffffffffffffffffffffff1681526020019081526020016000206000018054612b91906155a8565b905011612bd3576040517f08c379a0000000000000000000000000000000000000000000000000000000008152600401612bca90615c2c565b60405180910390fd5b80600660003373ffffffffffffffffffffffffffffffffffffffff1673ffffffffffffffffffffffffffffffffffffffff1681526020019081526020016000209081612c1f9190615989565b5050565b60066020528060005260406000206000915090508054612c42906155a8565b80601f0160208091040260200160405190810160405280929190818152602001828054612c6e906155a8565b8015612cbb5780601f10612c9057610100808354040283529160200191612cbb565b820191906000526020600020905b815481529060010190602001808311612c9e57829003601f168201915b505050505081565b600d6020528160005260406000208181548110612cdf57600080fd5b90600052602060002090600c020160009150915050806000015490806001018054612d09906155a8565b80601f0160208091040260200160405190810160405280929190818152602001828054612d35906155a8565b8015612d825780601f10612d5757610100808354040283529160200191612d82565b820191906000526020600020905b815481529060010190602001808311612d6557829003601f168201915b505050505090806004018054612d97906155a8565b80601f0160208091040260200160405190810160405280929190818152602001828054612dc3906155a8565b8015612e105780601f10612de557610100808354040283529160200191612e10565b820191906000526020600020905b815481529060010190602001808311612df357829003601f168201915b505050505090806005018054612e25906155a8565b80601f0160208091040260200160405190810160405280929190818152602001828054612e51906155a8565b8015612e9e5780601f10612e7357610100808354040283529160200191612e9e565b820191906000526020600020905b815481529060010190602001808311612e8157829003601f168201915b505050505090806006018054612eb3906155a8565b80601f0160208091040260200160405190810160405280929190818152602001828054612edf906155a8565b8015612f2c5780601f10612f0157610100808354040283529160200191612f2c565b820191906000526020600020905b815481529060010190602001808311612f0f57829003601f168201915b505050505090806007018054612f41906155a8565b80601f0160208091040260200160405190810160405280929190818152602001828054612f6d906155a8565b8015612fba5780601f10612f8f57610100808354040283529160200191612fba565b820191906000526020600020905b815481529060010190602001808311612f9d57829003601f168201915b50505050509080600801549080600901549080600a01549080600b0160009054906101000a900460ff169080600b0160019054906101000a900460ff169080600b0160029054906101000a900460ff1690508c565b60076020528060005260406000206000915054906101000a900473ffffffffffffffffffffffffffffffffffffffff1681565b6000602052806000526040600020600091509050806000018054613065906155a8565b80601f0160208091040260200160405190810160405280929190818152602001828054613091906155a8565b80156130de5780601f106130b3576101008083540402835291602001916130de565b820191906000526020600020905b8154815290600101906020018083116130c157829003601f168201915b5050505050908060010180546130f3906155a8565b80601f016020809104026020016040519081016040528092919081815260200182805461311f906155a8565b801561316c5780601f106131415761010080835404028352916020019161316c565b820191906000526020600020905b81548152906001019060200180831161314f57829003601f168201915b505050505090806002018054613181906155a8565b80601f01602080910402602001604051908101604052809291908181526020018280546131ad906155a8565b80156131fa5780601f106131cf576101008083540402835291602001916131fa565b820191906000526020600020905b8154815290600101906020018083116131dd57829003601f168201915b5050505050905083565b6000600c6000838152602001908152602001600020549050919050565b60006007600083815260200190815260200160002060009054906101000a900473ffffffffffffffffffffffffffffffffffffffff169050919050565b60106020528060005260406000206000915090505481565b6003602052806000526040600020600091509050806000018054613299906155a8565b80601f01602080910402602001604051908101604052809291908181526020018280546132c5906155a8565b80156133125780601f106132e757610100808354040283529160200191613312565b820191906000526020600020905b8154815290600101906020018083116132f557829003601f168201915b505050505090806001018054613327906155a8565b80601f0160208091040260200160405190810160405280929190818152602001828054613353906155a8565b80156133a05780601f10613375576101008083540402835291602001916133a0565b820191906000526020600020905b81548152906001019060200180831161338357829003601f168201915b5050505050908060020180546133b5906155a8565b80601f01602080910402602001604051908101604052809291908181526020018280546133e1906155a8565b801561342e5780601f106134035761010080835404028352916020019161342e565b820191906000526020600020905b81548152906001019060200180831161341157829003601f168201915b5050505050905083565b60008060003373ffffffffffffffffffffffffffffffffffffffff1673ffffffffffffffffffffffffffffffffffffffff1681526020019081526020016000206000018054613486906155a8565b9050116134c8576040517f08c379a00000000000000000000000000000000000000000000000000000000081526004016134bf90615c2c565b60405180910390fd5b80600560003373ffffffffffffffffffffffffffffffffffffffff1673ffffffffffffffffffffffffffffffffffffffff16815260200190815260200160002090816135149190615989565b5050565b60405180606001604052808381526020018281526020016040518060400160405280601281526020017f736166657479636f6d6d697373696f6e65720000000000000000000000000000815250815250600360003373ffffffffffffffffffffffffffffffffffffffff1673ffffffffffffffffffffffffffffffffffffffff16815260200190815260200160002060008201518160000190816135bc9190615989565b5060208201518160010190816135d29190615989565b5060408201518160020190816135e89190615989565b509050506040518060400160405280601281526020017f736166657479636f6d6d697373696f6e65720000000000000000000000000000815250600460003373ffffffffffffffffffffffffffffffffffffffff1673ffffffffffffffffffffffffffffffffffffffff168152602001908152602001600020908161366d9190615989565b505050565b61367a614452565b6000601060008481526020019081526020016000205490506000600e600083815260200190815260200160002090506040516020016136b890615c98565b60405160208183030381529060405280519060200120600460003373ffffffffffffffffffffffffffffffffffffffff1673ffffffffffffffffffffffffffffffffffffffff16815260200190815260200160002060405160200161371d91906156dd565b6040516020818303038152906040528051906020012014613773576040517f08c379a000000000000000000000000000000000000000000000000000000000815260040161376a90615cf9565b60405180910390fd5b600060028111156137875761378661492d565b5b81600b0160029054906101000a900460ff1660028111156137ab576137aa61492d565b5b146137eb576040517f08c379a00000000000000000000000000000000000000000000000000000000081526004016137e290615d8b565b60405180910390fd5b600181600b0160026101000a81548160ff021916908360028111156138135761381261492d565b5b021790555033600b600084815260200190815260200160002060006101000a81548173ffffffffffffffffffffffffffffffffffffffff021916908373ffffffffffffffffffffffffffffffffffffffff16021790555042600c60008481526020019081526020016000208190555080604051806101c0016040529081600082015481526020016001820180546138a9906155a8565b80601f01602080910402602001604051908101604052809291908181526020018280546138d5906155a8565b80156139225780601f106138f757610100808354040283529160200191613922565b820191906000526020600020905b81548152906001019060200180831161390557829003601f168201915b5050505050815260200160028201805480602002602001604051908101604052809291908181526020016000905b828210156139fc57838290600052602060002001805461396f906155a8565b80601f016020809104026020016040519081016040528092919081815260200182805461399b906155a8565b80156139e85780601f106139bd576101008083540402835291602001916139e8565b820191906000526020600020905b8154815290600101906020018083116139cb57829003601f168201915b505050505081526020019060010190613950565b50505050815260200160038201805480602002602001604051908101604052809291908181526020018280548015613a5357602002820191906000526020600020905b815481526020019060010190808311613a3f575b50505050508152602001600482018054613a6c906155a8565b80601f0160208091040260200160405190810160405280929190818152602001828054613a98906155a8565b8015613ae55780601f10613aba57610100808354040283529160200191613ae5565b820191906000526020600020905b815481529060010190602001808311613ac857829003601f168201915b50505050508152602001600582018054613afe906155a8565b80601f0160208091040260200160405190810160405280929190818152602001828054613b2a906155a8565b8015613b775780601f10613b4c57610100808354040283529160200191613b77565b820191906000526020600020905b815481529060010190602001808311613b5a57829003601f168201915b50505050508152602001600682018054613b90906155a8565b80601f0160208091040260200160405190810160405280929190818152602001828054613bbc906155a8565b8015613c095780601f10613bde57610100808354040283529160200191613c09565b820191906000526020600020905b815481529060010190602001808311613bec57829003601f168201915b50505050508152602001600782018054613c22906155a8565b80601f0160208091040260200160405190810160405280929190818152602001828054613c4e906155a8565b8015613c9b5780601f10613c7057610100808354040283529160200191613c9b565b820191906000526020600020905b815481529060010190602001808311613c7e57829003601f168201915b505050505081526020016008820154815260200160098201548152602001600a8201548152602001600b820160009054906101000a900460ff166002811115613ce757613ce661492d565b5b6002811115613cf957613cf861492d565b5b8152602001600b820160019054906101000a900460ff166002811115613d2257613d2161492d565b5b6002811115613d3457613d3361492d565b5b8152602001600b820160029054906101000a900460ff166002811115613d5d57613d5c61492d565b5b6002811115613d6f57613d6e61492d565b5b8152505092505050919050565b6000604051806101c001604052808d81526020018c81526020018b81526020018a815260200189815260200188815260200187815260200186815260200185815260200184815260200183815260200160006002811115613de057613ddf61492d565b5b815260200160006002811115613df957613df861492d565b5b815260200160006002811115613e1257613e1161492d565b5b8152509050600d60003373ffffffffffffffffffffffffffffffffffffffff1673ffffffffffffffffffffffffffffffffffffffff1681526020019081526020016000208190806001815401808255809150506001900390600052602060002090600c0201600090919091909150600082015181600001556020820151816001019081613e9f9190615989565b506040820151816002019080519060200190613ebc9291906144f7565b506060820151816003019080519060200190613ed9929190614550565b506080820151816004019081613eef9190615989565b5060a0820151816005019081613f059190615989565b5060c0820151816006019081613f1b9190615989565b5060e0820151816007019081613f319190615989565b506101008201518160080155610120820151816009015561014082015181600a015561016082015181600b0160006101000a81548160ff02191690836002811115613f7f57613f7e61492d565b5b021790555061018082015181600b0160016101000a81548160ff02191690836002811115613fb057613faf61492d565b5b02179055506101a082015181600b0160026101000a81548160ff02191690836002811115613fe157613fe061492d565b5b0217905550505080600e60008e815260200190815260200160002060008201518160000155602082015181600101908161401b9190615989565b5060408201518160020190805190602001906140389291906144f7565b506060820151816003019080519060200190614055929190614550565b50608082015181600401908161406b9190615989565b5060a08201518160050190816140819190615989565b5060c08201518160060190816140979190615989565b5060e08201518160070190816140ad9190615989565b506101008201518160080155610120820151816009015561014082015181600a015561016082015181600b0160006101000a81548160ff021916908360028111156140fb576140fa61492d565b5b021790555061018082015181600b0160016101000a81548160ff0219169083600281111561412c5761412b61492d565b5b02179055506101a082015181600b0160026101000a81548160ff0219169083600281111561415d5761415c61492d565b5b02179055509050506000338d60405160200161417a929190615e14565b60405160208183030381529060405280519060200120905080600f60008f8152602001908152602001600020819055508c601060008381526020019081526020016000208190555050505050505050505050505050565b6000600f6000838152602001908152602001600020549050919050565b6000600a6000838152602001908152602001600020549050919050565b600f6020528060005260406000206000915090505481565b60086020528060005260406000206000915090505481565b60006009600083815260200190815260200160002060009054906101000a900473ffffffffffffffffffffffffffffffffffffffff169050919050565b600c6020528060005260406000206000915090505481565b60016020528060005260406000206000915090508060000180546142b3906155a8565b80601f01602080910402602001604051908101604052809291908181526020018280546142df906155a8565b801561432c5780601f106143015761010080835404028352916020019161432c565b820191906000526020600020905b81548152906001019060200180831161430f57829003601f168201915b505050505090806001018054614341906155a8565b80601f016020809104026020016040519081016040528092919081815260200182805461436d906155a8565b80156143ba5780601f1061438f576101008083540402835291602001916143ba565b820191906000526020600020905b81548152906001019060200180831161439d57829003601f168201915b5050505050908060020180546143cf906155a8565b80601f01602080910402602001604051908101604052809291908181526020018280546143fb906155a8565b80156144485780601f1061441d57610100808354040283529160200191614448565b820191906000526020600020905b81548152906001019060200180831161442b57829003601f168201915b5050505050905083565b604051806101c001604052806000815260200160608152602001606081526020016060815260200160608152602001606081526020016060815260200160608152602001600081526020016000815260200160008152602001600060028111156144bf576144be61492d565b5b8152602001600060028111156144d8576144d761492d565b5b8152602001600060028111156144f1576144f061492d565b5b81525090565b82805482825590600052602060002090810192821561453f579160200282015b8281111561453e57825182908161452e9190615989565b5091602001919060010190614517565b5b50905061454c919061459d565b5090565b82805482825590600052602060002090810192821561458c579160200282015b8281111561458b578251825591602001919060010190614570565b5b50905061459991906145c1565b5090565b5b808211156145bd57600081816145b491906145de565b5060010161459e565b5090565b5b808211156145da5760008160009055506001016145c2565b5090565b5080546145ea906155a8565b6000825580601f106145fc575061461b565b601f01602090049060005260206000209081019061461a91906145c1565b5b50565b6000604051905090565b600080fd5b600080fd5b6000819050919050565b61464581614632565b811461465057600080fd5b50565b6000813590506146628161463c565b92915050565b60006020828403121561467e5761467d614628565b5b600061468c84828501614653565b91505092915050565b600073ffffffffffffffffffffffffffffffffffffffff82169050919050565b60006146c082614695565b9050919050565b6146d0816146b5565b82525050565b60006020820190506146eb60008301846146c7565b92915050565b600081519050919050565b600082825260208201905092915050565b6000819050602082019050919050565b61472681614632565b82525050565b600081519050919050565b600082825260208201905092915050565b60005b8381101561476657808201518184015260208101905061474b565b60008484015250505050565b6000601f19601f8301169050919050565b600061478e8261472c565b6147988185614737565b93506147a8818560208601614748565b6147b181614772565b840191505092915050565b600081519050919050565b600082825260208201905092915050565b6000819050602082019050919050565b60006147f48383614783565b905092915050565b6000602082019050919050565b6000614814826147bc565b61481e81856147c7565b935083602082028501614830856147d8565b8060005b8581101561486c578484038952815161484d85826147e8565b9450614858836147fc565b925060208a01995050600181019050614834565b50829750879550505050505092915050565b600081519050919050565b600082825260208201905092915050565b6000819050602082019050919050565b60006148b6838361471d565b60208301905092915050565b6000602082019050919050565b60006148da8261487e565b6148e48185614889565b93506148ef8361489a565b8060005b8381101561492057815161490788826148aa565b9750614912836148c2565b9250506001810190506148f3565b5085935050505092915050565b7f4e487b7100000000000000000000000000000000000000000000000000000000600052602160045260246000fd5b6003811061496d5761496c61492d565b5b50565b600081905061497e8261495c565b919050565b600061498e82614970565b9050919050565b61499e81614983565b82525050565b60006101c0830160008301516149bd600086018261471d565b50602083015184820360208601526149d58282614783565b915050604083015184820360408601526149ef8282614809565b91505060608301518482036060860152614a0982826148cf565b91505060808301518482036080860152614a238282614783565b91505060a083015184820360a0860152614a3d8282614783565b91505060c083015184820360c0860152614a578282614783565b91505060e083015184820360e0860152614a718282614783565b915050610100830151614a8861010086018261471d565b50610120830151614a9d61012086018261471d565b50610140830151614ab261014086018261471d565b50610160830151614ac7610160860182614995565b50610180830151614adc610180860182614995565b506101a0830151614af16101a0860182614995565b508091505092915050565b6000614b0883836149a4565b905092915050565b6000602082019050919050565b6000614b28826146f1565b614b3281856146fc565b935083602082028501614b448561470d565b8060005b85811015614b805784840389528151614b618582614afc565b9450614b6c83614b10565b925060208a01995050600181019050614b48565b50829750879550505050505092915050565b60006020820190508181036000830152614bac8184614b1d565b905092915050565b614bbd81614632565b82525050565b600082825260208201905092915050565b6000614bdf8261472c565b614be98185614bc3565b9350614bf9818560208601614748565b614c0281614772565b840191505092915050565b614c1681614983565b82525050565b600061018082019050614c32600083018f614bb4565b8181036020830152614c44818e614bd4565b90508181036040830152614c58818d614bd4565b90508181036060830152614c6c818c614bd4565b90508181036080830152614c80818b614bd4565b905081810360a0830152614c94818a614bd4565b9050614ca360c0830189614bb4565b614cb060e0830188614bb4565b614cbe610100830187614bb4565b614ccc610120830186614c0d565b614cda610140830185614c0d565b614ce8610160830184614c0d565b9d9c50505050505050505050505050565b6000602082019050614d0e6000830184614bb4565b92915050565b6000819050919050565b614d2781614d14565b8114614d3257600080fd5b50565b600081359050614d4481614d1e565b92915050565b600060208284031215614d6057614d5f614628565b5b6000614d6e84828501614d35565b91505092915050565b60006101c083016000830151614d90600086018261471d565b5060208301518482036020860152614da88282614783565b91505060408301518482036040860152614dc28282614809565b91505060608301518482036060860152614ddc82826148cf565b91505060808301518482036080860152614df68282614783565b91505060a083015184820360a0860152614e108282614783565b91505060c083015184820360c0860152614e2a8282614783565b91505060e083015184820360e0860152614e448282614783565b915050610100830151614e5b61010086018261471d565b50610120830151614e7061012086018261471d565b50610140830151614e8561014086018261471d565b50610160830151614e9a610160860182614995565b50610180830151614eaf610180860182614995565b506101a0830151614ec46101a0860182614995565b508091505092915050565b60006020820190508181036000830152614ee98184614d77565b905092915050565b600080fd5b600080fd5b7f4e487b7100000000000000000000000000000000000000000000000000000000600052604160045260246000fd5b614f3382614772565b810181811067ffffffffffffffff82111715614f5257614f51614efb565b5b80604052505050565b6000614f6561461e565b9050614f718282614f2a565b919050565b600067ffffffffffffffff821115614f9157614f90614efb565b5b614f9a82614772565b9050602081019050919050565b82818337600083830152505050565b6000614fc9614fc484614f76565b614f5b565b905082815260208101848484011115614fe557614fe4614ef6565b5b614ff0848285614fa7565b509392505050565b600082601f83011261500d5761500c614ef1565b5b813561501d848260208601614fb6565b91505092915050565b6000806040838503121561503d5761503c614628565b5b600083013567ffffffffffffffff81111561505b5761505a61462d565b5b61506785828601614ff8565b925050602083013567ffffffffffffffff8111156150885761508761462d565b5b61509485828601614ff8565b9150509250929050565b6150a7816146b5565b81146150b257600080fd5b50565b6000813590506150c48161509e565b92915050565b6000602082840312156150e0576150df614628565b5b60006150ee848285016150b5565b91505092915050565b600060208201905081810360008301526151118184614bd4565b905092915050565b600060608201905081810360008301526151338186614bd4565b905081810360208301526151478185614bd4565b9050818103604083015261515b8184614bd4565b9050949350505050565b60006020828403121561517b5761517a614628565b5b600082013567ffffffffffffffff8111156151995761519861462d565b5b6151a584828501614ff8565b91505092915050565b600080604083850312156151c5576151c4614628565b5b60006151d3858286016150b5565b92505060206151e485828601614653565b9150509250929050565b600067ffffffffffffffff82111561520957615208614efb565b5b602082029050602081019050919050565b600080fd5b600061523261522d846151ee565b614f5b565b905080838252602082019050602084028301858111156152555761525461521a565b5b835b8181101561529c57803567ffffffffffffffff81111561527a57615279614ef1565b5b8086016152878982614ff8565b85526020850194505050602081019050615257565b5050509392505050565b600082601f8301126152bb576152ba614ef1565b5b81356152cb84826020860161521f565b91505092915050565b600067ffffffffffffffff8211156152ef576152ee614efb565b5b602082029050602081019050919050565b600061531361530e846152d4565b614f5b565b905080838252602082019050602084028301858111156153365761533561521a565b5b835b8181101561535f578061534b8882614653565b845260208401935050602081019050615338565b5050509392505050565b600082601f83011261537e5761537d614ef1565b5b813561538e848260208601615300565b91505092915050565b60008060008060008060008060008060006101608c8e0312156153bd576153bc614628565b5b60006153cb8e828f01614653565b9b505060208c013567ffffffffffffffff8111156153ec576153eb61462d565b5b6153f88e828f01614ff8565b9a505060408c013567ffffffffffffffff8111156154195761541861462d565b5b6154258e828f016152a6565b99505060608c013567ffffffffffffffff8111156154465761544561462d565b5b6154528e828f01615369565b98505060808c013567ffffffffffffffff8111156154735761547261462d565b5b61547f8e828f01614ff8565b97505060a08c013567ffffffffffffffff8111156154a05761549f61462d565b5b6154ac8e828f01614ff8565b96505060c08c013567ffffffffffffffff8111156154cd576154cc61462d565b5b6154d98e828f01614ff8565b95505060e08c013567ffffffffffffffff8111156154fa576154f961462d565b5b6155068e828f01614ff8565b9450506101006155188e828f01614653565b93505061012061552a8e828f01614653565b92505061014061553c8e828f01614653565b9150509295989b509295989b9093969950565b61555881614d14565b82525050565b6000602082019050615573600083018461554f565b92915050565b7f4e487b7100000000000000000000000000000000000000000000000000000000600052602260045260246000fd5b600060028204905060018216806155c057607f821691505b6020821081036155d3576155d2615579565b5b50919050565b600081905092915050565b7f616e616c79737400000000000000000000000000000000000000000000000000600082015250565b600061561a6007836155d9565b9150615625826155e4565b600782019050919050565b600061563b8261560d565b9150819050919050565b60008190508160005260206000209050919050565b60008154615667816155a8565b61567181866155d9565b9450600182166000811461568c57600181146156a1576156d4565b60ff19831686528115158202860193506156d4565b6156aa85615645565b60005b838110156156cc578154818901526001820191506020810190506156ad565b838801955050505b50505092915050565b60006156e9828461565a565b915081905092915050565b7f4f6e6c7920616e616c7973742063616e20617070726f76650000000000000000600082015250565b600061572a601883614bc3565b9150615735826156f4565b602082019050919050565b600060208201905081810360008301526157598161571d565b9050919050565b7f50726f6475637420616c726561647920617070726f766564206f722072656a6560008201527f6374656420627920666f6f6420616e616c797374000000000000000000000000602082015250565b60006157bc603483614bc3565b91506157c782615760565b604082019050919050565b600060208201905081810360008301526157eb816157af565b9050919050565b60006020601f8301049050919050565b600082821b905092915050565b60006008830261583f7fffffffffffffffffffffffffffffffffffffffffffffffffffffffffffffffff82615802565b6158498683615802565b95508019841693508086168417925050509392505050565b6000819050919050565b600061588661588161587c84614632565b615861565b614632565b9050919050565b6000819050919050565b6158a08361586b565b6158b46158ac8261588d565b84845461580f565b825550505050565b600090565b6158c96158bc565b6158d4818484615897565b505050565b5b818110156158f8576158ed6000826158c1565b6001810190506158da565b5050565b601f82111561593d5761590e81615645565b615917846157f2565b81016020851015615926578190505b61593a615932856157f2565b8301826158d9565b50505b505050565b600082821c905092915050565b600061596060001984600802615942565b1980831691505092915050565b6000615979838361594f565b9150826002028217905092915050565b6159928261472c565b67ffffffffffffffff8111156159ab576159aa614efb565b5b6159b582546155a8565b6159c08282856158fc565b600060209050601f8311600181146159f357600084156159e1578287015190505b6159eb858261596d565b865550615a53565b601f198416615a0186615645565b60005b82811015615a2957848901518255600182019150602085019450602081019050615a04565b86831015615a465784890151615a42601f89168261594f565b8355505b6001600288020188555050505b505050505050565b7f7361666574796f66666963657200000000000000000000000000000000000000600082015250565b6000615a91600d836155d9565b9150615a9c82615a5b565b600d82019050919050565b6000615ab282615a84565b9150819050919050565b7f4f6e6c7920666f6f6420736166657479206f6666696365722063616e2061707060008201527f726f766500000000000000000000000000000000000000000000000000000000602082015250565b6000615b18602483614bc3565b9150615b2382615abc565b604082019050919050565b60006020820190508181036000830152615b4781615b0b565b9050919050565b7f50726f6475637420616c726561647920617070726f766564206f722072656a6560008201527f6374656420627920666f6f6420736166657479206f6666696365720000000000602082015250565b6000615baa603b83614bc3565b9150615bb582615b4e565b604082019050919050565b60006020820190508181036000830152615bd981615b9d565b9050919050565b7f4e6f7420612072656769737465726564206d616e756661637475726572000000600082015250565b6000615c16601d83614bc3565b9150615c2182615be0565b602082019050919050565b60006020820190508181036000830152615c4581615c09565b9050919050565b7f736166657479636f6d6d697373696f6e65720000000000000000000000000000600082015250565b6000615c826012836155d9565b9150615c8d82615c4c565b601282019050919050565b6000615ca382615c75565b9150819050919050565b7f4f6e6c79206d616e756661637475726572732063616e20617070726f76650000600082015250565b6000615ce3601e83614bc3565b9150615cee82615cad565b602082019050919050565b60006020820190508181036000830152615d1281615cd6565b9050919050565b7f50726f6475637420616c726561647920617070726f766564206f722072656a6560008201527f63746564206279206d616e756661637475726572000000000000000000000000602082015250565b6000615d75603483614bc3565b9150615d8082615d19565b604082019050919050565b60006020820190508181036000830152615da481615d68565b9050919050565b60008160601b9050919050565b6000615dc382615dab565b9050919050565b6000615dd582615db8565b9050919050565b615ded615de8826146b5565b615dca565b82525050565b6000819050919050565b615e0e615e0982614632565b615df3565b82525050565b6000615e208285615ddc565b601482019150615e308284615dfd565b602082019150819050939250505056fea26469706673582212206aa937a3ccaab874b59c33a1dd646990f8f12c7b153b628847eae9be1602e2e464736f6c63430008130033",
  "linkReferences": {},
  "deployedLinkReferences": {}
}