{
  "_format": "hh-sol-artifact-1",
  "contractName": "Crusader",
  "sourceName": "contracts/Crusader.sol",
  "abi": [
    {
      "inputs": [
        {
          "internalType": "string",
          "name": "_name",
          "type": "string"
        },
        {
          "internalType": "string[]",
          "name": "_ingredients",
          "type": "string[]"
        },
        {
          "internalType": "uint256[]",
          "name": "_quantity",
          "type": "uint256[]"
        },
        {
          "internalType": "string",
          "name": "_intendedUse",
          "type": "string"
        },
        {
          "internalType": "string",
          "name": "_functionalUse",
          "type": "string"
        },
        {
          "internalType": "string",
          "name": "_manufacturingProcess",
          "type": "string"
        },
        {
          "internalType": "string",
          "name": "_nutritionalBenefits",
          "type": "string"
        },
        {
          "internalType": "uint256",
          "name": "_fatPercentage",
          "type": "uint256"
        },
        {
          "internalType": "uint256",
          "name": "_proteinPercentage",
          "type": "uint256"
        },
        {
          "internalType": "uint256",
          "name": "_carbohydratePercentage",
          "type": "uint256"
        }
      ],
      "name": "addProduct",
      "outputs": [],
      "stateMutability": "nonpayable",
      "type": "function"
    },
    {
      "inputs": [
        {
          "internalType": "address",
          "name": "",
          "type": "address"
        }
      ],
      "name": "analysts",
      "outputs": [
        {
          "internalType": "string",
          "name": "username",
          "type": "string"
        },
        {
          "internalType": "string",
          "name": "password",
          "type": "string"
        },
        {
          "internalType": "string",
          "name": "entity",
          "type": "string"
        }
      ],
      "stateMutability": "view",
      "type": "function"
    },
    {
      "inputs": [
        {
          "internalType": "address",
          "name": "_address",
          "type": "address"
        },
        {
          "internalType": "string",
          "name": "_username",
          "type": "string"
        },
        {
          "internalType": "string",
          "name": "_password",
          "type": "string"
        }
      ],
      "name": "authenticate",
      "outputs": [
        {
          "internalType": "bool",
          "name": "",
          "type": "bool"
        }
      ],
      "stateMutability": "view",
      "type": "function"
    },
    {
      "inputs": [],
      "name": "getContractBalance",
      "outputs": [
        {
          "internalType": "uint256",
          "name": "",
          "type": "uint256"
        }
      ],
      "stateMutability": "view",
      "type": "function"
    },
    {
      "inputs": [
        {
          "internalType": "uint256",
          "name": "_index",
          "type": "uint256"
        }
      ],
      "name": "getProduct",
      "outputs": [
        {
          "components": [
            {
              "internalType": "string",
              "name": "name",
              "type": "string"
            },
            {
              "internalType": "string[]",
              "name": "ingredients",
              "type": "string[]"
            },
            {
              "internalType": "uint256[]",
              "name": "quantity",
              "type": "uint256[]"
            },
            {
              "internalType": "string",
              "name": "intendedUse",
              "type": "string"
            },
            {
              "internalType": "string",
              "name": "functionalUse",
              "type": "string"
            },
            {
              "internalType": "string",
              "name": "manufacturingProcess",
              "type": "string"
            },
            {
              "internalType": "string",
              "name": "nutritionalBenefits",
              "type": "string"
            },
            {
              "internalType": "uint256",
              "name": "fatPercentage",
              "type": "uint256"
            },
            {
              "internalType": "uint256",
              "name": "proteinPercentage",
              "type": "uint256"
            },
            {
              "internalType": "uint256",
              "name": "carbohydratePercentage",
              "type": "uint256"
            }
          ],
          "internalType": "struct Crusader.ProductDetails",
          "name": "",
          "type": "tuple"
        }
      ],
      "stateMutability": "view",
      "type": "function"
    },
    {
      "inputs": [
        {
          "internalType": "address",
          "name": "",
          "type": "address"
        }
      ],
      "name": "manufacturers",
      "outputs": [
        {
          "internalType": "string",
          "name": "username",
          "type": "string"
        },
        {
          "internalType": "string",
          "name": "password",
          "type": "string"
        },
        {
          "internalType": "string",
          "name": "entity",
          "type": "string"
        }
      ],
      "stateMutability": "view",
      "type": "function"
    },
    {
      "inputs": [
        {
          "internalType": "uint256",
          "name": "",
          "type": "uint256"
        }
      ],
      "name": "products",
      "outputs": [
        {
          "internalType": "string",
          "name": "name",
          "type": "string"
        },
        {
          "internalType": "string",
          "name": "intendedUse",
          "type": "string"
        },
        {
          "internalType": "string",
          "name": "functionalUse",
          "type": "string"
        },
        {
          "internalType": "string",
          "name": "manufacturingProcess",
          "type": "string"
        },
        {
          "internalType": "string",
          "name": "nutritionalBenefits",
          "type": "string"
        },
        {
          "internalType": "uint256",
          "name": "fatPercentage",
          "type": "uint256"
        },
        {
          "internalType": "uint256",
          "name": "proteinPercentage",
          "type": "uint256"
        },
        {
          "internalType": "uint256",
          "name": "carbohydratePercentage",
          "type": "uint256"
        }
      ],
      "stateMutability": "view",
      "type": "function"
    },
    {
      "inputs": [
        {
          "internalType": "string",
          "name": "_username",
          "type": "string"
        },
        {
          "internalType": "string",
          "name": "_password",
          "type": "string"
        }
      ],
      "name": "registerAnalyst",
      "outputs": [],
      "stateMutability": "nonpayable",
      "type": "function"
    },
    {
      "inputs": [
        {
          "internalType": "string",
          "name": "_username",
          "type": "string"
        },
        {
          "internalType": "string",
          "name": "_password",
          "type": "string"
        }
      ],
      "name": "registerCommissioner",
      "outputs": [],
      "stateMutability": "nonpayable",
      "type": "function"
    },
    {
      "inputs": [
        {
          "internalType": "string",
          "name": "_username",
          "type": "string"
        },
        {
          "internalType": "string",
          "name": "_password",
          "type": "string"
        }
      ],
      "name": "registerManufacturer",
      "outputs": [],
      "stateMutability": "nonpayable",
      "type": "function"
    },
    {
      "inputs": [
        {
          "internalType": "string",
          "name": "_username",
          "type": "string"
        },
        {
          "internalType": "string",
          "name": "_password",
          "type": "string"
        }
      ],
      "name": "registerSafetyOfficer",
      "outputs": [],
      "stateMutability": "nonpayable",
      "type": "function"
    },
    {
      "inputs": [
        {
          "internalType": "address",
          "name": "",
          "type": "address"
        }
      ],
      "name": "safetycommissioners",
      "outputs": [
        {
          "internalType": "string",
          "name": "username",
          "type": "string"
        },
        {
          "internalType": "string",
          "name": "password",
          "type": "string"
        },
        {
          "internalType": "string",
          "name": "entity",
          "type": "string"
        }
      ],
      "stateMutability": "view",
      "type": "function"
    },
    {
      "inputs": [
        {
          "internalType": "address",
          "name": "",
          "type": "address"
        }
      ],
      "name": "safetyofficers",
      "outputs": [
        {
          "internalType": "string",
          "name": "username",
          "type": "string"
        },
        {
          "internalType": "string",
          "name": "password",
          "type": "string"
        },
        {
          "internalType": "string",
          "name": "entity",
          "type": "string"
        }
      ],
      "stateMutability": "view",
      "type": "function"
    }
  ],
  "bytecode": "0x608060405234801561001057600080fd5b5061346a806100206000396000f3fe608060405234801561001057600080fd5b50600436106100cf5760003560e01c80637acc0b201161008c578063b9db15b411610066578063b9db15b41461022f578063c8f219761461025f578063d2e075681461027b578063fa720d86146102ab576100cf565b80637acc0b20146101aa578063992c0861146101e1578063b20d4c5114610213576100cf565b806319e75151146100d45780631e608f46146100f0578063246681e61461010c57806330b15caa1461013e5780636b5eb09c1461015a5780636f9fb98a1461018c575b600080fd5b6100ee60048036038101906100e99190612557565b6102dd565b005b61010a60048036038101906101059190612557565b6103b5565b005b6101266004803603810190610121919061262d565b61048d565b604051610135939291906126d9565b60405180910390f35b61015860048036038101906101539190612557565b61064f565b005b610174600480360381019061016f919061262d565b610726565b604051610183939291906126d9565b60405180910390f35b6101946108e8565b6040516101a1919061273e565b60405180910390f35b6101c460048036038101906101bf9190612785565b6108f0565b6040516101d89897969594939291906127b2565b60405180910390f35b6101fb60048036038101906101f6919061262d565b610bf0565b60405161020a939291906126d9565b60405180910390f35b61022d60048036038101906102289190612557565b610db2565b005b61024960048036038101906102449190612785565b610e8a565b6040516102569190612b21565b60405180910390f35b61027960048036038101906102749190612cec565b6112f0565b005b61029560048036038101906102909190612e8f565b61143d565b6040516102a29190612f35565b60405180910390f35b6102c560048036038101906102c0919061262d565b6120c1565b6040516102d4939291906126d9565b60405180910390f35b60405180606001604052808381526020018281526020016040518060400160405280600781526020017f616e616c79737400000000000000000000000000000000000000000000000000815250815250600260003373ffffffffffffffffffffffffffffffffffffffff1673ffffffffffffffffffffffffffffffffffffffff1681526020019081526020016000206000820151816000019081610381919061315c565b506020820151816001019081610397919061315c565b5060408201518160020190816103ad919061315c565b509050505050565b60405180606001604052808381526020018281526020016040518060400160405280600d81526020017f7361666574796f66666963657200000000000000000000000000000000000000815250815250600160003373ffffffffffffffffffffffffffffffffffffffff1673ffffffffffffffffffffffffffffffffffffffff1681526020019081526020016000206000820151816000019081610459919061315c565b50602082015181600101908161046f919061315c565b506040820151816002019081610485919061315c565b509050505050565b60026020528060005260406000206000915090508060000180546104b090612f7f565b80601f01602080910402602001604051908101604052809291908181526020018280546104dc90612f7f565b80156105295780601f106104fe57610100808354040283529160200191610529565b820191906000526020600020905b81548152906001019060200180831161050c57829003601f168201915b50505050509080600101805461053e90612f7f565b80601f016020809104026020016040519081016040528092919081815260200182805461056a90612f7f565b80156105b75780601f1061058c576101008083540402835291602001916105b7565b820191906000526020600020905b81548152906001019060200180831161059a57829003601f168201915b5050505050908060020180546105cc90612f7f565b80601f01602080910402602001604051908101604052809291908181526020018280546105f890612f7f565b80156106455780601f1061061a57610100808354040283529160200191610645565b820191906000526020600020905b81548152906001019060200180831161062857829003601f168201915b5050505050905083565b60405180606001604052808381526020018281526020016040518060400160405280600c81526020017f6d616e75666163747572657200000000000000000000000000000000000000008152508152506000803373ffffffffffffffffffffffffffffffffffffffff1673ffffffffffffffffffffffffffffffffffffffff16815260200190815260200160002060008201518160000190816106f2919061315c565b506020820151816001019081610708919061315c565b50604082015181600201908161071e919061315c565b509050505050565b600060205280600052604060002060009150905080600001805461074990612f7f565b80601f016020809104026020016040519081016040528092919081815260200182805461077590612f7f565b80156107c25780601f10610797576101008083540402835291602001916107c2565b820191906000526020600020905b8154815290600101906020018083116107a557829003601f168201915b5050505050908060010180546107d790612f7f565b80601f016020809104026020016040519081016040528092919081815260200182805461080390612f7f565b80156108505780601f1061082557610100808354040283529160200191610850565b820191906000526020600020905b81548152906001019060200180831161083357829003601f168201915b50505050509080600201805461086590612f7f565b80601f016020809104026020016040519081016040528092919081815260200182805461089190612f7f565b80156108de5780601f106108b3576101008083540402835291602001916108de565b820191906000526020600020905b8154815290600101906020018083116108c157829003601f168201915b5050505050905083565b600047905090565b6004818154811061090057600080fd5b90600052602060002090600a020160009150905080600001805461092390612f7f565b80601f016020809104026020016040519081016040528092919081815260200182805461094f90612f7f565b801561099c5780601f106109715761010080835404028352916020019161099c565b820191906000526020600020905b81548152906001019060200180831161097f57829003601f168201915b5050505050908060030180546109b190612f7f565b80601f01602080910402602001604051908101604052809291908181526020018280546109dd90612f7f565b8015610a2a5780601f106109ff57610100808354040283529160200191610a2a565b820191906000526020600020905b815481529060010190602001808311610a0d57829003601f168201915b505050505090806004018054610a3f90612f7f565b80601f0160208091040260200160405190810160405280929190818152602001828054610a6b90612f7f565b8015610ab85780601f10610a8d57610100808354040283529160200191610ab8565b820191906000526020600020905b815481529060010190602001808311610a9b57829003601f168201915b505050505090806005018054610acd90612f7f565b80601f0160208091040260200160405190810160405280929190818152602001828054610af990612f7f565b8015610b465780601f10610b1b57610100808354040283529160200191610b46565b820191906000526020600020905b815481529060010190602001808311610b2957829003601f168201915b505050505090806006018054610b5b90612f7f565b80601f0160208091040260200160405190810160405280929190818152602001828054610b8790612f7f565b8015610bd45780601f10610ba957610100808354040283529160200191610bd4565b820191906000526020600020905b815481529060010190602001808311610bb757829003601f168201915b5050505050908060070154908060080154908060090154905088565b6003602052806000526040600020600091509050806000018054610c1390612f7f565b80601f0160208091040260200160405190810160405280929190818152602001828054610c3f90612f7f565b8015610c8c5780601f10610c6157610100808354040283529160200191610c8c565b820191906000526020600020905b815481529060010190602001808311610c6f57829003601f168201915b505050505090806001018054610ca190612f7f565b80601f0160208091040260200160405190810160405280929190818152602001828054610ccd90612f7f565b8015610d1a5780601f10610cef57610100808354040283529160200191610d1a565b820191906000526020600020905b815481529060010190602001808311610cfd57829003601f168201915b505050505090806002018054610d2f90612f7f565b80601f0160208091040260200160405190810160405280929190818152602001828054610d5b90612f7f565b8015610da85780601f10610d7d57610100808354040283529160200191610da8565b820191906000526020600020905b815481529060010190602001808311610d8b57829003601f168201915b5050505050905083565b60405180606001604052808381526020018281526020016040518060400160405280601281526020017f736166657479636f6d6d697373696f6e65720000000000000000000000000000815250815250600360003373ffffffffffffffffffffffffffffffffffffffff1673ffffffffffffffffffffffffffffffffffffffff1681526020019081526020016000206000820151816000019081610e56919061315c565b506020820151816001019081610e6c919061315c565b506040820151816002019081610e82919061315c565b509050505050565b610e92612283565b60048281548110610ea657610ea561322e565b5b90600052602060002090600a020160405180610140016040529081600082018054610ed090612f7f565b80601f0160208091040260200160405190810160405280929190818152602001828054610efc90612f7f565b8015610f495780601f10610f1e57610100808354040283529160200191610f49565b820191906000526020600020905b815481529060010190602001808311610f2c57829003601f168201915b5050505050815260200160018201805480602002602001604051908101604052809291908181526020016000905b82821015611023578382906000526020600020018054610f9690612f7f565b80601f0160208091040260200160405190810160405280929190818152602001828054610fc290612f7f565b801561100f5780601f10610fe45761010080835404028352916020019161100f565b820191906000526020600020905b815481529060010190602001808311610ff257829003601f168201915b505050505081526020019060010190610f77565b5050505081526020016002820180548060200260200160405190810160405280929190818152602001828054801561107a57602002820191906000526020600020905b815481526020019060010190808311611066575b5050505050815260200160038201805461109390612f7f565b80601f01602080910402602001604051908101604052809291908181526020018280546110bf90612f7f565b801561110c5780601f106110e15761010080835404028352916020019161110c565b820191906000526020600020905b8154815290600101906020018083116110ef57829003601f168201915b5050505050815260200160048201805461112590612f7f565b80601f016020809104026020016040519081016040528092919081815260200182805461115190612f7f565b801561119e5780601f106111735761010080835404028352916020019161119e565b820191906000526020600020905b81548152906001019060200180831161118157829003601f168201915b505050505081526020016005820180546111b790612f7f565b80601f01602080910402602001604051908101604052809291908181526020018280546111e390612f7f565b80156112305780601f1061120557610100808354040283529160200191611230565b820191906000526020600020905b81548152906001019060200180831161121357829003601f168201915b5050505050815260200160068201805461124990612f7f565b80601f016020809104026020016040519081016040528092919081815260200182805461127590612f7f565b80156112c25780601f10611297576101008083540402835291602001916112c2565b820191906000526020600020905b8154815290600101906020018083116112a557829003601f168201915b5050505050815260200160078201548152602001600882015481526020016009820154815250509050919050565b60006040518061014001604052808c81526020018b81526020018a815260200189815260200188815260200187815260200186815260200185815260200184815260200183815250905060048190806001815401808255809150506001900390600052602060002090600a0201600090919091909150600082015181600001908161137b919061315c565b5060208201518160010190805190602001906113989291906122d6565b5060408201518160020190805190602001906113b592919061232f565b5060608201518160030190816113cb919061315c565b5060808201518160040190816113e1919061315c565b5060a08201518160050190816113f7919061315c565b5060c082015181600601908161140d919061315c565b5060e082015181600701556101008201518160080155610120820151816009015550505050505050505050505050565b6000806000808673ffffffffffffffffffffffffffffffffffffffff1673ffffffffffffffffffffffffffffffffffffffff16815260200190815260200160002060405180606001604052908160008201805461149990612f7f565b80601f01602080910402602001604051908101604052809291908181526020018280546114c590612f7f565b80156115125780601f106114e757610100808354040283529160200191611512565b820191906000526020600020905b8154815290600101906020018083116114f557829003601f168201915b5050505050815260200160018201805461152b90612f7f565b80601f016020809104026020016040519081016040528092919081815260200182805461155790612f7f565b80156115a45780601f10611579576101008083540402835291602001916115a4565b820191906000526020600020905b81548152906001019060200180831161158757829003601f168201915b505050505081526020016002820180546115bd90612f7f565b80601f01602080910402602001604051908101604052809291908181526020018280546115e990612f7f565b80156116365780601f1061160b57610100808354040283529160200191611636565b820191906000526020600020905b81548152906001019060200180831161161957829003601f168201915b50505050508152505090506000600360008773ffffffffffffffffffffffffffffffffffffffff1673ffffffffffffffffffffffffffffffffffffffff16815260200190815260200160002060405180606001604052908160008201805461169d90612f7f565b80601f01602080910402602001604051908101604052809291908181526020018280546116c990612f7f565b80156117165780601f106116eb57610100808354040283529160200191611716565b820191906000526020600020905b8154815290600101906020018083116116f957829003601f168201915b5050505050815260200160018201805461172f90612f7f565b80601f016020809104026020016040519081016040528092919081815260200182805461175b90612f7f565b80156117a85780601f1061177d576101008083540402835291602001916117a8565b820191906000526020600020905b81548152906001019060200180831161178b57829003601f168201915b505050505081526020016002820180546117c190612f7f565b80601f01602080910402602001604051908101604052809291908181526020018280546117ed90612f7f565b801561183a5780601f1061180f5761010080835404028352916020019161183a565b820191906000526020600020905b81548152906001019060200180831161181d57829003601f168201915b50505050508152505090506000600160008873ffffffffffffffffffffffffffffffffffffffff1673ffffffffffffffffffffffffffffffffffffffff1681526020019081526020016000206040518060600160405290816000820180546118a190612f7f565b80601f01602080910402602001604051908101604052809291908181526020018280546118cd90612f7f565b801561191a5780601f106118ef5761010080835404028352916020019161191a565b820191906000526020600020905b8154815290600101906020018083116118fd57829003601f168201915b5050505050815260200160018201805461193390612f7f565b80601f016020809104026020016040519081016040528092919081815260200182805461195f90612f7f565b80156119ac5780601f10611981576101008083540402835291602001916119ac565b820191906000526020600020905b81548152906001019060200180831161198f57829003601f168201915b505050505081526020016002820180546119c590612f7f565b80601f01602080910402602001604051908101604052809291908181526020018280546119f190612f7f565b8015611a3e5780601f10611a1357610100808354040283529160200191611a3e565b820191906000526020600020905b815481529060010190602001808311611a2157829003601f168201915b50505050508152505090506000600260008973ffffffffffffffffffffffffffffffffffffffff1673ffffffffffffffffffffffffffffffffffffffff168152602001908152602001600020604051806060016040529081600082018054611aa590612f7f565b80601f0160208091040260200160405190810160405280929190818152602001828054611ad190612f7f565b8015611b1e5780601f10611af357610100808354040283529160200191611b1e565b820191906000526020600020905b815481529060010190602001808311611b0157829003601f168201915b50505050508152602001600182018054611b3790612f7f565b80601f0160208091040260200160405190810160405280929190818152602001828054611b6390612f7f565b8015611bb05780601f10611b8557610100808354040283529160200191611bb0565b820191906000526020600020905b815481529060010190602001808311611b9357829003601f168201915b50505050508152602001600282018054611bc990612f7f565b80601f0160208091040260200160405190810160405280929190818152602001828054611bf590612f7f565b8015611c425780601f10611c1757610100808354040283529160200191611c42565b820191906000526020600020905b815481529060010190602001808311611c2557829003601f168201915b5050505050815250509050604051602001611c5c906132b4565b604051602081830303815290604052805190602001208460400151604051602001611c8791906132fa565b60405160208183030381529060405280519060200120148015611cf9575086604051602001611cb691906132fa565b604051602081830303815290604052805190602001208460000151604051602001611ce191906132fa565b60405160208183030381529060405280519060200120145b8015611d54575085604051602001611d1191906132fa565b604051602081830303815290604052805190602001208460200151604051602001611d3c91906132fa565b60405160208183030381529060405280519060200120145b15611d665760019450505050506120ba565b604051602001611d759061335d565b604051602081830303815290604052805190602001208360400151604051602001611da091906132fa565b60405160208183030381529060405280519060200120148015611e12575086604051602001611dcf91906132fa565b604051602081830303815290604052805190602001208360000151604051602001611dfa91906132fa565b60405160208183030381529060405280519060200120145b8015611e6d575085604051602001611e2a91906132fa565b604051602081830303815290604052805190602001208360200151604051602001611e5591906132fa565b60405160208183030381529060405280519060200120145b15611e7f5760019450505050506120ba565b604051602001611e8e906133be565b604051602081830303815290604052805190602001208160400151604051602001611eb991906132fa565b60405160208183030381529060405280519060200120148015611f2b575086604051602001611ee891906132fa565b604051602081830303815290604052805190602001208160000151604051602001611f1391906132fa565b60405160208183030381529060405280519060200120145b8015611f86575085604051602001611f4391906132fa565b604051602081830303815290604052805190602001208160200151604051602001611f6e91906132fa565b60405160208183030381529060405280519060200120145b15611f985760019450505050506120ba565b604051602001611fa79061341f565b604051602081830303815290604052805190602001208260400151604051602001611fd291906132fa565b6040516020818303038152906040528051906020012014801561204457508660405160200161200191906132fa565b60405160208183030381529060405280519060200120826000015160405160200161202c91906132fa565b60405160208183030381529060405280519060200120145b801561209f57508560405160200161205c91906132fa565b60405160208183030381529060405280519060200120826020015160405160200161208791906132fa565b60405160208183030381529060405280519060200120145b156120b15760019450505050506120ba565b60009450505050505b9392505050565b60016020528060005260406000206000915090508060000180546120e490612f7f565b80601f016020809104026020016040519081016040528092919081815260200182805461211090612f7f565b801561215d5780601f106121325761010080835404028352916020019161215d565b820191906000526020600020905b81548152906001019060200180831161214057829003601f168201915b50505050509080600101805461217290612f7f565b80601f016020809104026020016040519081016040528092919081815260200182805461219e90612f7f565b80156121eb5780601f106121c0576101008083540402835291602001916121eb565b820191906000526020600020905b8154815290600101906020018083116121ce57829003601f168201915b50505050509080600201805461220090612f7f565b80601f016020809104026020016040519081016040528092919081815260200182805461222c90612f7f565b80156122795780601f1061224e57610100808354040283529160200191612279565b820191906000526020600020905b81548152906001019060200180831161225c57829003601f168201915b5050505050905083565b604051806101400160405280606081526020016060815260200160608152602001606081526020016060815260200160608152602001606081526020016000815260200160008152602001600081525090565b82805482825590600052602060002090810192821561231e579160200282015b8281111561231d57825182908161230d919061315c565b50916020019190600101906122f6565b5b50905061232b919061237c565b5090565b82805482825590600052602060002090810192821561236b579160200282015b8281111561236a57825182559160200191906001019061234f565b5b50905061237891906123a0565b5090565b5b8082111561239c576000818161239391906123bd565b5060010161237d565b5090565b5b808211156123b95760008160009055506001016123a1565b5090565b5080546123c990612f7f565b6000825580601f106123db57506123fa565b601f0160209004906000526020600020908101906123f991906123a0565b5b50565b6000604051905090565b600080fd5b600080fd5b600080fd5b600080fd5b6000601f19601f8301169050919050565b7f4e487b7100000000000000000000000000000000000000000000000000000000600052604160045260246000fd5b6124648261241b565b810181811067ffffffffffffffff821117156124835761248261242c565b5b80604052505050565b60006124966123fd565b90506124a2828261245b565b919050565b600067ffffffffffffffff8211156124c2576124c161242c565b5b6124cb8261241b565b9050602081019050919050565b82818337600083830152505050565b60006124fa6124f5846124a7565b61248c565b90508281526020810184848401111561251657612515612416565b5b6125218482856124d8565b509392505050565b600082601f83011261253e5761253d612411565b5b813561254e8482602086016124e7565b91505092915050565b6000806040838503121561256e5761256d612407565b5b600083013567ffffffffffffffff81111561258c5761258b61240c565b5b61259885828601612529565b925050602083013567ffffffffffffffff8111156125b9576125b861240c565b5b6125c585828601612529565b9150509250929050565b600073ffffffffffffffffffffffffffffffffffffffff82169050919050565b60006125fa826125cf565b9050919050565b61260a816125ef565b811461261557600080fd5b50565b60008135905061262781612601565b92915050565b60006020828403121561264357612642612407565b5b600061265184828501612618565b91505092915050565b600081519050919050565b600082825260208201905092915050565b60005b83811015612694578082015181840152602081019050612679565b60008484015250505050565b60006126ab8261265a565b6126b58185612665565b93506126c5818560208601612676565b6126ce8161241b565b840191505092915050565b600060608201905081810360008301526126f381866126a0565b9050818103602083015261270781856126a0565b9050818103604083015261271b81846126a0565b9050949350505050565b6000819050919050565b61273881612725565b82525050565b6000602082019050612753600083018461272f565b92915050565b61276281612725565b811461276d57600080fd5b50565b60008135905061277f81612759565b92915050565b60006020828403121561279b5761279a612407565b5b60006127a984828501612770565b91505092915050565b60006101008201905081810360008301526127cd818b6126a0565b905081810360208301526127e1818a6126a0565b905081810360408301526127f581896126a0565b9050818103606083015261280981886126a0565b9050818103608083015261281d81876126a0565b905061282c60a083018661272f565b61283960c083018561272f565b61284660e083018461272f565b9998505050505050505050565b600082825260208201905092915050565b600061286f8261265a565b6128798185612853565b9350612889818560208601612676565b6128928161241b565b840191505092915050565b600081519050919050565b600082825260208201905092915050565b6000819050602082019050919050565b60006128d58383612864565b905092915050565b6000602082019050919050565b60006128f58261289d565b6128ff81856128a8565b935083602082028501612911856128b9565b8060005b8581101561294d578484038952815161292e85826128c9565b9450612939836128dd565b925060208a01995050600181019050612915565b50829750879550505050505092915050565b600081519050919050565b600082825260208201905092915050565b6000819050602082019050919050565b61299481612725565b82525050565b60006129a6838361298b565b60208301905092915050565b6000602082019050919050565b60006129ca8261295f565b6129d4818561296a565b93506129df8361297b565b8060005b83811015612a105781516129f7888261299a565b9750612a02836129b2565b9250506001810190506129e3565b5085935050505092915050565b6000610140830160008301518482036000860152612a3b8282612864565b91505060208301518482036020860152612a5582826128ea565b91505060408301518482036040860152612a6f82826129bf565b91505060608301518482036060860152612a898282612864565b91505060808301518482036080860152612aa38282612864565b91505060a083015184820360a0860152612abd8282612864565b91505060c083015184820360c0860152612ad78282612864565b91505060e0830151612aec60e086018261298b565b50610100830151612b0161010086018261298b565b50610120830151612b1661012086018261298b565b508091505092915050565b60006020820190508181036000830152612b3b8184612a1d565b905092915050565b600067ffffffffffffffff821115612b5e57612b5d61242c565b5b602082029050602081019050919050565b600080fd5b6000612b87612b8284612b43565b61248c565b90508083825260208201905060208402830185811115612baa57612ba9612b6f565b5b835b81811015612bf157803567ffffffffffffffff811115612bcf57612bce612411565b5b808601612bdc8982612529565b85526020850194505050602081019050612bac565b5050509392505050565b600082601f830112612c1057612c0f612411565b5b8135612c20848260208601612b74565b91505092915050565b600067ffffffffffffffff821115612c4457612c4361242c565b5b602082029050602081019050919050565b6000612c68612c6384612c29565b61248c565b90508083825260208201905060208402830185811115612c8b57612c8a612b6f565b5b835b81811015612cb45780612ca08882612770565b845260208401935050602081019050612c8d565b5050509392505050565b600082601f830112612cd357612cd2612411565b5b8135612ce3848260208601612c55565b91505092915050565b6000806000806000806000806000806101408b8d031215612d1057612d0f612407565b5b60008b013567ffffffffffffffff811115612d2e57612d2d61240c565b5b612d3a8d828e01612529565b9a505060208b013567ffffffffffffffff811115612d5b57612d5a61240c565b5b612d678d828e01612bfb565b99505060408b013567ffffffffffffffff811115612d8857612d8761240c565b5b612d948d828e01612cbe565b98505060608b013567ffffffffffffffff811115612db557612db461240c565b5b612dc18d828e01612529565b97505060808b013567ffffffffffffffff811115612de257612de161240c565b5b612dee8d828e01612529565b96505060a08b013567ffffffffffffffff811115612e0f57612e0e61240c565b5b612e1b8d828e01612529565b95505060c08b013567ffffffffffffffff811115612e3c57612e3b61240c565b5b612e488d828e01612529565b94505060e0612e598d828e01612770565b935050610100612e6b8d828e01612770565b925050610120612e7d8d828e01612770565b9150509295989b9194979a5092959850565b600080600060608486031215612ea857612ea7612407565b5b6000612eb686828701612618565b935050602084013567ffffffffffffffff811115612ed757612ed661240c565b5b612ee386828701612529565b925050604084013567ffffffffffffffff811115612f0457612f0361240c565b5b612f1086828701612529565b9150509250925092565b60008115159050919050565b612f2f81612f1a565b82525050565b6000602082019050612f4a6000830184612f26565b92915050565b7f4e487b7100000000000000000000000000000000000000000000000000000000600052602260045260246000fd5b60006002820490506001821680612f9757607f821691505b602082108103612faa57612fa9612f50565b5b50919050565b60008190508160005260206000209050919050565b60006020601f8301049050919050565b600082821b905092915050565b6000600883026130127fffffffffffffffffffffffffffffffffffffffffffffffffffffffffffffffff82612fd5565b61301c8683612fd5565b95508019841693508086168417925050509392505050565b6000819050919050565b600061305961305461304f84612725565b613034565b612725565b9050919050565b6000819050919050565b6130738361303e565b61308761307f82613060565b848454612fe2565b825550505050565b600090565b61309c61308f565b6130a781848461306a565b505050565b5b818110156130cb576130c0600082613094565b6001810190506130ad565b5050565b601f821115613110576130e181612fb0565b6130ea84612fc5565b810160208510156130f9578190505b61310d61310585612fc5565b8301826130ac565b50505b505050565b600082821c905092915050565b600061313360001984600802613115565b1980831691505092915050565b600061314c8383613122565b9150826002028217905092915050565b6131658261265a565b67ffffffffffffffff81111561317e5761317d61242c565b5b6131888254612f7f565b6131938282856130cf565b600060209050601f8311600181146131c657600084156131b4578287015190505b6131be8582613140565b865550613226565b601f1984166131d486612fb0565b60005b828110156131fc578489015182556001820191506020850194506020810190506131d7565b868310156132195784890151613215601f891682613122565b8355505b6001600288020188555050505b505050505050565b7f4e487b7100000000000000000000000000000000000000000000000000000000600052603260045260246000fd5b600081905092915050565b7f6d616e7566616374757265720000000000000000000000000000000000000000600082015250565b600061329e600c8361325d565b91506132a982613268565b600c82019050919050565b60006132bf82613291565b9150819050919050565b60006132d48261265a565b6132de818561325d565b93506132ee818560208601612676565b80840191505092915050565b600061330682846132c9565b915081905092915050565b7f736166657479636f6d6d697373696f6e65720000000000000000000000000000600082015250565b600061334760128361325d565b915061335282613311565b601282019050919050565b60006133688261333a565b9150819050919050565b7f616e616c79737400000000000000000000000000000000000000000000000000600082015250565b60006133a860078361325d565b91506133b382613372565b600782019050919050565b60006133c98261339b565b9150819050919050565b7f7361666574796f66666963657200000000000000000000000000000000000000600082015250565b6000613409600d8361325d565b9150613414826133d3565b600d82019050919050565b600061342a826133fc565b915081905091905056fea26469706673582212205d2d83cfa14b53f10d9b47117ea97e60e76fa3c0ae8303e6381fb09ca8c9aeac64736f6c63430008130033",
  "linkReferences": {},
  "deployedLinkReferences": {}
}