{
  "_format": "hh-sol-artifact-1",
  "contractName": "Crusader",
  "sourceName": "contracts/Crusader.sol",
  "abi": [
    {
      "inputs": [
        {
          "internalType": "string",
          "name": "_name",
          "type": "string"
        },
        {
          "internalType": "string[]",
          "name": "_ingredients",
          "type": "string[]"
        },
        {
          "internalType": "uint256[]",
          "name": "_quantity",
          "type": "uint256[]"
        },
        {
          "internalType": "string",
          "name": "_intendedUse",
          "type": "string"
        },
        {
          "internalType": "string",
          "name": "_functionalUse",
          "type": "string"
        },
        {
          "internalType": "string",
          "name": "_manufacturingProcess",
          "type": "string"
        },
        {
          "internalType": "string",
          "name": "_nutritionalBenefits",
          "type": "string"
        },
        {
          "internalType": "uint256",
          "name": "_fatPercentage",
          "type": "uint256"
        },
        {
          "internalType": "uint256",
          "name": "_proteinPercentage",
          "type": "uint256"
        },
        {
          "internalType": "uint256",
          "name": "_carbohydratePercentage",
          "type": "uint256"
        }
      ],
      "name": "addProduct",
      "outputs": [],
      "stateMutability": "nonpayable",
      "type": "function"
    },
    {
      "inputs": [
        {
          "internalType": "address",
          "name": "",
          "type": "address"
        }
      ],
      "name": "analysts",
      "outputs": [
        {
          "internalType": "string",
          "name": "username",
          "type": "string"
        },
        {
          "internalType": "string",
          "name": "password",
          "type": "string"
        },
        {
          "internalType": "string",
          "name": "entity",
          "type": "string"
        }
      ],
      "stateMutability": "view",
      "type": "function"
    },
    {
      "inputs": [
        {
          "internalType": "address",
          "name": "_address",
          "type": "address"
        },
        {
          "internalType": "string",
          "name": "_username",
          "type": "string"
        },
        {
          "internalType": "string",
          "name": "_password",
          "type": "string"
        }
      ],
      "name": "authenticate",
      "outputs": [
        {
          "internalType": "bool",
          "name": "",
          "type": "bool"
        }
      ],
      "stateMutability": "view",
      "type": "function"
    },
    {
      "inputs": [],
      "name": "getContractBalance",
      "outputs": [
        {
          "internalType": "uint256",
          "name": "",
          "type": "uint256"
        }
      ],
      "stateMutability": "view",
      "type": "function"
    },
    {
      "inputs": [
        {
          "internalType": "uint256",
          "name": "_index",
          "type": "uint256"
        }
      ],
      "name": "getProduct",
      "outputs": [
        {
          "components": [
            {
              "internalType": "string",
              "name": "name",
              "type": "string"
            },
            {
              "internalType": "string[]",
              "name": "ingredients",
              "type": "string[]"
            },
            {
              "internalType": "uint256[]",
              "name": "quantity",
              "type": "uint256[]"
            },
            {
              "internalType": "string",
              "name": "intendedUse",
              "type": "string"
            },
            {
              "internalType": "string",
              "name": "functionalUse",
              "type": "string"
            },
            {
              "internalType": "string",
              "name": "manufacturingProcess",
              "type": "string"
            },
            {
              "internalType": "string",
              "name": "nutritionalBenefits",
              "type": "string"
            },
            {
              "internalType": "uint256",
              "name": "fatPercentage",
              "type": "uint256"
            },
            {
              "internalType": "uint256",
              "name": "proteinPercentage",
              "type": "uint256"
            },
            {
              "internalType": "uint256",
              "name": "carbohydratePercentage",
              "type": "uint256"
            }
          ],
          "internalType": "struct Crusader.ProductDetails",
          "name": "",
          "type": "tuple"
        }
      ],
      "stateMutability": "view",
      "type": "function"
    },
    {
      "inputs": [],
      "name": "getTotalProducts",
      "outputs": [
        {
          "internalType": "uint256",
          "name": "",
          "type": "uint256"
        }
      ],
      "stateMutability": "view",
      "type": "function"
    },
    {
      "inputs": [
        {
          "internalType": "address",
          "name": "",
          "type": "address"
        }
      ],
      "name": "manufacturers",
      "outputs": [
        {
          "internalType": "string",
          "name": "username",
          "type": "string"
        },
        {
          "internalType": "string",
          "name": "password",
          "type": "string"
        },
        {
          "internalType": "string",
          "name": "entity",
          "type": "string"
        }
      ],
      "stateMutability": "view",
      "type": "function"
    },
    {
      "inputs": [
        {
          "internalType": "uint256",
          "name": "",
          "type": "uint256"
        }
      ],
      "name": "products",
      "outputs": [
        {
          "internalType": "string",
          "name": "name",
          "type": "string"
        },
        {
          "internalType": "string",
          "name": "intendedUse",
          "type": "string"
        },
        {
          "internalType": "string",
          "name": "functionalUse",
          "type": "string"
        },
        {
          "internalType": "string",
          "name": "manufacturingProcess",
          "type": "string"
        },
        {
          "internalType": "string",
          "name": "nutritionalBenefits",
          "type": "string"
        },
        {
          "internalType": "uint256",
          "name": "fatPercentage",
          "type": "uint256"
        },
        {
          "internalType": "uint256",
          "name": "proteinPercentage",
          "type": "uint256"
        },
        {
          "internalType": "uint256",
          "name": "carbohydratePercentage",
          "type": "uint256"
        }
      ],
      "stateMutability": "view",
      "type": "function"
    },
    {
      "inputs": [
        {
          "internalType": "string",
          "name": "_username",
          "type": "string"
        },
        {
          "internalType": "string",
          "name": "_password",
          "type": "string"
        }
      ],
      "name": "registerAnalyst",
      "outputs": [],
      "stateMutability": "nonpayable",
      "type": "function"
    },
    {
      "inputs": [
        {
          "internalType": "string",
          "name": "_username",
          "type": "string"
        },
        {
          "internalType": "string",
          "name": "_password",
          "type": "string"
        }
      ],
      "name": "registerCommissioner",
      "outputs": [],
      "stateMutability": "nonpayable",
      "type": "function"
    },
    {
      "inputs": [
        {
          "internalType": "string",
          "name": "_username",
          "type": "string"
        },
        {
          "internalType": "string",
          "name": "_password",
          "type": "string"
        }
      ],
      "name": "registerManufacturer",
      "outputs": [],
      "stateMutability": "nonpayable",
      "type": "function"
    },
    {
      "inputs": [
        {
          "internalType": "string",
          "name": "_username",
          "type": "string"
        },
        {
          "internalType": "string",
          "name": "_password",
          "type": "string"
        }
      ],
      "name": "registerSafetyOfficer",
      "outputs": [],
      "stateMutability": "nonpayable",
      "type": "function"
    },
    {
      "inputs": [
        {
          "internalType": "address",
          "name": "",
          "type": "address"
        }
      ],
      "name": "safetycommissioners",
      "outputs": [
        {
          "internalType": "string",
          "name": "username",
          "type": "string"
        },
        {
          "internalType": "string",
          "name": "password",
          "type": "string"
        },
        {
          "internalType": "string",
          "name": "entity",
          "type": "string"
        }
      ],
      "stateMutability": "view",
      "type": "function"
    },
    {
      "inputs": [
        {
          "internalType": "address",
          "name": "",
          "type": "address"
        }
      ],
      "name": "safetyofficers",
      "outputs": [
        {
          "internalType": "string",
          "name": "username",
          "type": "string"
        },
        {
          "internalType": "string",
          "name": "password",
          "type": "string"
        },
        {
          "internalType": "string",
          "name": "entity",
          "type": "string"
        }
      ],
      "stateMutability": "view",
      "type": "function"
    },
    {
      "inputs": [],
      "name": "totalProducts",
      "outputs": [
        {
          "internalType": "uint256",
          "name": "",
          "type": "uint256"
        }
      ],
      "stateMutability": "view",
      "type": "function"
    }
  ],
  "bytecode": "0x608060405234801561001057600080fd5b5061356b806100206000396000f3fe608060405234801561001057600080fd5b50600436106100f55760003560e01c80637acc0b2011610097578063b9db15b411610066578063b9db15b414610291578063c8f21976146102c1578063d2e07568146102dd578063fa720d861461030d576100f5565b80637acc0b20146101ee578063992c0861146102255780639b9d326d14610257578063b20d4c5114610275576100f5565b806330b15caa116100d357806330b15caa14610164578063570aea8a146101805780636b5eb09c1461019e5780636f9fb98a146101d0576100f5565b806319e75151146100fa5780631e608f4614610116578063246681e614610132575b600080fd5b610114600480360381019061010f91906125e1565b61033f565b005b610130600480360381019061012b91906125e1565b610417565b005b61014c600480360381019061014791906126b7565b6104ef565b60405161015b93929190612763565b60405180910390f35b61017e600480360381019061017991906125e1565b6106b1565b005b610188610788565b60405161019591906127c8565b60405180910390f35b6101b860048036038101906101b391906126b7565b610792565b6040516101c793929190612763565b60405180910390f35b6101d8610954565b6040516101e591906127c8565b60405180910390f35b6102086004803603810190610203919061280f565b61095c565b60405161021c98979695949392919061283c565b60405180910390f35b61023f600480360381019061023a91906126b7565b610c5c565b60405161024e93929190612763565b60405180910390f35b61025f610e1e565b60405161026c91906127c8565b60405180910390f35b61028f600480360381019061028a91906125e1565b610e24565b005b6102ab60048036038101906102a6919061280f565b610efc565b6040516102b89190612bab565b60405180910390f35b6102db60048036038101906102d69190612d76565b611362565b005b6102f760048036038101906102f29190612f19565b6114c7565b6040516103049190612fbf565b60405180910390f35b610327600480360381019061032291906126b7565b61214b565b60405161033693929190612763565b60405180910390f35b60405180606001604052808381526020018281526020016040518060400160405280600781526020017f616e616c79737400000000000000000000000000000000000000000000000000815250815250600260003373ffffffffffffffffffffffffffffffffffffffff1673ffffffffffffffffffffffffffffffffffffffff16815260200190815260200160002060008201518160000190816103e391906131e6565b5060208201518160010190816103f991906131e6565b50604082015181600201908161040f91906131e6565b509050505050565b60405180606001604052808381526020018281526020016040518060400160405280600d81526020017f7361666574796f66666963657200000000000000000000000000000000000000815250815250600160003373ffffffffffffffffffffffffffffffffffffffff1673ffffffffffffffffffffffffffffffffffffffff16815260200190815260200160002060008201518160000190816104bb91906131e6565b5060208201518160010190816104d191906131e6565b5060408201518160020190816104e791906131e6565b509050505050565b600260205280600052604060002060009150905080600001805461051290613009565b80601f016020809104026020016040519081016040528092919081815260200182805461053e90613009565b801561058b5780601f106105605761010080835404028352916020019161058b565b820191906000526020600020905b81548152906001019060200180831161056e57829003601f168201915b5050505050908060010180546105a090613009565b80601f01602080910402602001604051908101604052809291908181526020018280546105cc90613009565b80156106195780601f106105ee57610100808354040283529160200191610619565b820191906000526020600020905b8154815290600101906020018083116105fc57829003601f168201915b50505050509080600201805461062e90613009565b80601f016020809104026020016040519081016040528092919081815260200182805461065a90613009565b80156106a75780601f1061067c576101008083540402835291602001916106a7565b820191906000526020600020905b81548152906001019060200180831161068a57829003601f168201915b5050505050905083565b60405180606001604052808381526020018281526020016040518060400160405280600c81526020017f6d616e75666163747572657200000000000000000000000000000000000000008152508152506000803373ffffffffffffffffffffffffffffffffffffffff1673ffffffffffffffffffffffffffffffffffffffff168152602001908152602001600020600082015181600001908161075491906131e6565b50602082015181600101908161076a91906131e6565b50604082015181600201908161078091906131e6565b509050505050565b6000600554905090565b60006020528060005260406000206000915090508060000180546107b590613009565b80601f01602080910402602001604051908101604052809291908181526020018280546107e190613009565b801561082e5780601f106108035761010080835404028352916020019161082e565b820191906000526020600020905b81548152906001019060200180831161081157829003601f168201915b50505050509080600101805461084390613009565b80601f016020809104026020016040519081016040528092919081815260200182805461086f90613009565b80156108bc5780601f10610891576101008083540402835291602001916108bc565b820191906000526020600020905b81548152906001019060200180831161089f57829003601f168201915b5050505050908060020180546108d190613009565b80601f01602080910402602001604051908101604052809291908181526020018280546108fd90613009565b801561094a5780601f1061091f5761010080835404028352916020019161094a565b820191906000526020600020905b81548152906001019060200180831161092d57829003601f168201915b5050505050905083565b600047905090565b6004818154811061096c57600080fd5b90600052602060002090600a020160009150905080600001805461098f90613009565b80601f01602080910402602001604051908101604052809291908181526020018280546109bb90613009565b8015610a085780601f106109dd57610100808354040283529160200191610a08565b820191906000526020600020905b8154815290600101906020018083116109eb57829003601f168201915b505050505090806003018054610a1d90613009565b80601f0160208091040260200160405190810160405280929190818152602001828054610a4990613009565b8015610a965780601f10610a6b57610100808354040283529160200191610a96565b820191906000526020600020905b815481529060010190602001808311610a7957829003601f168201915b505050505090806004018054610aab90613009565b80601f0160208091040260200160405190810160405280929190818152602001828054610ad790613009565b8015610b245780601f10610af957610100808354040283529160200191610b24565b820191906000526020600020905b815481529060010190602001808311610b0757829003601f168201915b505050505090806005018054610b3990613009565b80601f0160208091040260200160405190810160405280929190818152602001828054610b6590613009565b8015610bb25780601f10610b8757610100808354040283529160200191610bb2565b820191906000526020600020905b815481529060010190602001808311610b9557829003601f168201915b505050505090806006018054610bc790613009565b80601f0160208091040260200160405190810160405280929190818152602001828054610bf390613009565b8015610c405780601f10610c1557610100808354040283529160200191610c40565b820191906000526020600020905b815481529060010190602001808311610c2357829003601f168201915b5050505050908060070154908060080154908060090154905088565b6003602052806000526040600020600091509050806000018054610c7f90613009565b80601f0160208091040260200160405190810160405280929190818152602001828054610cab90613009565b8015610cf85780601f10610ccd57610100808354040283529160200191610cf8565b820191906000526020600020905b815481529060010190602001808311610cdb57829003601f168201915b505050505090806001018054610d0d90613009565b80601f0160208091040260200160405190810160405280929190818152602001828054610d3990613009565b8015610d865780601f10610d5b57610100808354040283529160200191610d86565b820191906000526020600020905b815481529060010190602001808311610d6957829003601f168201915b505050505090806002018054610d9b90613009565b80601f0160208091040260200160405190810160405280929190818152602001828054610dc790613009565b8015610e145780601f10610de957610100808354040283529160200191610e14565b820191906000526020600020905b815481529060010190602001808311610df757829003601f168201915b5050505050905083565b60055481565b60405180606001604052808381526020018281526020016040518060400160405280601281526020017f736166657479636f6d6d697373696f6e65720000000000000000000000000000815250815250600360003373ffffffffffffffffffffffffffffffffffffffff1673ffffffffffffffffffffffffffffffffffffffff1681526020019081526020016000206000820151816000019081610ec891906131e6565b506020820151816001019081610ede91906131e6565b506040820151816002019081610ef491906131e6565b509050505050565b610f0461230d565b60048281548110610f1857610f176132b8565b5b90600052602060002090600a020160405180610140016040529081600082018054610f4290613009565b80601f0160208091040260200160405190810160405280929190818152602001828054610f6e90613009565b8015610fbb5780601f10610f9057610100808354040283529160200191610fbb565b820191906000526020600020905b815481529060010190602001808311610f9e57829003601f168201915b5050505050815260200160018201805480602002602001604051908101604052809291908181526020016000905b8282101561109557838290600052602060002001805461100890613009565b80601f016020809104026020016040519081016040528092919081815260200182805461103490613009565b80156110815780601f1061105657610100808354040283529160200191611081565b820191906000526020600020905b81548152906001019060200180831161106457829003601f168201915b505050505081526020019060010190610fe9565b505050508152602001600282018054806020026020016040519081016040528092919081815260200182805480156110ec57602002820191906000526020600020905b8154815260200190600101908083116110d8575b5050505050815260200160038201805461110590613009565b80601f016020809104026020016040519081016040528092919081815260200182805461113190613009565b801561117e5780601f106111535761010080835404028352916020019161117e565b820191906000526020600020905b81548152906001019060200180831161116157829003601f168201915b5050505050815260200160048201805461119790613009565b80601f01602080910402602001604051908101604052809291908181526020018280546111c390613009565b80156112105780601f106111e557610100808354040283529160200191611210565b820191906000526020600020905b8154815290600101906020018083116111f357829003601f168201915b5050505050815260200160058201805461122990613009565b80601f016020809104026020016040519081016040528092919081815260200182805461125590613009565b80156112a25780601f10611277576101008083540402835291602001916112a2565b820191906000526020600020905b81548152906001019060200180831161128557829003601f168201915b505050505081526020016006820180546112bb90613009565b80601f01602080910402602001604051908101604052809291908181526020018280546112e790613009565b80156113345780601f1061130957610100808354040283529160200191611334565b820191906000526020600020905b81548152906001019060200180831161131757829003601f168201915b5050505050815260200160078201548152602001600882015481526020016009820154815250509050919050565b6005600081548092919061137590613316565b919050555060006040518061014001604052808c81526020018b81526020018a815260200189815260200188815260200187815260200186815260200185815260200184815260200183815250905060048190806001815401808255809150506001900390600052602060002090600a0201600090919091909150600082015181600001908161140591906131e6565b506020820151816001019080519060200190611422929190612360565b50604082015181600201908051906020019061143f9291906123b9565b50606082015181600301908161145591906131e6565b50608082015181600401908161146b91906131e6565b5060a082015181600501908161148191906131e6565b5060c082015181600601908161149791906131e6565b5060e082015181600701556101008201518160080155610120820151816009015550505050505050505050505050565b6000806000808673ffffffffffffffffffffffffffffffffffffffff1673ffffffffffffffffffffffffffffffffffffffff16815260200190815260200160002060405180606001604052908160008201805461152390613009565b80601f016020809104026020016040519081016040528092919081815260200182805461154f90613009565b801561159c5780601f106115715761010080835404028352916020019161159c565b820191906000526020600020905b81548152906001019060200180831161157f57829003601f168201915b505050505081526020016001820180546115b590613009565b80601f01602080910402602001604051908101604052809291908181526020018280546115e190613009565b801561162e5780601f106116035761010080835404028352916020019161162e565b820191906000526020600020905b81548152906001019060200180831161161157829003601f168201915b5050505050815260200160028201805461164790613009565b80601f016020809104026020016040519081016040528092919081815260200182805461167390613009565b80156116c05780601f10611695576101008083540402835291602001916116c0565b820191906000526020600020905b8154815290600101906020018083116116a357829003601f168201915b50505050508152505090506000600360008773ffffffffffffffffffffffffffffffffffffffff1673ffffffffffffffffffffffffffffffffffffffff16815260200190815260200160002060405180606001604052908160008201805461172790613009565b80601f016020809104026020016040519081016040528092919081815260200182805461175390613009565b80156117a05780601f10611775576101008083540402835291602001916117a0565b820191906000526020600020905b81548152906001019060200180831161178357829003601f168201915b505050505081526020016001820180546117b990613009565b80601f01602080910402602001604051908101604052809291908181526020018280546117e590613009565b80156118325780601f1061180757610100808354040283529160200191611832565b820191906000526020600020905b81548152906001019060200180831161181557829003601f168201915b5050505050815260200160028201805461184b90613009565b80601f016020809104026020016040519081016040528092919081815260200182805461187790613009565b80156118c45780601f10611899576101008083540402835291602001916118c4565b820191906000526020600020905b8154815290600101906020018083116118a757829003601f168201915b50505050508152505090506000600160008873ffffffffffffffffffffffffffffffffffffffff1673ffffffffffffffffffffffffffffffffffffffff16815260200190815260200160002060405180606001604052908160008201805461192b90613009565b80601f016020809104026020016040519081016040528092919081815260200182805461195790613009565b80156119a45780601f10611979576101008083540402835291602001916119a4565b820191906000526020600020905b81548152906001019060200180831161198757829003601f168201915b505050505081526020016001820180546119bd90613009565b80601f01602080910402602001604051908101604052809291908181526020018280546119e990613009565b8015611a365780601f10611a0b57610100808354040283529160200191611a36565b820191906000526020600020905b815481529060010190602001808311611a1957829003601f168201915b50505050508152602001600282018054611a4f90613009565b80601f0160208091040260200160405190810160405280929190818152602001828054611a7b90613009565b8015611ac85780601f10611a9d57610100808354040283529160200191611ac8565b820191906000526020600020905b815481529060010190602001808311611aab57829003601f168201915b50505050508152505090506000600260008973ffffffffffffffffffffffffffffffffffffffff1673ffffffffffffffffffffffffffffffffffffffff168152602001908152602001600020604051806060016040529081600082018054611b2f90613009565b80601f0160208091040260200160405190810160405280929190818152602001828054611b5b90613009565b8015611ba85780601f10611b7d57610100808354040283529160200191611ba8565b820191906000526020600020905b815481529060010190602001808311611b8b57829003601f168201915b50505050508152602001600182018054611bc190613009565b80601f0160208091040260200160405190810160405280929190818152602001828054611bed90613009565b8015611c3a5780601f10611c0f57610100808354040283529160200191611c3a565b820191906000526020600020905b815481529060010190602001808311611c1d57829003601f168201915b50505050508152602001600282018054611c5390613009565b80601f0160208091040260200160405190810160405280929190818152602001828054611c7f90613009565b8015611ccc5780601f10611ca157610100808354040283529160200191611ccc565b820191906000526020600020905b815481529060010190602001808311611caf57829003601f168201915b5050505050815250509050604051602001611ce6906133b5565b604051602081830303815290604052805190602001208460400151604051602001611d1191906133fb565b60405160208183030381529060405280519060200120148015611d83575086604051602001611d4091906133fb565b604051602081830303815290604052805190602001208460000151604051602001611d6b91906133fb565b60405160208183030381529060405280519060200120145b8015611dde575085604051602001611d9b91906133fb565b604051602081830303815290604052805190602001208460200151604051602001611dc691906133fb565b60405160208183030381529060405280519060200120145b15611df0576001945050505050612144565b604051602001611dff9061345e565b604051602081830303815290604052805190602001208360400151604051602001611e2a91906133fb565b60405160208183030381529060405280519060200120148015611e9c575086604051602001611e5991906133fb565b604051602081830303815290604052805190602001208360000151604051602001611e8491906133fb565b60405160208183030381529060405280519060200120145b8015611ef7575085604051602001611eb491906133fb565b604051602081830303815290604052805190602001208360200151604051602001611edf91906133fb565b60405160208183030381529060405280519060200120145b15611f09576001945050505050612144565b604051602001611f18906134bf565b604051602081830303815290604052805190602001208160400151604051602001611f4391906133fb565b60405160208183030381529060405280519060200120148015611fb5575086604051602001611f7291906133fb565b604051602081830303815290604052805190602001208160000151604051602001611f9d91906133fb565b60405160208183030381529060405280519060200120145b8015612010575085604051602001611fcd91906133fb565b604051602081830303815290604052805190602001208160200151604051602001611ff891906133fb565b60405160208183030381529060405280519060200120145b15612022576001945050505050612144565b60405160200161203190613520565b60405160208183030381529060405280519060200120826040015160405160200161205c91906133fb565b604051602081830303815290604052805190602001201480156120ce57508660405160200161208b91906133fb565b6040516020818303038152906040528051906020012082600001516040516020016120b691906133fb565b60405160208183030381529060405280519060200120145b80156121295750856040516020016120e691906133fb565b60405160208183030381529060405280519060200120826020015160405160200161211191906133fb565b60405160208183030381529060405280519060200120145b1561213b576001945050505050612144565b60009450505050505b9392505050565b600160205280600052604060002060009150905080600001805461216e90613009565b80601f016020809104026020016040519081016040528092919081815260200182805461219a90613009565b80156121e75780601f106121bc576101008083540402835291602001916121e7565b820191906000526020600020905b8154815290600101906020018083116121ca57829003601f168201915b5050505050908060010180546121fc90613009565b80601f016020809104026020016040519081016040528092919081815260200182805461222890613009565b80156122755780601f1061224a57610100808354040283529160200191612275565b820191906000526020600020905b81548152906001019060200180831161225857829003601f168201915b50505050509080600201805461228a90613009565b80601f01602080910402602001604051908101604052809291908181526020018280546122b690613009565b80156123035780601f106122d857610100808354040283529160200191612303565b820191906000526020600020905b8154815290600101906020018083116122e657829003601f168201915b5050505050905083565b604051806101400160405280606081526020016060815260200160608152602001606081526020016060815260200160608152602001606081526020016000815260200160008152602001600081525090565b8280548282559060005260206000209081019282156123a8579160200282015b828111156123a757825182908161239791906131e6565b5091602001919060010190612380565b5b5090506123b59190612406565b5090565b8280548282559060005260206000209081019282156123f5579160200282015b828111156123f45782518255916020019190600101906123d9565b5b509050612402919061242a565b5090565b5b80821115612426576000818161241d9190612447565b50600101612407565b5090565b5b8082111561244357600081600090555060010161242b565b5090565b50805461245390613009565b6000825580601f106124655750612484565b601f016020900490600052602060002090810190612483919061242a565b5b50565b6000604051905090565b600080fd5b600080fd5b600080fd5b600080fd5b6000601f19601f8301169050919050565b7f4e487b7100000000000000000000000000000000000000000000000000000000600052604160045260246000fd5b6124ee826124a5565b810181811067ffffffffffffffff8211171561250d5761250c6124b6565b5b80604052505050565b6000612520612487565b905061252c82826124e5565b919050565b600067ffffffffffffffff82111561254c5761254b6124b6565b5b612555826124a5565b9050602081019050919050565b82818337600083830152505050565b600061258461257f84612531565b612516565b9050828152602081018484840111156125a05761259f6124a0565b5b6125ab848285612562565b509392505050565b600082601f8301126125c8576125c761249b565b5b81356125d8848260208601612571565b91505092915050565b600080604083850312156125f8576125f7612491565b5b600083013567ffffffffffffffff81111561261657612615612496565b5b612622858286016125b3565b925050602083013567ffffffffffffffff81111561264357612642612496565b5b61264f858286016125b3565b9150509250929050565b600073ffffffffffffffffffffffffffffffffffffffff82169050919050565b600061268482612659565b9050919050565b61269481612679565b811461269f57600080fd5b50565b6000813590506126b18161268b565b92915050565b6000602082840312156126cd576126cc612491565b5b60006126db848285016126a2565b91505092915050565b600081519050919050565b600082825260208201905092915050565b60005b8381101561271e578082015181840152602081019050612703565b60008484015250505050565b6000612735826126e4565b61273f81856126ef565b935061274f818560208601612700565b612758816124a5565b840191505092915050565b6000606082019050818103600083015261277d818661272a565b90508181036020830152612791818561272a565b905081810360408301526127a5818461272a565b9050949350505050565b6000819050919050565b6127c2816127af565b82525050565b60006020820190506127dd60008301846127b9565b92915050565b6127ec816127af565b81146127f757600080fd5b50565b600081359050612809816127e3565b92915050565b60006020828403121561282557612824612491565b5b6000612833848285016127fa565b91505092915050565b6000610100820190508181036000830152612857818b61272a565b9050818103602083015261286b818a61272a565b9050818103604083015261287f818961272a565b90508181036060830152612893818861272a565b905081810360808301526128a7818761272a565b90506128b660a08301866127b9565b6128c360c08301856127b9565b6128d060e08301846127b9565b9998505050505050505050565b600082825260208201905092915050565b60006128f9826126e4565b61290381856128dd565b9350612913818560208601612700565b61291c816124a5565b840191505092915050565b600081519050919050565b600082825260208201905092915050565b6000819050602082019050919050565b600061295f83836128ee565b905092915050565b6000602082019050919050565b600061297f82612927565b6129898185612932565b93508360208202850161299b85612943565b8060005b858110156129d757848403895281516129b88582612953565b94506129c383612967565b925060208a0199505060018101905061299f565b50829750879550505050505092915050565b600081519050919050565b600082825260208201905092915050565b6000819050602082019050919050565b612a1e816127af565b82525050565b6000612a308383612a15565b60208301905092915050565b6000602082019050919050565b6000612a54826129e9565b612a5e81856129f4565b9350612a6983612a05565b8060005b83811015612a9a578151612a818882612a24565b9750612a8c83612a3c565b925050600181019050612a6d565b5085935050505092915050565b6000610140830160008301518482036000860152612ac582826128ee565b91505060208301518482036020860152612adf8282612974565b91505060408301518482036040860152612af98282612a49565b91505060608301518482036060860152612b1382826128ee565b91505060808301518482036080860152612b2d82826128ee565b91505060a083015184820360a0860152612b4782826128ee565b91505060c083015184820360c0860152612b6182826128ee565b91505060e0830151612b7660e0860182612a15565b50610100830151612b8b610100860182612a15565b50610120830151612ba0610120860182612a15565b508091505092915050565b60006020820190508181036000830152612bc58184612aa7565b905092915050565b600067ffffffffffffffff821115612be857612be76124b6565b5b602082029050602081019050919050565b600080fd5b6000612c11612c0c84612bcd565b612516565b90508083825260208201905060208402830185811115612c3457612c33612bf9565b5b835b81811015612c7b57803567ffffffffffffffff811115612c5957612c5861249b565b5b808601612c6689826125b3565b85526020850194505050602081019050612c36565b5050509392505050565b600082601f830112612c9a57612c9961249b565b5b8135612caa848260208601612bfe565b91505092915050565b600067ffffffffffffffff821115612cce57612ccd6124b6565b5b602082029050602081019050919050565b6000612cf2612ced84612cb3565b612516565b90508083825260208201905060208402830185811115612d1557612d14612bf9565b5b835b81811015612d3e5780612d2a88826127fa565b845260208401935050602081019050612d17565b5050509392505050565b600082601f830112612d5d57612d5c61249b565b5b8135612d6d848260208601612cdf565b91505092915050565b6000806000806000806000806000806101408b8d031215612d9a57612d99612491565b5b60008b013567ffffffffffffffff811115612db857612db7612496565b5b612dc48d828e016125b3565b9a505060208b013567ffffffffffffffff811115612de557612de4612496565b5b612df18d828e01612c85565b99505060408b013567ffffffffffffffff811115612e1257612e11612496565b5b612e1e8d828e01612d48565b98505060608b013567ffffffffffffffff811115612e3f57612e3e612496565b5b612e4b8d828e016125b3565b97505060808b013567ffffffffffffffff811115612e6c57612e6b612496565b5b612e788d828e016125b3565b96505060a08b013567ffffffffffffffff811115612e9957612e98612496565b5b612ea58d828e016125b3565b95505060c08b013567ffffffffffffffff811115612ec657612ec5612496565b5b612ed28d828e016125b3565b94505060e0612ee38d828e016127fa565b935050610100612ef58d828e016127fa565b925050610120612f078d828e016127fa565b9150509295989b9194979a5092959850565b600080600060608486031215612f3257612f31612491565b5b6000612f40868287016126a2565b935050602084013567ffffffffffffffff811115612f6157612f60612496565b5b612f6d868287016125b3565b925050604084013567ffffffffffffffff811115612f8e57612f8d612496565b5b612f9a868287016125b3565b9150509250925092565b60008115159050919050565b612fb981612fa4565b82525050565b6000602082019050612fd46000830184612fb0565b92915050565b7f4e487b7100000000000000000000000000000000000000000000000000000000600052602260045260246000fd5b6000600282049050600182168061302157607f821691505b60208210810361303457613033612fda565b5b50919050565b60008190508160005260206000209050919050565b60006020601f8301049050919050565b600082821b905092915050565b60006008830261309c7fffffffffffffffffffffffffffffffffffffffffffffffffffffffffffffffff8261305f565b6130a6868361305f565b95508019841693508086168417925050509392505050565b6000819050919050565b60006130e36130de6130d9846127af565b6130be565b6127af565b9050919050565b6000819050919050565b6130fd836130c8565b613111613109826130ea565b84845461306c565b825550505050565b600090565b613126613119565b6131318184846130f4565b505050565b5b818110156131555761314a60008261311e565b600181019050613137565b5050565b601f82111561319a5761316b8161303a565b6131748461304f565b81016020851015613183578190505b61319761318f8561304f565b830182613136565b50505b505050565b600082821c905092915050565b60006131bd6000198460080261319f565b1980831691505092915050565b60006131d683836131ac565b9150826002028217905092915050565b6131ef826126e4565b67ffffffffffffffff811115613208576132076124b6565b5b6132128254613009565b61321d828285613159565b600060209050601f831160018114613250576000841561323e578287015190505b61324885826131ca565b8655506132b0565b601f19841661325e8661303a565b60005b8281101561328657848901518255600182019150602085019450602081019050613261565b868310156132a3578489015161329f601f8916826131ac565b8355505b6001600288020188555050505b505050505050565b7f4e487b7100000000000000000000000000000000000000000000000000000000600052603260045260246000fd5b7f4e487b7100000000000000000000000000000000000000000000000000000000600052601160045260246000fd5b6000613321826127af565b91507fffffffffffffffffffffffffffffffffffffffffffffffffffffffffffffffff8203613353576133526132e7565b5b600182019050919050565b600081905092915050565b7f6d616e7566616374757265720000000000000000000000000000000000000000600082015250565b600061339f600c8361335e565b91506133aa82613369565b600c82019050919050565b60006133c082613392565b9150819050919050565b60006133d5826126e4565b6133df818561335e565b93506133ef818560208601612700565b80840191505092915050565b600061340782846133ca565b915081905092915050565b7f736166657479636f6d6d697373696f6e65720000000000000000000000000000600082015250565b600061344860128361335e565b915061345382613412565b601282019050919050565b60006134698261343b565b9150819050919050565b7f616e616c79737400000000000000000000000000000000000000000000000000600082015250565b60006134a960078361335e565b91506134b482613473565b600782019050919050565b60006134ca8261349c565b9150819050919050565b7f7361666574796f66666963657200000000000000000000000000000000000000600082015250565b600061350a600d8361335e565b9150613515826134d4565b600d82019050919050565b600061352b826134fd565b915081905091905056fea264697066735822122012395e4f46f3c5fd4fe8ebd06cb65b4904b6af1a168735c8029f25b16c6adc8864736f6c63430008130033",
  "linkReferences": {},
  "deployedLinkReferences": {}
}