{
  "_format": "hh-sol-artifact-1",
  "contractName": "Crusader",
  "sourceName": "contracts/Crusader.sol",
  "abi": [
    {
      "inputs": [
        {
          "internalType": "uint256",
          "name": "_id",
          "type": "uint256"
        },
        {
          "internalType": "string",
          "name": "_name",
          "type": "string"
        },
        {
          "internalType": "string[]",
          "name": "_ingredients",
          "type": "string[]"
        },
        {
          "internalType": "uint256[]",
          "name": "_quantity",
          "type": "uint256[]"
        },
        {
          "internalType": "string",
          "name": "_intendedUse",
          "type": "string"
        },
        {
          "internalType": "string",
          "name": "_functionalUse",
          "type": "string"
        },
        {
          "internalType": "string",
          "name": "_manufacturingProcess",
          "type": "string"
        },
        {
          "internalType": "string",
          "name": "_nutritionalBenefits",
          "type": "string"
        },
        {
          "internalType": "uint256",
          "name": "_fatPercentage",
          "type": "uint256"
        },
        {
          "internalType": "uint256",
          "name": "_proteinPercentage",
          "type": "uint256"
        },
        {
          "internalType": "uint256",
          "name": "_carbohydratePercentage",
          "type": "uint256"
        }
      ],
      "name": "addProduct",
      "outputs": [],
      "stateMutability": "nonpayable",
      "type": "function"
    },
    {
      "inputs": [
        {
          "internalType": "address",
          "name": "",
          "type": "address"
        }
      ],
      "name": "analysts",
      "outputs": [
        {
          "internalType": "string",
          "name": "username",
          "type": "string"
        },
        {
          "internalType": "string",
          "name": "password",
          "type": "string"
        },
        {
          "internalType": "string",
          "name": "entity",
          "type": "string"
        }
      ],
      "stateMutability": "view",
      "type": "function"
    },
    {
      "inputs": [],
      "name": "getContractBalance",
      "outputs": [
        {
          "internalType": "uint256",
          "name": "",
          "type": "uint256"
        }
      ],
      "stateMutability": "view",
      "type": "function"
    },
    {
      "inputs": [
        {
          "internalType": "uint256",
          "name": "_id",
          "type": "uint256"
        }
      ],
      "name": "getProductById",
      "outputs": [
        {
          "components": [
            {
              "internalType": "uint256",
              "name": "id",
              "type": "uint256"
            },
            {
              "internalType": "string",
              "name": "name",
              "type": "string"
            },
            {
              "internalType": "string[]",
              "name": "ingredients",
              "type": "string[]"
            },
            {
              "internalType": "uint256[]",
              "name": "quantity",
              "type": "uint256[]"
            },
            {
              "internalType": "string",
              "name": "intendedUse",
              "type": "string"
            },
            {
              "internalType": "string",
              "name": "functionalUse",
              "type": "string"
            },
            {
              "internalType": "string",
              "name": "manufacturingProcess",
              "type": "string"
            },
            {
              "internalType": "string",
              "name": "nutritionalBenefits",
              "type": "string"
            },
            {
              "internalType": "uint256",
              "name": "fatPercentage",
              "type": "uint256"
            },
            {
              "internalType": "uint256",
              "name": "proteinPercentage",
              "type": "uint256"
            },
            {
              "internalType": "uint256",
              "name": "carbohydratePercentage",
              "type": "uint256"
            }
          ],
          "internalType": "struct Crusader.ProductDetails",
          "name": "",
          "type": "tuple"
        }
      ],
      "stateMutability": "view",
      "type": "function"
    },
    {
      "inputs": [],
      "name": "getTotalProducts",
      "outputs": [
        {
          "internalType": "uint256",
          "name": "",
          "type": "uint256"
        }
      ],
      "stateMutability": "view",
      "type": "function"
    },
    {
      "inputs": [
        {
          "internalType": "address",
          "name": "",
          "type": "address"
        }
      ],
      "name": "manufacturers",
      "outputs": [
        {
          "internalType": "string",
          "name": "username",
          "type": "string"
        },
        {
          "internalType": "string",
          "name": "password",
          "type": "string"
        },
        {
          "internalType": "string",
          "name": "entity",
          "type": "string"
        }
      ],
      "stateMutability": "view",
      "type": "function"
    },
    {
      "inputs": [
        {
          "internalType": "uint256",
          "name": "",
          "type": "uint256"
        }
      ],
      "name": "productsIdMapping",
      "outputs": [
        {
          "internalType": "uint256",
          "name": "id",
          "type": "uint256"
        },
        {
          "internalType": "string",
          "name": "name",
          "type": "string"
        },
        {
          "internalType": "string",
          "name": "intendedUse",
          "type": "string"
        },
        {
          "internalType": "string",
          "name": "functionalUse",
          "type": "string"
        },
        {
          "internalType": "string",
          "name": "manufacturingProcess",
          "type": "string"
        },
        {
          "internalType": "string",
          "name": "nutritionalBenefits",
          "type": "string"
        },
        {
          "internalType": "uint256",
          "name": "fatPercentage",
          "type": "uint256"
        },
        {
          "internalType": "uint256",
          "name": "proteinPercentage",
          "type": "uint256"
        },
        {
          "internalType": "uint256",
          "name": "carbohydratePercentage",
          "type": "uint256"
        }
      ],
      "stateMutability": "view",
      "type": "function"
    },
    {
      "inputs": [
        {
          "internalType": "string",
          "name": "_username",
          "type": "string"
        },
        {
          "internalType": "string",
          "name": "_password",
          "type": "string"
        }
      ],
      "name": "registerAnalyst",
      "outputs": [],
      "stateMutability": "nonpayable",
      "type": "function"
    },
    {
      "inputs": [
        {
          "internalType": "string",
          "name": "_username",
          "type": "string"
        },
        {
          "internalType": "string",
          "name": "_password",
          "type": "string"
        }
      ],
      "name": "registerCommissioner",
      "outputs": [],
      "stateMutability": "nonpayable",
      "type": "function"
    },
    {
      "inputs": [
        {
          "internalType": "string",
          "name": "_username",
          "type": "string"
        },
        {
          "internalType": "string",
          "name": "_password",
          "type": "string"
        }
      ],
      "name": "registerManufacturer",
      "outputs": [],
      "stateMutability": "nonpayable",
      "type": "function"
    },
    {
      "inputs": [
        {
          "internalType": "string",
          "name": "_username",
          "type": "string"
        },
        {
          "internalType": "string",
          "name": "_password",
          "type": "string"
        }
      ],
      "name": "registerSafetyOfficer",
      "outputs": [],
      "stateMutability": "nonpayable",
      "type": "function"
    },
    {
      "inputs": [
        {
          "internalType": "address",
          "name": "",
          "type": "address"
        }
      ],
      "name": "safetycommissioners",
      "outputs": [
        {
          "internalType": "string",
          "name": "username",
          "type": "string"
        },
        {
          "internalType": "string",
          "name": "password",
          "type": "string"
        },
        {
          "internalType": "string",
          "name": "entity",
          "type": "string"
        }
      ],
      "stateMutability": "view",
      "type": "function"
    },
    {
      "inputs": [
        {
          "internalType": "address",
          "name": "",
          "type": "address"
        }
      ],
      "name": "safetyofficers",
      "outputs": [
        {
          "internalType": "string",
          "name": "username",
          "type": "string"
        },
        {
          "internalType": "string",
          "name": "password",
          "type": "string"
        },
        {
          "internalType": "string",
          "name": "entity",
          "type": "string"
        }
      ],
      "stateMutability": "view",
      "type": "function"
    },
    {
      "inputs": [],
      "name": "totalProducts",
      "outputs": [
        {
          "internalType": "uint256",
          "name": "",
          "type": "uint256"
        }
      ],
      "stateMutability": "view",
      "type": "function"
    }
  ],
  "bytecode": "0x608060405234801561001057600080fd5b50612614806100206000396000f3fe608060405234801561001057600080fd5b50600436106100ea5760003560e01c80637acc0b201161008c578063b20d4c5111610066578063b20d4c511461026a578063b9db15b414610286578063c8f21976146102b6578063fa720d86146102d2576100ea565b80637acc0b20146101e3578063992c08611461021a5780639b9d326d1461024c576100ea565b806330b15caa116100c857806330b15caa14610159578063570aea8a146101755780636b5eb09c146101935780636f9fb98a146101c5576100ea565b806319e75151146100ef5780631e608f461461010b578063246681e614610127575b600080fd5b61010960048036038101906101049190611922565b610304565b005b61012560048036038101906101209190611922565b6103dc565b005b610141600480360381019061013c91906119f8565b6104b4565b60405161015093929190611aa4565b60405180910390f35b610173600480360381019061016e9190611922565b610676565b005b61017d61074d565b60405161018a9190611b09565b60405180910390f35b6101ad60048036038101906101a891906119f8565b610757565b6040516101bc93929190611aa4565b60405180910390f35b6101cd610919565b6040516101da9190611b09565b60405180910390f35b6101fd60048036038101906101f89190611b50565b610921565b604051610211989796959493929190611b7d565b60405180910390f35b610234600480360381019061022f91906119f8565b610c21565b60405161024393929190611aa4565b60405180910390f35b610254610de3565b6040516102619190611b09565b60405180910390f35b610284600480360381019061027f9190611922565b610de9565b005b6102a0600480360381019061029b9190611b50565b610ec1565b6040516102ad9190611eec565b60405180910390f35b6102d060048036038101906102cb91906120b7565b611327565b005b6102ec60048036038101906102e791906119f8565b61148c565b6040516102fb93929190611aa4565b60405180910390f35b60405180606001604052808381526020018281526020016040518060400160405280600781526020017f616e616c79737400000000000000000000000000000000000000000000000000815250815250600260003373ffffffffffffffffffffffffffffffffffffffff1673ffffffffffffffffffffffffffffffffffffffff16815260200190815260200160002060008201518160000190816103a89190612466565b5060208201518160010190816103be9190612466565b5060408201518160020190816103d49190612466565b509050505050565b60405180606001604052808381526020018281526020016040518060400160405280600d81526020017f7361666574796f66666963657200000000000000000000000000000000000000815250815250600160003373ffffffffffffffffffffffffffffffffffffffff1673ffffffffffffffffffffffffffffffffffffffff16815260200190815260200160002060008201518160000190816104809190612466565b5060208201518160010190816104969190612466565b5060408201518160020190816104ac9190612466565b509050505050565b60026020528060005260406000206000915090508060000180546104d790612289565b80601f016020809104026020016040519081016040528092919081815260200182805461050390612289565b80156105505780601f1061052557610100808354040283529160200191610550565b820191906000526020600020905b81548152906001019060200180831161053357829003601f168201915b50505050509080600101805461056590612289565b80601f016020809104026020016040519081016040528092919081815260200182805461059190612289565b80156105de5780601f106105b3576101008083540402835291602001916105de565b820191906000526020600020905b8154815290600101906020018083116105c157829003601f168201915b5050505050908060020180546105f390612289565b80601f016020809104026020016040519081016040528092919081815260200182805461061f90612289565b801561066c5780601f106106415761010080835404028352916020019161066c565b820191906000526020600020905b81548152906001019060200180831161064f57829003601f168201915b5050505050905083565b60405180606001604052808381526020018281526020016040518060400160405280600c81526020017f6d616e75666163747572657200000000000000000000000000000000000000008152508152506000803373ffffffffffffffffffffffffffffffffffffffff1673ffffffffffffffffffffffffffffffffffffffff16815260200190815260200160002060008201518160000190816107199190612466565b50602082015181600101908161072f9190612466565b5060408201518160020190816107459190612466565b509050505050565b6000600554905090565b600060205280600052604060002060009150905080600001805461077a90612289565b80601f01602080910402602001604051908101604052809291908181526020018280546107a690612289565b80156107f35780601f106107c8576101008083540402835291602001916107f3565b820191906000526020600020905b8154815290600101906020018083116107d657829003601f168201915b50505050509080600101805461080890612289565b80601f016020809104026020016040519081016040528092919081815260200182805461083490612289565b80156108815780601f1061085657610100808354040283529160200191610881565b820191906000526020600020905b81548152906001019060200180831161086457829003601f168201915b50505050509080600201805461089690612289565b80601f01602080910402602001604051908101604052809291908181526020018280546108c290612289565b801561090f5780601f106108e45761010080835404028352916020019161090f565b820191906000526020600020905b8154815290600101906020018083116108f257829003601f168201915b5050505050905083565b600047905090565b6004818154811061093157600080fd5b90600052602060002090600a020160009150905080600001805461095490612289565b80601f016020809104026020016040519081016040528092919081815260200182805461098090612289565b80156109cd5780601f106109a2576101008083540402835291602001916109cd565b820191906000526020600020905b8154815290600101906020018083116109b057829003601f168201915b5050505050908060030180546109e290612289565b80601f0160208091040260200160405190810160405280929190818152602001828054610a0e90612289565b8015610a5b5780601f10610a3057610100808354040283529160200191610a5b565b820191906000526020600020905b815481529060010190602001808311610a3e57829003601f168201915b505050505090806004018054610a7090612289565b80601f0160208091040260200160405190810160405280929190818152602001828054610a9c90612289565b8015610ae95780601f10610abe57610100808354040283529160200191610ae9565b820191906000526020600020905b815481529060010190602001808311610acc57829003601f168201915b505050505090806005018054610afe90612289565b80601f0160208091040260200160405190810160405280929190818152602001828054610b2a90612289565b8015610b775780601f10610b4c57610100808354040283529160200191610b77565b820191906000526020600020905b815481529060010190602001808311610b5a57829003601f168201915b505050505090806006018054610b8c90612289565b80601f0160208091040260200160405190810160405280929190818152602001828054610bb890612289565b8015610c055780601f10610bda57610100808354040283529160200191610c05565b820191906000526020600020905b815481529060010190602001808311610be857829003601f168201915b5050505050908060070154908060080154908060090154905088565b6003602052806000526040600020600091509050806000018054610c4490612289565b80601f0160208091040260200160405190810160405280929190818152602001828054610c7090612289565b8015610cbd5780601f10610c9257610100808354040283529160200191610cbd565b820191906000526020600020905b815481529060010190602001808311610ca057829003601f168201915b505050505090806001018054610cd290612289565b80601f0160208091040260200160405190810160405280929190818152602001828054610cfe90612289565b8015610d4b5780601f10610d2057610100808354040283529160200191610d4b565b820191906000526020600020905b815481529060010190602001808311610d2e57829003601f168201915b505050505090806002018054610d6090612289565b80601f0160208091040260200160405190810160405280929190818152602001828054610d8c90612289565b8015610dd95780601f10610dae57610100808354040283529160200191610dd9565b820191906000526020600020905b815481529060010190602001808311610dbc57829003601f168201915b5050505050905083565b60055481565b60405180606001604052808381526020018281526020016040518060400160405280601281526020017f736166657479636f6d6d697373696f6e65720000000000000000000000000000815250815250600360003373ffffffffffffffffffffffffffffffffffffffff1673ffffffffffffffffffffffffffffffffffffffff1681526020019081526020016000206000820151816000019081610e8d9190612466565b506020820151816001019081610ea39190612466565b506040820151816002019081610eb99190612466565b509050505050565b610ec961164e565b60048281548110610edd57610edc612538565b5b90600052602060002090600a020160405180610140016040529081600082018054610f0790612289565b80601f0160208091040260200160405190810160405280929190818152602001828054610f3390612289565b8015610f805780601f10610f5557610100808354040283529160200191610f80565b820191906000526020600020905b815481529060010190602001808311610f6357829003601f168201915b5050505050815260200160018201805480602002602001604051908101604052809291908181526020016000905b8282101561105a578382906000526020600020018054610fcd90612289565b80601f0160208091040260200160405190810160405280929190818152602001828054610ff990612289565b80156110465780601f1061101b57610100808354040283529160200191611046565b820191906000526020600020905b81548152906001019060200180831161102957829003601f168201915b505050505081526020019060010190610fae565b505050508152602001600282018054806020026020016040519081016040528092919081815260200182805480156110b157602002820191906000526020600020905b81548152602001906001019080831161109d575b505050505081526020016003820180546110ca90612289565b80601f01602080910402602001604051908101604052809291908181526020018280546110f690612289565b80156111435780601f1061111857610100808354040283529160200191611143565b820191906000526020600020905b81548152906001019060200180831161112657829003601f168201915b5050505050815260200160048201805461115c90612289565b80601f016020809104026020016040519081016040528092919081815260200182805461118890612289565b80156111d55780601f106111aa576101008083540402835291602001916111d5565b820191906000526020600020905b8154815290600101906020018083116111b857829003601f168201915b505050505081526020016005820180546111ee90612289565b80601f016020809104026020016040519081016040528092919081815260200182805461121a90612289565b80156112675780601f1061123c57610100808354040283529160200191611267565b820191906000526020600020905b81548152906001019060200180831161124a57829003601f168201915b5050505050815260200160068201805461128090612289565b80601f01602080910402602001604051908101604052809291908181526020018280546112ac90612289565b80156112f95780601f106112ce576101008083540402835291602001916112f9565b820191906000526020600020905b8154815290600101906020018083116112dc57829003601f168201915b5050505050815260200160078201548152602001600882015481526020016009820154815250509050919050565b6005600081548092919061133a90612596565b919050555060006040518061014001604052808c81526020018b81526020018a815260200189815260200188815260200187815260200186815260200185815260200184815260200183815250905060048190806001815401808255809150506001900390600052602060002090600a020160009091909190915060008201518160000190816113ca9190612466565b5060208201518160010190805190602001906113e79291906116a1565b5060408201518160020190805190602001906114049291906116fa565b50606082015181600301908161141a9190612466565b5060808201518160040190816114309190612466565b5060a08201518160050190816114469190612466565b5060c082015181600601908161145c9190612466565b5060e082015181600701556101008201518160080155610120820151816009015550505050505050505050505050565b60016020528060005260406000206000915090508060000180546114af90612289565b80601f01602080910402602001604051908101604052809291908181526020018280546114db90612289565b80156115285780601f106114fd57610100808354040283529160200191611528565b820191906000526020600020905b81548152906001019060200180831161150b57829003601f168201915b50505050509080600101805461153d90612289565b80601f016020809104026020016040519081016040528092919081815260200182805461156990612289565b80156115b65780601f1061158b576101008083540402835291602001916115b6565b820191906000526020600020905b81548152906001019060200180831161159957829003601f168201915b5050505050908060020180546115cb90612289565b80601f01602080910402602001604051908101604052809291908181526020018280546115f790612289565b80156116445780601f1061161957610100808354040283529160200191611644565b820191906000526020600020905b81548152906001019060200180831161162757829003601f168201915b5050505050905083565b604051806101400160405280606081526020016060815260200160608152602001606081526020016060815260200160608152602001606081526020016000815260200160008152602001600081525090565b8280548282559060005260206000209081019282156116e9579160200282015b828111156116e85782518290816116d89190612466565b50916020019190600101906116c1565b5b5090506116f69190611747565b5090565b828054828255906000526020600020908101928215611736579160200282015b8281111561173557825182559160200191906001019061171a565b5b509050611743919061176b565b5090565b5b80821115611767576000818161175e9190611788565b50600101611748565b5090565b5b8082111561178457600081600090555060010161176c565b5090565b50805461179490612289565b6000825580601f106117a657506117c5565b601f0160209004906000526020600020908101906117c4919061176b565b5b50565b6000604051905090565b600080fd5b600080fd5b600080fd5b600080fd5b6000601f19601f8301169050919050565b7f4e487b7100000000000000000000000000000000000000000000000000000000600052604160045260246000fd5b61182f826117e6565b810181811067ffffffffffffffff8211171561184e5761184d6117f7565b5b80604052505050565b60006118616117c8565b905061186d8282611826565b919050565b600067ffffffffffffffff82111561188d5761188c6117f7565b5b611896826117e6565b9050602081019050919050565b82818337600083830152505050565b60006118c56118c084611872565b611857565b9050828152602081018484840111156118e1576118e06117e1565b5b6118ec8482856118a3565b509392505050565b600082601f830112611909576119086117dc565b5b81356119198482602086016118b2565b91505092915050565b60008060408385031215611939576119386117d2565b5b600083013567ffffffffffffffff811115611957576119566117d7565b5b611963858286016118f4565b925050602083013567ffffffffffffffff811115611984576119836117d7565b5b611990858286016118f4565b9150509250929050565b600073ffffffffffffffffffffffffffffffffffffffff82169050919050565b60006119c58261199a565b9050919050565b6119d5816119ba565b81146119e057600080fd5b50565b6000813590506119f2816119cc565b92915050565b600060208284031215611a0e57611a0d6117d2565b5b6000611a1c848285016119e3565b91505092915050565b600081519050919050565b600082825260208201905092915050565b60005b83811015611a5f578082015181840152602081019050611a44565b60008484015250505050565b6000611a7682611a25565b611a808185611a30565b9350611a90818560208601611a41565b611a99816117e6565b840191505092915050565b60006060820190508181036000830152611abe8186611a6b565b90508181036020830152611ad28185611a6b565b90508181036040830152611ae68184611a6b565b9050949350505050565b6000819050919050565b611b0381611af0565b82525050565b6000602082019050611b1e6000830184611afa565b92915050565b611b2d81611af0565b8114611b3857600080fd5b50565b600081359050611b4a81611b24565b92915050565b600060208284031215611b6657611b656117d2565b5b6000611b7484828501611b3b565b91505092915050565b6000610100820190508181036000830152611b98818b611a6b565b90508181036020830152611bac818a611a6b565b90508181036040830152611bc08189611a6b565b90508181036060830152611bd48188611a6b565b90508181036080830152611be88187611a6b565b9050611bf760a0830186611afa565b611c0460c0830185611afa565b611c1160e0830184611afa565b9998505050505050505050565b600082825260208201905092915050565b6000611c3a82611a25565b611c448185611c1e565b9350611c54818560208601611a41565b611c5d816117e6565b840191505092915050565b600081519050919050565b600082825260208201905092915050565b6000819050602082019050919050565b6000611ca08383611c2f565b905092915050565b6000602082019050919050565b6000611cc082611c68565b611cca8185611c73565b935083602082028501611cdc85611c84565b8060005b85811015611d185784840389528151611cf98582611c94565b9450611d0483611ca8565b925060208a01995050600181019050611ce0565b50829750879550505050505092915050565b600081519050919050565b600082825260208201905092915050565b6000819050602082019050919050565b611d5f81611af0565b82525050565b6000611d718383611d56565b60208301905092915050565b6000602082019050919050565b6000611d9582611d2a565b611d9f8185611d35565b9350611daa83611d46565b8060005b83811015611ddb578151611dc28882611d65565b9750611dcd83611d7d565b925050600181019050611dae565b5085935050505092915050565b6000610140830160008301518482036000860152611e068282611c2f565b91505060208301518482036020860152611e208282611cb5565b91505060408301518482036040860152611e3a8282611d8a565b91505060608301518482036060860152611e548282611c2f565b91505060808301518482036080860152611e6e8282611c2f565b91505060a083015184820360a0860152611e888282611c2f565b91505060c083015184820360c0860152611ea28282611c2f565b91505060e0830151611eb760e0860182611d56565b50610100830151611ecc610100860182611d56565b50610120830151611ee1610120860182611d56565b508091505092915050565b60006020820190508181036000830152611f068184611de8565b905092915050565b600067ffffffffffffffff821115611f2957611f286117f7565b5b602082029050602081019050919050565b600080fd5b6000611f52611f4d84611f0e565b611857565b90508083825260208201905060208402830185811115611f7557611f74611f3a565b5b835b81811015611fbc57803567ffffffffffffffff811115611f9a57611f996117dc565b5b808601611fa789826118f4565b85526020850194505050602081019050611f77565b5050509392505050565b600082601f830112611fdb57611fda6117dc565b5b8135611feb848260208601611f3f565b91505092915050565b600067ffffffffffffffff82111561200f5761200e6117f7565b5b602082029050602081019050919050565b600061203361202e84611ff4565b611857565b9050808382526020820190506020840283018581111561205657612055611f3a565b5b835b8181101561207f578061206b8882611b3b565b845260208401935050602081019050612058565b5050509392505050565b600082601f83011261209e5761209d6117dc565b5b81356120ae848260208601612020565b91505092915050565b6000806000806000806000806000806101408b8d0312156120db576120da6117d2565b5b60008b013567ffffffffffffffff8111156120f9576120f86117d7565b5b6121058d828e016118f4565b9a505060208b013567ffffffffffffffff811115612126576121256117d7565b5b6121328d828e01611fc6565b99505060408b013567ffffffffffffffff811115612153576121526117d7565b5b61215f8d828e01612089565b98505060608b013567ffffffffffffffff8111156121805761217f6117d7565b5b61218c8d828e016118f4565b97505060808b013567ffffffffffffffff8111156121ad576121ac6117d7565b5b6121b98d828e016118f4565b96505060a08b013567ffffffffffffffff8111156121da576121d96117d7565b5b6121e68d828e016118f4565b95505060c08b013567ffffffffffffffff811115612207576122066117d7565b5b6122138d828e016118f4565b94505060e06122248d828e01611b3b565b9350506101006122368d828e01611b3b565b9250506101206122488d828e01611b3b565b9150509295989b9194979a5092959850565b7f4e487b7100000000000000000000000000000000000000000000000000000000600052602260045260246000fd5b600060028204905060018216806122a157607f821691505b6020821081036122b4576122b361225a565b5b50919050565b60008190508160005260206000209050919050565b60006020601f8301049050919050565b600082821b905092915050565b60006008830261231c7fffffffffffffffffffffffffffffffffffffffffffffffffffffffffffffffff826122df565b61232686836122df565b95508019841693508086168417925050509392505050565b6000819050919050565b600061236361235e61235984611af0565b61233e565b611af0565b9050919050565b6000819050919050565b61237d83612348565b6123916123898261236a565b8484546122ec565b825550505050565b600090565b6123a6612399565b6123b1818484612374565b505050565b5b818110156123d5576123ca60008261239e565b6001810190506123b7565b5050565b601f82111561241a576123eb816122ba565b6123f4846122cf565b81016020851015612403578190505b61241761240f856122cf565b8301826123b6565b50505b505050565b600082821c905092915050565b600061243d6000198460080261241f565b1980831691505092915050565b6000612456838361242c565b9150826002028217905092915050565b61246f82611a25565b67ffffffffffffffff811115612488576124876117f7565b5b6124928254612289565b61249d8282856123d9565b600060209050601f8311600181146124d057600084156124be578287015190505b6124c8858261244a565b865550612530565b601f1984166124de866122ba565b60005b82811015612506578489015182556001820191506020850194506020810190506124e1565b86831015612523578489015161251f601f89168261242c565b8355505b6001600288020188555050505b505050505050565b7f4e487b7100000000000000000000000000000000000000000000000000000000600052603260045260246000fd5b7f4e487b7100000000000000000000000000000000000000000000000000000000600052601160045260246000fd5b60006125a182611af0565b91507fffffffffffffffffffffffffffffffffffffffffffffffffffffffffffffffff82036125d3576125d2612567565b5b60018201905091905056fea26469706673582212203a3562a4faa06998731814814e0ee377c9727f638fdc5e3e3d2e9ceeb45a5f8064736f6c63430008130033",
  "linkReferences": {},
  "deployedLinkReferences": {}
}