{
  "_format": "hh-sol-artifact-1",
  "contractName": "Crusader",
  "sourceName": "contracts/Crusader.sol",
  "abi": [
    {
      "inputs": [
        {
          "internalType": "address",
          "name": "",
          "type": "address"
        }
      ],
      "name": "analysts",
      "outputs": [
        {
          "internalType": "string",
          "name": "username",
          "type": "string"
        },
        {
          "internalType": "string",
          "name": "password",
          "type": "string"
        },
        {
          "internalType": "string",
          "name": "entity",
          "type": "string"
        }
      ],
      "stateMutability": "view",
      "type": "function"
    },
    {
      "inputs": [
        {
          "internalType": "address",
          "name": "_address",
          "type": "address"
        },
        {
          "internalType": "string",
          "name": "_username",
          "type": "string"
        },
        {
          "internalType": "string",
          "name": "_password",
          "type": "string"
        }
      ],
      "name": "authenticate",
      "outputs": [
        {
          "internalType": "bool",
          "name": "",
          "type": "bool"
        }
      ],
      "stateMutability": "view",
      "type": "function"
    },
    {
      "inputs": [],
      "name": "getContractBalance",
      "outputs": [
        {
          "internalType": "uint256",
          "name": "",
          "type": "uint256"
        }
      ],
      "stateMutability": "view",
      "type": "function"
    },
    {
      "inputs": [
        {
          "internalType": "address",
          "name": "",
          "type": "address"
        }
      ],
      "name": "manufacturers",
      "outputs": [
        {
          "internalType": "string",
          "name": "username",
          "type": "string"
        },
        {
          "internalType": "string",
          "name": "password",
          "type": "string"
        },
        {
          "internalType": "string",
          "name": "entity",
          "type": "string"
        }
      ],
      "stateMutability": "view",
      "type": "function"
    },
    {
      "inputs": [
        {
          "internalType": "string",
          "name": "_username",
          "type": "string"
        },
        {
          "internalType": "string",
          "name": "_password",
          "type": "string"
        }
      ],
      "name": "registerAnalyst",
      "outputs": [],
      "stateMutability": "nonpayable",
      "type": "function"
    },
    {
      "inputs": [
        {
          "internalType": "string",
          "name": "_username",
          "type": "string"
        },
        {
          "internalType": "string",
          "name": "_password",
          "type": "string"
        }
      ],
      "name": "registerCommissioner",
      "outputs": [],
      "stateMutability": "nonpayable",
      "type": "function"
    },
    {
      "inputs": [
        {
          "internalType": "string",
          "name": "_username",
          "type": "string"
        },
        {
          "internalType": "string",
          "name": "_password",
          "type": "string"
        }
      ],
      "name": "registerManufacturer",
      "outputs": [],
      "stateMutability": "nonpayable",
      "type": "function"
    },
    {
      "inputs": [
        {
          "internalType": "string",
          "name": "_username",
          "type": "string"
        },
        {
          "internalType": "string",
          "name": "_password",
          "type": "string"
        }
      ],
      "name": "registerSafetyOfficer",
      "outputs": [],
      "stateMutability": "nonpayable",
      "type": "function"
    },
    {
      "inputs": [
        {
          "internalType": "address",
          "name": "",
          "type": "address"
        }
      ],
      "name": "safetycommissioners",
      "outputs": [
        {
          "internalType": "string",
          "name": "username",
          "type": "string"
        },
        {
          "internalType": "string",
          "name": "password",
          "type": "string"
        },
        {
          "internalType": "string",
          "name": "entity",
          "type": "string"
        }
      ],
      "stateMutability": "view",
      "type": "function"
    },
    {
      "inputs": [
        {
          "internalType": "address",
          "name": "",
          "type": "address"
        }
      ],
      "name": "safetyofficers",
      "outputs": [
        {
          "internalType": "string",
          "name": "username",
          "type": "string"
        },
        {
          "internalType": "string",
          "name": "password",
          "type": "string"
        },
        {
          "internalType": "string",
          "name": "entity",
          "type": "string"
        }
      ],
      "stateMutability": "view",
      "type": "function"
    }
  ],
  "bytecode": "0x608060405234801561001057600080fd5b50612224806100206000396000f3fe608060405234801561001057600080fd5b506004361061009e5760003560e01c80636f9fb98a116100665780636f9fb98a1461015b578063992c086114610179578063b20d4c51146101ab578063d2e07568146101c7578063fa720d86146101f75761009e565b806319e75151146100a35780631e608f46146100bf578063246681e6146100db57806330b15caa1461010d5780636b5eb09c14610129575b600080fd5b6100bd60048036038101906100b89190611a76565b610229565b005b6100d960048036038101906100d49190611a76565b610301565b005b6100f560048036038101906100f09190611b4c565b6103d9565b60405161010493929190611bf8565b60405180910390f35b61012760048036038101906101229190611a76565b61059b565b005b610143600480360381019061013e9190611b4c565b610672565b60405161015293929190611bf8565b60405180910390f35b610163610834565b6040516101709190611c5d565b60405180910390f35b610193600480360381019061018e9190611b4c565b61083c565b6040516101a293929190611bf8565b60405180910390f35b6101c560048036038101906101c09190611a76565b6109fe565b005b6101e160048036038101906101dc9190611c78565b610ad6565b6040516101ee9190611d1e565b60405180910390f35b610211600480360381019061020c9190611b4c565b61175a565b60405161022093929190611bf8565b60405180910390f35b60405180606001604052808381526020018281526020016040518060400160405280600781526020017f616e616c79737400000000000000000000000000000000000000000000000000815250815250600260003373ffffffffffffffffffffffffffffffffffffffff1673ffffffffffffffffffffffffffffffffffffffff16815260200190815260200160002060008201518160000190816102cd9190611f45565b5060208201518160010190816102e39190611f45565b5060408201518160020190816102f99190611f45565b509050505050565b60405180606001604052808381526020018281526020016040518060400160405280600d81526020017f7361666574796f66666963657200000000000000000000000000000000000000815250815250600160003373ffffffffffffffffffffffffffffffffffffffff1673ffffffffffffffffffffffffffffffffffffffff16815260200190815260200160002060008201518160000190816103a59190611f45565b5060208201518160010190816103bb9190611f45565b5060408201518160020190816103d19190611f45565b509050505050565b60026020528060005260406000206000915090508060000180546103fc90611d68565b80601f016020809104026020016040519081016040528092919081815260200182805461042890611d68565b80156104755780601f1061044a57610100808354040283529160200191610475565b820191906000526020600020905b81548152906001019060200180831161045857829003601f168201915b50505050509080600101805461048a90611d68565b80601f01602080910402602001604051908101604052809291908181526020018280546104b690611d68565b80156105035780601f106104d857610100808354040283529160200191610503565b820191906000526020600020905b8154815290600101906020018083116104e657829003601f168201915b50505050509080600201805461051890611d68565b80601f016020809104026020016040519081016040528092919081815260200182805461054490611d68565b80156105915780601f1061056657610100808354040283529160200191610591565b820191906000526020600020905b81548152906001019060200180831161057457829003601f168201915b5050505050905083565b60405180606001604052808381526020018281526020016040518060400160405280600c81526020017f6d616e75666163747572657200000000000000000000000000000000000000008152508152506000803373ffffffffffffffffffffffffffffffffffffffff1673ffffffffffffffffffffffffffffffffffffffff168152602001908152602001600020600082015181600001908161063e9190611f45565b5060208201518160010190816106549190611f45565b50604082015181600201908161066a9190611f45565b509050505050565b600060205280600052604060002060009150905080600001805461069590611d68565b80601f01602080910402602001604051908101604052809291908181526020018280546106c190611d68565b801561070e5780601f106106e35761010080835404028352916020019161070e565b820191906000526020600020905b8154815290600101906020018083116106f157829003601f168201915b50505050509080600101805461072390611d68565b80601f016020809104026020016040519081016040528092919081815260200182805461074f90611d68565b801561079c5780601f106107715761010080835404028352916020019161079c565b820191906000526020600020905b81548152906001019060200180831161077f57829003601f168201915b5050505050908060020180546107b190611d68565b80601f01602080910402602001604051908101604052809291908181526020018280546107dd90611d68565b801561082a5780601f106107ff5761010080835404028352916020019161082a565b820191906000526020600020905b81548152906001019060200180831161080d57829003601f168201915b5050505050905083565b600047905090565b600360205280600052604060002060009150905080600001805461085f90611d68565b80601f016020809104026020016040519081016040528092919081815260200182805461088b90611d68565b80156108d85780601f106108ad576101008083540402835291602001916108d8565b820191906000526020600020905b8154815290600101906020018083116108bb57829003601f168201915b5050505050908060010180546108ed90611d68565b80601f016020809104026020016040519081016040528092919081815260200182805461091990611d68565b80156109665780601f1061093b57610100808354040283529160200191610966565b820191906000526020600020905b81548152906001019060200180831161094957829003601f168201915b50505050509080600201805461097b90611d68565b80601f01602080910402602001604051908101604052809291908181526020018280546109a790611d68565b80156109f45780601f106109c9576101008083540402835291602001916109f4565b820191906000526020600020905b8154815290600101906020018083116109d757829003601f168201915b5050505050905083565b60405180606001604052808381526020018281526020016040518060400160405280601281526020017f736166657479636f6d6d697373696f6e65720000000000000000000000000000815250815250600360003373ffffffffffffffffffffffffffffffffffffffff1673ffffffffffffffffffffffffffffffffffffffff1681526020019081526020016000206000820151816000019081610aa29190611f45565b506020820151816001019081610ab89190611f45565b506040820151816002019081610ace9190611f45565b509050505050565b6000806000808673ffffffffffffffffffffffffffffffffffffffff1673ffffffffffffffffffffffffffffffffffffffff168152602001908152602001600020604051806060016040529081600082018054610b3290611d68565b80601f0160208091040260200160405190810160405280929190818152602001828054610b5e90611d68565b8015610bab5780601f10610b8057610100808354040283529160200191610bab565b820191906000526020600020905b815481529060010190602001808311610b8e57829003601f168201915b50505050508152602001600182018054610bc490611d68565b80601f0160208091040260200160405190810160405280929190818152602001828054610bf090611d68565b8015610c3d5780601f10610c1257610100808354040283529160200191610c3d565b820191906000526020600020905b815481529060010190602001808311610c2057829003601f168201915b50505050508152602001600282018054610c5690611d68565b80601f0160208091040260200160405190810160405280929190818152602001828054610c8290611d68565b8015610ccf5780601f10610ca457610100808354040283529160200191610ccf565b820191906000526020600020905b815481529060010190602001808311610cb257829003601f168201915b50505050508152505090506000600360008773ffffffffffffffffffffffffffffffffffffffff1673ffffffffffffffffffffffffffffffffffffffff168152602001908152602001600020604051806060016040529081600082018054610d3690611d68565b80601f0160208091040260200160405190810160405280929190818152602001828054610d6290611d68565b8015610daf5780601f10610d8457610100808354040283529160200191610daf565b820191906000526020600020905b815481529060010190602001808311610d9257829003601f168201915b50505050508152602001600182018054610dc890611d68565b80601f0160208091040260200160405190810160405280929190818152602001828054610df490611d68565b8015610e415780601f10610e1657610100808354040283529160200191610e41565b820191906000526020600020905b815481529060010190602001808311610e2457829003601f168201915b50505050508152602001600282018054610e5a90611d68565b80601f0160208091040260200160405190810160405280929190818152602001828054610e8690611d68565b8015610ed35780601f10610ea857610100808354040283529160200191610ed3565b820191906000526020600020905b815481529060010190602001808311610eb657829003601f168201915b50505050508152505090506000600160008873ffffffffffffffffffffffffffffffffffffffff1673ffffffffffffffffffffffffffffffffffffffff168152602001908152602001600020604051806060016040529081600082018054610f3a90611d68565b80601f0160208091040260200160405190810160405280929190818152602001828054610f6690611d68565b8015610fb35780601f10610f8857610100808354040283529160200191610fb3565b820191906000526020600020905b815481529060010190602001808311610f9657829003601f168201915b50505050508152602001600182018054610fcc90611d68565b80601f0160208091040260200160405190810160405280929190818152602001828054610ff890611d68565b80156110455780601f1061101a57610100808354040283529160200191611045565b820191906000526020600020905b81548152906001019060200180831161102857829003601f168201915b5050505050815260200160028201805461105e90611d68565b80601f016020809104026020016040519081016040528092919081815260200182805461108a90611d68565b80156110d75780601f106110ac576101008083540402835291602001916110d7565b820191906000526020600020905b8154815290600101906020018083116110ba57829003601f168201915b50505050508152505090506000600260008973ffffffffffffffffffffffffffffffffffffffff1673ffffffffffffffffffffffffffffffffffffffff16815260200190815260200160002060405180606001604052908160008201805461113e90611d68565b80601f016020809104026020016040519081016040528092919081815260200182805461116a90611d68565b80156111b75780601f1061118c576101008083540402835291602001916111b7565b820191906000526020600020905b81548152906001019060200180831161119a57829003601f168201915b505050505081526020016001820180546111d090611d68565b80601f01602080910402602001604051908101604052809291908181526020018280546111fc90611d68565b80156112495780601f1061121e57610100808354040283529160200191611249565b820191906000526020600020905b81548152906001019060200180831161122c57829003601f168201915b5050505050815260200160028201805461126290611d68565b80601f016020809104026020016040519081016040528092919081815260200182805461128e90611d68565b80156112db5780601f106112b0576101008083540402835291602001916112db565b820191906000526020600020905b8154815290600101906020018083116112be57829003601f168201915b50505050508152505090506040516020016112f59061206e565b60405160208183030381529060405280519060200120846040015160405160200161132091906120b4565b6040516020818303038152906040528051906020012014801561139257508660405160200161134f91906120b4565b60405160208183030381529060405280519060200120846000015160405160200161137a91906120b4565b60405160208183030381529060405280519060200120145b80156113ed5750856040516020016113aa91906120b4565b6040516020818303038152906040528051906020012084602001516040516020016113d591906120b4565b60405160208183030381529060405280519060200120145b156113ff576001945050505050611753565b60405160200161140e90612117565b60405160208183030381529060405280519060200120836040015160405160200161143991906120b4565b604051602081830303815290604052805190602001201480156114ab57508660405160200161146891906120b4565b60405160208183030381529060405280519060200120836000015160405160200161149391906120b4565b60405160208183030381529060405280519060200120145b80156115065750856040516020016114c391906120b4565b6040516020818303038152906040528051906020012083602001516040516020016114ee91906120b4565b60405160208183030381529060405280519060200120145b15611518576001945050505050611753565b60405160200161152790612178565b60405160208183030381529060405280519060200120816040015160405160200161155291906120b4565b604051602081830303815290604052805190602001201480156115c457508660405160200161158191906120b4565b6040516020818303038152906040528051906020012081600001516040516020016115ac91906120b4565b60405160208183030381529060405280519060200120145b801561161f5750856040516020016115dc91906120b4565b60405160208183030381529060405280519060200120816020015160405160200161160791906120b4565b60405160208183030381529060405280519060200120145b15611631576001945050505050611753565b604051602001611640906121d9565b60405160208183030381529060405280519060200120826040015160405160200161166b91906120b4565b604051602081830303815290604052805190602001201480156116dd57508660405160200161169a91906120b4565b6040516020818303038152906040528051906020012082600001516040516020016116c591906120b4565b60405160208183030381529060405280519060200120145b80156117385750856040516020016116f591906120b4565b60405160208183030381529060405280519060200120826020015160405160200161172091906120b4565b60405160208183030381529060405280519060200120145b1561174a576001945050505050611753565b60009450505050505b9392505050565b600160205280600052604060002060009150905080600001805461177d90611d68565b80601f01602080910402602001604051908101604052809291908181526020018280546117a990611d68565b80156117f65780601f106117cb576101008083540402835291602001916117f6565b820191906000526020600020905b8154815290600101906020018083116117d957829003601f168201915b50505050509080600101805461180b90611d68565b80601f016020809104026020016040519081016040528092919081815260200182805461183790611d68565b80156118845780601f1061185957610100808354040283529160200191611884565b820191906000526020600020905b81548152906001019060200180831161186757829003601f168201915b50505050509080600201805461189990611d68565b80601f01602080910402602001604051908101604052809291908181526020018280546118c590611d68565b80156119125780601f106118e757610100808354040283529160200191611912565b820191906000526020600020905b8154815290600101906020018083116118f557829003601f168201915b5050505050905083565b6000604051905090565b600080fd5b600080fd5b600080fd5b600080fd5b6000601f19601f8301169050919050565b7f4e487b7100000000000000000000000000000000000000000000000000000000600052604160045260246000fd5b6119838261193a565b810181811067ffffffffffffffff821117156119a2576119a161194b565b5b80604052505050565b60006119b561191c565b90506119c1828261197a565b919050565b600067ffffffffffffffff8211156119e1576119e061194b565b5b6119ea8261193a565b9050602081019050919050565b82818337600083830152505050565b6000611a19611a14846119c6565b6119ab565b905082815260208101848484011115611a3557611a34611935565b5b611a408482856119f7565b509392505050565b600082601f830112611a5d57611a5c611930565b5b8135611a6d848260208601611a06565b91505092915050565b60008060408385031215611a8d57611a8c611926565b5b600083013567ffffffffffffffff811115611aab57611aaa61192b565b5b611ab785828601611a48565b925050602083013567ffffffffffffffff811115611ad857611ad761192b565b5b611ae485828601611a48565b9150509250929050565b600073ffffffffffffffffffffffffffffffffffffffff82169050919050565b6000611b1982611aee565b9050919050565b611b2981611b0e565b8114611b3457600080fd5b50565b600081359050611b4681611b20565b92915050565b600060208284031215611b6257611b61611926565b5b6000611b7084828501611b37565b91505092915050565b600081519050919050565b600082825260208201905092915050565b60005b83811015611bb3578082015181840152602081019050611b98565b60008484015250505050565b6000611bca82611b79565b611bd48185611b84565b9350611be4818560208601611b95565b611bed8161193a565b840191505092915050565b60006060820190508181036000830152611c128186611bbf565b90508181036020830152611c268185611bbf565b90508181036040830152611c3a8184611bbf565b9050949350505050565b6000819050919050565b611c5781611c44565b82525050565b6000602082019050611c726000830184611c4e565b92915050565b600080600060608486031215611c9157611c90611926565b5b6000611c9f86828701611b37565b935050602084013567ffffffffffffffff811115611cc057611cbf61192b565b5b611ccc86828701611a48565b925050604084013567ffffffffffffffff811115611ced57611cec61192b565b5b611cf986828701611a48565b9150509250925092565b60008115159050919050565b611d1881611d03565b82525050565b6000602082019050611d336000830184611d0f565b92915050565b7f4e487b7100000000000000000000000000000000000000000000000000000000600052602260045260246000fd5b60006002820490506001821680611d8057607f821691505b602082108103611d9357611d92611d39565b5b50919050565b60008190508160005260206000209050919050565b60006020601f8301049050919050565b600082821b905092915050565b600060088302611dfb7fffffffffffffffffffffffffffffffffffffffffffffffffffffffffffffffff82611dbe565b611e058683611dbe565b95508019841693508086168417925050509392505050565b6000819050919050565b6000611e42611e3d611e3884611c44565b611e1d565b611c44565b9050919050565b6000819050919050565b611e5c83611e27565b611e70611e6882611e49565b848454611dcb565b825550505050565b600090565b611e85611e78565b611e90818484611e53565b505050565b5b81811015611eb457611ea9600082611e7d565b600181019050611e96565b5050565b601f821115611ef957611eca81611d99565b611ed384611dae565b81016020851015611ee2578190505b611ef6611eee85611dae565b830182611e95565b50505b505050565b600082821c905092915050565b6000611f1c60001984600802611efe565b1980831691505092915050565b6000611f358383611f0b565b9150826002028217905092915050565b611f4e82611b79565b67ffffffffffffffff811115611f6757611f6661194b565b5b611f718254611d68565b611f7c828285611eb8565b600060209050601f831160018114611faf5760008415611f9d578287015190505b611fa78582611f29565b86555061200f565b601f198416611fbd86611d99565b60005b82811015611fe557848901518255600182019150602085019450602081019050611fc0565b868310156120025784890151611ffe601f891682611f0b565b8355505b6001600288020188555050505b505050505050565b600081905092915050565b7f6d616e7566616374757265720000000000000000000000000000000000000000600082015250565b6000612058600c83612017565b915061206382612022565b600c82019050919050565b60006120798261204b565b9150819050919050565b600061208e82611b79565b6120988185612017565b93506120a8818560208601611b95565b80840191505092915050565b60006120c08284612083565b915081905092915050565b7f736166657479636f6d6d697373696f6e65720000000000000000000000000000600082015250565b6000612101601283612017565b915061210c826120cb565b601282019050919050565b6000612122826120f4565b9150819050919050565b7f616e616c79737400000000000000000000000000000000000000000000000000600082015250565b6000612162600783612017565b915061216d8261212c565b600782019050919050565b600061218382612155565b9150819050919050565b7f7361666574796f66666963657200000000000000000000000000000000000000600082015250565b60006121c3600d83612017565b91506121ce8261218d565b600d82019050919050565b60006121e4826121b6565b915081905091905056fea264697066735822122045d951a5340f929ebc99e888882917bad70f294cfc9c751ee8b5b96ce5a163df64736f6c63430008130033",
  "linkReferences": {},
  "deployedLinkReferences": {}
}