{
  "_format": "hh-sol-artifact-1",
  "contractName": "Crusader",
  "sourceName": "contracts/Crusader.sol",
  "abi": [
    {
      "inputs": [
        {
          "internalType": "uint256",
          "name": "_id",
          "type": "uint256"
        },
        {
          "internalType": "string",
          "name": "_name",
          "type": "string"
        },
        {
          "internalType": "string[]",
          "name": "_ingredients",
          "type": "string[]"
        },
        {
          "internalType": "uint256[]",
          "name": "_quantity",
          "type": "uint256[]"
        },
        {
          "internalType": "string",
          "name": "_intendedUse",
          "type": "string"
        },
        {
          "internalType": "string",
          "name": "_functionalUse",
          "type": "string"
        },
        {
          "internalType": "string",
          "name": "_manufacturingProcess",
          "type": "string"
        },
        {
          "internalType": "string",
          "name": "_nutritionalBenefits",
          "type": "string"
        },
        {
          "internalType": "uint256",
          "name": "_fatPercentage",
          "type": "uint256"
        },
        {
          "internalType": "uint256",
          "name": "_proteinPercentage",
          "type": "uint256"
        },
        {
          "internalType": "uint256",
          "name": "_carbohydratePercentage",
          "type": "uint256"
        }
      ],
      "name": "addProduct",
      "outputs": [],
      "stateMutability": "nonpayable",
      "type": "function"
    },
    {
      "inputs": [
        {
          "internalType": "address",
          "name": "",
          "type": "address"
        }
      ],
      "name": "analysts",
      "outputs": [
        {
          "internalType": "string",
          "name": "username",
          "type": "string"
        },
        {
          "internalType": "string",
          "name": "password",
          "type": "string"
        },
        {
          "internalType": "string",
          "name": "entity",
          "type": "string"
        }
      ],
      "stateMutability": "view",
      "type": "function"
    },
    {
      "inputs": [
        {
          "internalType": "address",
          "name": "",
          "type": "address"
        },
        {
          "internalType": "uint256",
          "name": "",
          "type": "uint256"
        }
      ],
      "name": "foodProducts",
      "outputs": [
        {
          "internalType": "uint256",
          "name": "id",
          "type": "uint256"
        },
        {
          "internalType": "string",
          "name": "name",
          "type": "string"
        },
        {
          "internalType": "string",
          "name": "intendedUse",
          "type": "string"
        },
        {
          "internalType": "string",
          "name": "functionalUse",
          "type": "string"
        },
        {
          "internalType": "string",
          "name": "manufacturingProcess",
          "type": "string"
        },
        {
          "internalType": "string",
          "name": "nutritionalBenefits",
          "type": "string"
        },
        {
          "internalType": "uint256",
          "name": "fatPercentage",
          "type": "uint256"
        },
        {
          "internalType": "uint256",
          "name": "proteinPercentage",
          "type": "uint256"
        },
        {
          "internalType": "uint256",
          "name": "carbohydratePercentage",
          "type": "uint256"
        }
      ],
      "stateMutability": "view",
      "type": "function"
    },
    {
      "inputs": [],
      "name": "getAllProducts",
      "outputs": [
        {
          "components": [
            {
              "internalType": "uint256",
              "name": "id",
              "type": "uint256"
            },
            {
              "internalType": "string",
              "name": "name",
              "type": "string"
            },
            {
              "internalType": "string[]",
              "name": "ingredients",
              "type": "string[]"
            },
            {
              "internalType": "uint256[]",
              "name": "quantity",
              "type": "uint256[]"
            },
            {
              "internalType": "string",
              "name": "intendedUse",
              "type": "string"
            },
            {
              "internalType": "string",
              "name": "functionalUse",
              "type": "string"
            },
            {
              "internalType": "string",
              "name": "manufacturingProcess",
              "type": "string"
            },
            {
              "internalType": "string",
              "name": "nutritionalBenefits",
              "type": "string"
            },
            {
              "internalType": "uint256",
              "name": "fatPercentage",
              "type": "uint256"
            },
            {
              "internalType": "uint256",
              "name": "proteinPercentage",
              "type": "uint256"
            },
            {
              "internalType": "uint256",
              "name": "carbohydratePercentage",
              "type": "uint256"
            }
          ],
          "internalType": "struct Crusader.ProductDetails[]",
          "name": "",
          "type": "tuple[]"
        }
      ],
      "stateMutability": "view",
      "type": "function"
    },
    {
      "inputs": [
        {
          "internalType": "uint256",
          "name": "_id",
          "type": "uint256"
        }
      ],
      "name": "getIdtoTxHash",
      "outputs": [
        {
          "internalType": "bytes32",
          "name": "",
          "type": "bytes32"
        }
      ],
      "stateMutability": "view",
      "type": "function"
    },
    {
      "inputs": [
        {
          "internalType": "uint256",
          "name": "_id",
          "type": "uint256"
        }
      ],
      "name": "getProductById",
      "outputs": [
        {
          "components": [
            {
              "internalType": "uint256",
              "name": "id",
              "type": "uint256"
            },
            {
              "internalType": "string",
              "name": "name",
              "type": "string"
            },
            {
              "internalType": "string[]",
              "name": "ingredients",
              "type": "string[]"
            },
            {
              "internalType": "uint256[]",
              "name": "quantity",
              "type": "uint256[]"
            },
            {
              "internalType": "string",
              "name": "intendedUse",
              "type": "string"
            },
            {
              "internalType": "string",
              "name": "functionalUse",
              "type": "string"
            },
            {
              "internalType": "string",
              "name": "manufacturingProcess",
              "type": "string"
            },
            {
              "internalType": "string",
              "name": "nutritionalBenefits",
              "type": "string"
            },
            {
              "internalType": "uint256",
              "name": "fatPercentage",
              "type": "uint256"
            },
            {
              "internalType": "uint256",
              "name": "proteinPercentage",
              "type": "uint256"
            },
            {
              "internalType": "uint256",
              "name": "carbohydratePercentage",
              "type": "uint256"
            }
          ],
          "internalType": "struct Crusader.ProductDetails",
          "name": "",
          "type": "tuple"
        }
      ],
      "stateMutability": "view",
      "type": "function"
    },
    {
      "inputs": [
        {
          "internalType": "uint256",
          "name": "",
          "type": "uint256"
        }
      ],
      "name": "idToTxHash",
      "outputs": [
        {
          "internalType": "bytes32",
          "name": "",
          "type": "bytes32"
        }
      ],
      "stateMutability": "view",
      "type": "function"
    },
    {
      "inputs": [
        {
          "internalType": "address",
          "name": "",
          "type": "address"
        }
      ],
      "name": "manufacturers",
      "outputs": [
        {
          "internalType": "string",
          "name": "username",
          "type": "string"
        },
        {
          "internalType": "string",
          "name": "password",
          "type": "string"
        },
        {
          "internalType": "string",
          "name": "entity",
          "type": "string"
        }
      ],
      "stateMutability": "view",
      "type": "function"
    },
    {
      "inputs": [
        {
          "internalType": "uint256",
          "name": "",
          "type": "uint256"
        }
      ],
      "name": "productsIdMapping",
      "outputs": [
        {
          "internalType": "uint256",
          "name": "id",
          "type": "uint256"
        },
        {
          "internalType": "string",
          "name": "name",
          "type": "string"
        },
        {
          "internalType": "string",
          "name": "intendedUse",
          "type": "string"
        },
        {
          "internalType": "string",
          "name": "functionalUse",
          "type": "string"
        },
        {
          "internalType": "string",
          "name": "manufacturingProcess",
          "type": "string"
        },
        {
          "internalType": "string",
          "name": "nutritionalBenefits",
          "type": "string"
        },
        {
          "internalType": "uint256",
          "name": "fatPercentage",
          "type": "uint256"
        },
        {
          "internalType": "uint256",
          "name": "proteinPercentage",
          "type": "uint256"
        },
        {
          "internalType": "uint256",
          "name": "carbohydratePercentage",
          "type": "uint256"
        }
      ],
      "stateMutability": "view",
      "type": "function"
    },
    {
      "inputs": [
        {
          "internalType": "string",
          "name": "_username",
          "type": "string"
        },
        {
          "internalType": "string",
          "name": "_password",
          "type": "string"
        }
      ],
      "name": "registerAnalyst",
      "outputs": [],
      "stateMutability": "nonpayable",
      "type": "function"
    },
    {
      "inputs": [
        {
          "internalType": "string",
          "name": "_username",
          "type": "string"
        },
        {
          "internalType": "string",
          "name": "_password",
          "type": "string"
        }
      ],
      "name": "registerCommissioner",
      "outputs": [],
      "stateMutability": "nonpayable",
      "type": "function"
    },
    {
      "inputs": [
        {
          "internalType": "string",
          "name": "_username",
          "type": "string"
        },
        {
          "internalType": "string",
          "name": "_password",
          "type": "string"
        }
      ],
      "name": "registerManufacturer",
      "outputs": [],
      "stateMutability": "nonpayable",
      "type": "function"
    },
    {
      "inputs": [
        {
          "internalType": "string",
          "name": "_username",
          "type": "string"
        },
        {
          "internalType": "string",
          "name": "_password",
          "type": "string"
        }
      ],
      "name": "registerSafetyOfficer",
      "outputs": [],
      "stateMutability": "nonpayable",
      "type": "function"
    },
    {
      "inputs": [
        {
          "internalType": "address",
          "name": "",
          "type": "address"
        }
      ],
      "name": "safetycommissioners",
      "outputs": [
        {
          "internalType": "string",
          "name": "username",
          "type": "string"
        },
        {
          "internalType": "string",
          "name": "password",
          "type": "string"
        },
        {
          "internalType": "string",
          "name": "entity",
          "type": "string"
        }
      ],
      "stateMutability": "view",
      "type": "function"
    },
    {
      "inputs": [
        {
          "internalType": "address",
          "name": "",
          "type": "address"
        }
      ],
      "name": "safetyofficers",
      "outputs": [
        {
          "internalType": "string",
          "name": "username",
          "type": "string"
        },
        {
          "internalType": "string",
          "name": "password",
          "type": "string"
        },
        {
          "internalType": "string",
          "name": "entity",
          "type": "string"
        }
      ],
      "stateMutability": "view",
      "type": "function"
    }
  ],
  "bytecode": "0x608060405234801561001057600080fd5b50613259806100206000396000f3fe608060405234801561001057600080fd5b50600436106100f55760003560e01c8063600f223d11610097578063c277a55011610066578063c277a550146102be578063c50b726f146102da578063c72c69211461030a578063fa720d861461033a576100f5565b8063600f223d146102065780636b5eb09c1461023e578063992c086114610270578063b20d4c51146102a2576100f5565b80631e608f46116100d35780631e608f461461016c578063246681e61461018857806330b15caa146101ba5780633f70c2b4146101d6576100f5565b806302ee3a52146100fa57806305300de21461011857806319e7515114610150575b600080fd5b61010261036c565b60405161010f9190612584565b60405180910390f35b610132600480360381019061012d91906125e6565b61083c565b6040516101479998979695949392919061266c565b60405180910390f35b61016a60048036038101906101659190612851565b610b32565b005b61018660048036038101906101819190612851565b610c0a565b005b6101a2600480360381019061019d9190612927565b610ce2565b6040516101b193929190612954565b60405180910390f35b6101d460048036038101906101cf9190612851565b610ea4565b005b6101f060048036038101906101eb91906125e6565b610f7b565b6040516101fd9190612ab9565b60405180910390f35b610220600480360381019061021b9190612adb565b6113dc565b6040516102359998979695949392919061266c565b60405180910390f35b61025860048036038101906102539190612927565b6116ef565b60405161026793929190612954565b60405180910390f35b61028a60048036038101906102859190612927565b6118b1565b60405161029993929190612954565b60405180910390f35b6102bc60048036038101906102b79190612851565b611a73565b005b6102d860048036038101906102d39190612cc4565b611b4b565b005b6102f460048036038101906102ef91906125e6565b611e17565b6040516103019190612e95565b60405180910390f35b610324600480360381019061031f91906125e6565b611e34565b6040516103319190612e95565b60405180910390f35b610354600480360381019061034f9190612927565b611e4c565b60405161036393929190612954565b60405180910390f35b6060600460003373ffffffffffffffffffffffffffffffffffffffff1673ffffffffffffffffffffffffffffffffffffffff168152602001908152602001600020805480602002602001604051908101604052809291908181526020016000905b8282101561083357838290600052602060002090600b0201604051806101600160405290816000820154815260200160018201805461040b90612edf565b80601f016020809104026020016040519081016040528092919081815260200182805461043790612edf565b80156104845780601f1061045957610100808354040283529160200191610484565b820191906000526020600020905b81548152906001019060200180831161046757829003601f168201915b5050505050815260200160028201805480602002602001604051908101604052809291908181526020016000905b8282101561055e5783829060005260206000200180546104d190612edf565b80601f01602080910402602001604051908101604052809291908181526020018280546104fd90612edf565b801561054a5780601f1061051f5761010080835404028352916020019161054a565b820191906000526020600020905b81548152906001019060200180831161052d57829003601f168201915b5050505050815260200190600101906104b2565b505050508152602001600382018054806020026020016040519081016040528092919081815260200182805480156105b557602002820191906000526020600020905b8154815260200190600101908083116105a1575b505050505081526020016004820180546105ce90612edf565b80601f01602080910402602001604051908101604052809291908181526020018280546105fa90612edf565b80156106475780601f1061061c57610100808354040283529160200191610647565b820191906000526020600020905b81548152906001019060200180831161062a57829003601f168201915b5050505050815260200160058201805461066090612edf565b80601f016020809104026020016040519081016040528092919081815260200182805461068c90612edf565b80156106d95780601f106106ae576101008083540402835291602001916106d9565b820191906000526020600020905b8154815290600101906020018083116106bc57829003601f168201915b505050505081526020016006820180546106f290612edf565b80601f016020809104026020016040519081016040528092919081815260200182805461071e90612edf565b801561076b5780601f106107405761010080835404028352916020019161076b565b820191906000526020600020905b81548152906001019060200180831161074e57829003601f168201915b5050505050815260200160078201805461078490612edf565b80601f01602080910402602001604051908101604052809291908181526020018280546107b090612edf565b80156107fd5780601f106107d2576101008083540402835291602001916107fd565b820191906000526020600020905b8154815290600101906020018083116107e057829003601f168201915b505050505081526020016008820154815260200160098201548152602001600a82015481525050815260200190600101906103cd565b50505050905090565b600560205280600052604060002060009150905080600001549080600101805461086590612edf565b80601f016020809104026020016040519081016040528092919081815260200182805461089190612edf565b80156108de5780601f106108b3576101008083540402835291602001916108de565b820191906000526020600020905b8154815290600101906020018083116108c157829003601f168201915b5050505050908060040180546108f390612edf565b80601f016020809104026020016040519081016040528092919081815260200182805461091f90612edf565b801561096c5780601f106109415761010080835404028352916020019161096c565b820191906000526020600020905b81548152906001019060200180831161094f57829003601f168201915b50505050509080600501805461098190612edf565b80601f01602080910402602001604051908101604052809291908181526020018280546109ad90612edf565b80156109fa5780601f106109cf576101008083540402835291602001916109fa565b820191906000526020600020905b8154815290600101906020018083116109dd57829003601f168201915b505050505090806006018054610a0f90612edf565b80601f0160208091040260200160405190810160405280929190818152602001828054610a3b90612edf565b8015610a885780601f10610a5d57610100808354040283529160200191610a88565b820191906000526020600020905b815481529060010190602001808311610a6b57829003601f168201915b505050505090806007018054610a9d90612edf565b80601f0160208091040260200160405190810160405280929190818152602001828054610ac990612edf565b8015610b165780601f10610aeb57610100808354040283529160200191610b16565b820191906000526020600020905b815481529060010190602001808311610af957829003601f168201915b50505050509080600801549080600901549080600a0154905089565b60405180606001604052808381526020018281526020016040518060400160405280600781526020017f616e616c79737400000000000000000000000000000000000000000000000000815250815250600260003373ffffffffffffffffffffffffffffffffffffffff1673ffffffffffffffffffffffffffffffffffffffff1681526020019081526020016000206000820151816000019081610bd691906130bc565b506020820151816001019081610bec91906130bc565b506040820151816002019081610c0291906130bc565b509050505050565b60405180606001604052808381526020018281526020016040518060400160405280600d81526020017f7361666574796f66666963657200000000000000000000000000000000000000815250815250600160003373ffffffffffffffffffffffffffffffffffffffff1673ffffffffffffffffffffffffffffffffffffffff1681526020019081526020016000206000820151816000019081610cae91906130bc565b506020820151816001019081610cc491906130bc565b506040820151816002019081610cda91906130bc565b509050505050565b6002602052806000526040600020600091509050806000018054610d0590612edf565b80601f0160208091040260200160405190810160405280929190818152602001828054610d3190612edf565b8015610d7e5780601f10610d5357610100808354040283529160200191610d7e565b820191906000526020600020905b815481529060010190602001808311610d6157829003601f168201915b505050505090806001018054610d9390612edf565b80601f0160208091040260200160405190810160405280929190818152602001828054610dbf90612edf565b8015610e0c5780601f10610de157610100808354040283529160200191610e0c565b820191906000526020600020905b815481529060010190602001808311610def57829003601f168201915b505050505090806002018054610e2190612edf565b80601f0160208091040260200160405190810160405280929190818152602001828054610e4d90612edf565b8015610e9a5780601f10610e6f57610100808354040283529160200191610e9a565b820191906000526020600020905b815481529060010190602001808311610e7d57829003601f168201915b5050505050905083565b60405180606001604052808381526020018281526020016040518060400160405280600c81526020017f6d616e75666163747572657200000000000000000000000000000000000000008152508152506000803373ffffffffffffffffffffffffffffffffffffffff1673ffffffffffffffffffffffffffffffffffffffff1681526020019081526020016000206000820151816000019081610f4791906130bc565b506020820151816001019081610f5d91906130bc565b506040820151816002019081610f7391906130bc565b509050505050565b610f8361200e565b600560008381526020019081526020016000206040518061016001604052908160008201548152602001600182018054610fbc90612edf565b80601f0160208091040260200160405190810160405280929190818152602001828054610fe890612edf565b80156110355780601f1061100a57610100808354040283529160200191611035565b820191906000526020600020905b81548152906001019060200180831161101857829003601f168201915b5050505050815260200160028201805480602002602001604051908101604052809291908181526020016000905b8282101561110f57838290600052602060002001805461108290612edf565b80601f01602080910402602001604051908101604052809291908181526020018280546110ae90612edf565b80156110fb5780601f106110d0576101008083540402835291602001916110fb565b820191906000526020600020905b8154815290600101906020018083116110de57829003601f168201915b505050505081526020019060010190611063565b5050505081526020016003820180548060200260200160405190810160405280929190818152602001828054801561116657602002820191906000526020600020905b815481526020019060010190808311611152575b5050505050815260200160048201805461117f90612edf565b80601f01602080910402602001604051908101604052809291908181526020018280546111ab90612edf565b80156111f85780601f106111cd576101008083540402835291602001916111f8565b820191906000526020600020905b8154815290600101906020018083116111db57829003601f168201915b5050505050815260200160058201805461121190612edf565b80601f016020809104026020016040519081016040528092919081815260200182805461123d90612edf565b801561128a5780601f1061125f5761010080835404028352916020019161128a565b820191906000526020600020905b81548152906001019060200180831161126d57829003601f168201915b505050505081526020016006820180546112a390612edf565b80601f01602080910402602001604051908101604052809291908181526020018280546112cf90612edf565b801561131c5780601f106112f15761010080835404028352916020019161131c565b820191906000526020600020905b8154815290600101906020018083116112ff57829003601f168201915b5050505050815260200160078201805461133590612edf565b80601f016020809104026020016040519081016040528092919081815260200182805461136190612edf565b80156113ae5780601f10611383576101008083540402835291602001916113ae565b820191906000526020600020905b81548152906001019060200180831161139157829003601f168201915b505050505081526020016008820154815260200160098201548152602001600a820154815250509050919050565b600460205281600052604060002081815481106113f857600080fd5b90600052602060002090600b02016000915091505080600001549080600101805461142290612edf565b80601f016020809104026020016040519081016040528092919081815260200182805461144e90612edf565b801561149b5780601f106114705761010080835404028352916020019161149b565b820191906000526020600020905b81548152906001019060200180831161147e57829003601f168201915b5050505050908060040180546114b090612edf565b80601f01602080910402602001604051908101604052809291908181526020018280546114dc90612edf565b80156115295780601f106114fe57610100808354040283529160200191611529565b820191906000526020600020905b81548152906001019060200180831161150c57829003601f168201915b50505050509080600501805461153e90612edf565b80601f016020809104026020016040519081016040528092919081815260200182805461156a90612edf565b80156115b75780601f1061158c576101008083540402835291602001916115b7565b820191906000526020600020905b81548152906001019060200180831161159a57829003601f168201915b5050505050908060060180546115cc90612edf565b80601f01602080910402602001604051908101604052809291908181526020018280546115f890612edf565b80156116455780601f1061161a57610100808354040283529160200191611645565b820191906000526020600020905b81548152906001019060200180831161162857829003601f168201915b50505050509080600701805461165a90612edf565b80601f016020809104026020016040519081016040528092919081815260200182805461168690612edf565b80156116d35780601f106116a8576101008083540402835291602001916116d3565b820191906000526020600020905b8154815290600101906020018083116116b657829003601f168201915b50505050509080600801549080600901549080600a0154905089565b600060205280600052604060002060009150905080600001805461171290612edf565b80601f016020809104026020016040519081016040528092919081815260200182805461173e90612edf565b801561178b5780601f106117605761010080835404028352916020019161178b565b820191906000526020600020905b81548152906001019060200180831161176e57829003601f168201915b5050505050908060010180546117a090612edf565b80601f01602080910402602001604051908101604052809291908181526020018280546117cc90612edf565b80156118195780601f106117ee57610100808354040283529160200191611819565b820191906000526020600020905b8154815290600101906020018083116117fc57829003601f168201915b50505050509080600201805461182e90612edf565b80601f016020809104026020016040519081016040528092919081815260200182805461185a90612edf565b80156118a75780601f1061187c576101008083540402835291602001916118a7565b820191906000526020600020905b81548152906001019060200180831161188a57829003601f168201915b5050505050905083565b60036020528060005260406000206000915090508060000180546118d490612edf565b80601f016020809104026020016040519081016040528092919081815260200182805461190090612edf565b801561194d5780601f106119225761010080835404028352916020019161194d565b820191906000526020600020905b81548152906001019060200180831161193057829003601f168201915b50505050509080600101805461196290612edf565b80601f016020809104026020016040519081016040528092919081815260200182805461198e90612edf565b80156119db5780601f106119b0576101008083540402835291602001916119db565b820191906000526020600020905b8154815290600101906020018083116119be57829003601f168201915b5050505050908060020180546119f090612edf565b80601f0160208091040260200160405190810160405280929190818152602001828054611a1c90612edf565b8015611a695780601f10611a3e57610100808354040283529160200191611a69565b820191906000526020600020905b815481529060010190602001808311611a4c57829003601f168201915b5050505050905083565b60405180606001604052808381526020018281526020016040518060400160405280601281526020017f736166657479636f6d6d697373696f6e65720000000000000000000000000000815250815250600360003373ffffffffffffffffffffffffffffffffffffffff1673ffffffffffffffffffffffffffffffffffffffff1681526020019081526020016000206000820151816000019081611b1791906130bc565b506020820151816001019081611b2d91906130bc565b506040820151816002019081611b4391906130bc565b509050505050565b60006040518061016001604052808d81526020018c81526020018b81526020018a8152602001898152602001888152602001878152602001868152602001858152602001848152602001838152509050600460003373ffffffffffffffffffffffffffffffffffffffff1673ffffffffffffffffffffffffffffffffffffffff1681526020019081526020016000208190806001815401808255809150506001900390600052602060002090600b0201600090919091909150600082015181600001556020820151816001019081611c2391906130bc565b506040820151816002019080519060200190611c40929190612068565b506060820151816003019080519060200190611c5d9291906120c1565b506080820151816004019081611c7391906130bc565b5060a0820151816005019081611c8991906130bc565b5060c0820151816006019081611c9f91906130bc565b5060e0820151816007019081611cb591906130bc565b506101008201518160080155610120820151816009015561014082015181600a0155505080600560008e8152602001908152602001600020600082015181600001556020820151816001019081611d0c91906130bc565b506040820151816002019080519060200190611d29929190612068565b506060820151816003019080519060200190611d469291906120c1565b506080820151816004019081611d5c91906130bc565b5060a0820151816005019081611d7291906130bc565b5060c0820151816006019081611d8891906130bc565b5060e0820151816007019081611d9e91906130bc565b506101008201518160080155610120820151816009015561014082015181600a01559050506000338d604051602001611dd89291906131f7565b60405160208183030381529060405280519060200120905080600660008f81526020019081526020016000208190555050505050505050505050505050565b600060066000838152602001908152602001600020549050919050565b60066020528060005260406000206000915090505481565b6001602052806000526040600020600091509050806000018054611e6f90612edf565b80601f0160208091040260200160405190810160405280929190818152602001828054611e9b90612edf565b8015611ee85780601f10611ebd57610100808354040283529160200191611ee8565b820191906000526020600020905b815481529060010190602001808311611ecb57829003601f168201915b505050505090806001018054611efd90612edf565b80601f0160208091040260200160405190810160405280929190818152602001828054611f2990612edf565b8015611f765780601f10611f4b57610100808354040283529160200191611f76565b820191906000526020600020905b815481529060010190602001808311611f5957829003601f168201915b505050505090806002018054611f8b90612edf565b80601f0160208091040260200160405190810160405280929190818152602001828054611fb790612edf565b80156120045780601f10611fd957610100808354040283529160200191612004565b820191906000526020600020905b815481529060010190602001808311611fe757829003601f168201915b5050505050905083565b60405180610160016040528060008152602001606081526020016060815260200160608152602001606081526020016060815260200160608152602001606081526020016000815260200160008152602001600081525090565b8280548282559060005260206000209081019282156120b0579160200282015b828111156120af57825182908161209f91906130bc565b5091602001919060010190612088565b5b5090506120bd919061210e565b5090565b8280548282559060005260206000209081019282156120fd579160200282015b828111156120fc5782518255916020019190600101906120e1565b5b50905061210a9190612132565b5090565b5b8082111561212e5760008181612125919061214f565b5060010161210f565b5090565b5b8082111561214b576000816000905550600101612133565b5090565b50805461215b90612edf565b6000825580601f1061216d575061218c565b601f01602090049060005260206000209081019061218b9190612132565b5b50565b600081519050919050565b600082825260208201905092915050565b6000819050602082019050919050565b6000819050919050565b6121ce816121bb565b82525050565b600081519050919050565b600082825260208201905092915050565b60005b8381101561220e5780820151818401526020810190506121f3565b60008484015250505050565b6000601f19601f8301169050919050565b6000612236826121d4565b61224081856121df565b93506122508185602086016121f0565b6122598161221a565b840191505092915050565b600081519050919050565b600082825260208201905092915050565b6000819050602082019050919050565b600061229c838361222b565b905092915050565b6000602082019050919050565b60006122bc82612264565b6122c6818561226f565b9350836020820285016122d885612280565b8060005b8581101561231457848403895281516122f58582612290565b9450612300836122a4565b925060208a019950506001810190506122dc565b50829750879550505050505092915050565b600081519050919050565b600082825260208201905092915050565b6000819050602082019050919050565b600061235e83836121c5565b60208301905092915050565b6000602082019050919050565b600061238282612326565b61238c8185612331565b935061239783612342565b8060005b838110156123c85781516123af8882612352565b97506123ba8361236a565b92505060018101905061239b565b5085935050505092915050565b6000610160830160008301516123ee60008601826121c5565b5060208301518482036020860152612406828261222b565b9150506040830151848203604086015261242082826122b1565b9150506060830151848203606086015261243a8282612377565b91505060808301518482036080860152612454828261222b565b91505060a083015184820360a086015261246e828261222b565b91505060c083015184820360c0860152612488828261222b565b91505060e083015184820360e08601526124a2828261222b565b9150506101008301516124b96101008601826121c5565b506101208301516124ce6101208601826121c5565b506101408301516124e36101408601826121c5565b508091505092915050565b60006124fa83836123d5565b905092915050565b6000602082019050919050565b600061251a8261218f565b612524818561219a565b935083602082028501612536856121ab565b8060005b85811015612572578484038952815161255385826124ee565b945061255e83612502565b925060208a0199505060018101905061253a565b50829750879550505050505092915050565b6000602082019050818103600083015261259e818461250f565b905092915050565b6000604051905090565b600080fd5b600080fd5b6125c3816121bb565b81146125ce57600080fd5b50565b6000813590506125e0816125ba565b92915050565b6000602082840312156125fc576125fb6125b0565b5b600061260a848285016125d1565b91505092915050565b61261c816121bb565b82525050565b600082825260208201905092915050565b600061263e826121d4565b6126488185612622565b93506126588185602086016121f0565b6126618161221a565b840191505092915050565b600061012082019050612682600083018c612613565b8181036020830152612694818b612633565b905081810360408301526126a8818a612633565b905081810360608301526126bc8189612633565b905081810360808301526126d08188612633565b905081810360a08301526126e48187612633565b90506126f360c0830186612613565b61270060e0830185612613565b61270e610100830184612613565b9a9950505050505050505050565b600080fd5b600080fd5b7f4e487b7100000000000000000000000000000000000000000000000000000000600052604160045260246000fd5b61275e8261221a565b810181811067ffffffffffffffff8211171561277d5761277c612726565b5b80604052505050565b60006127906125a6565b905061279c8282612755565b919050565b600067ffffffffffffffff8211156127bc576127bb612726565b5b6127c58261221a565b9050602081019050919050565b82818337600083830152505050565b60006127f46127ef846127a1565b612786565b9050828152602081018484840111156128105761280f612721565b5b61281b8482856127d2565b509392505050565b600082601f8301126128385761283761271c565b5b81356128488482602086016127e1565b91505092915050565b60008060408385031215612868576128676125b0565b5b600083013567ffffffffffffffff811115612886576128856125b5565b5b61289285828601612823565b925050602083013567ffffffffffffffff8111156128b3576128b26125b5565b5b6128bf85828601612823565b9150509250929050565b600073ffffffffffffffffffffffffffffffffffffffff82169050919050565b60006128f4826128c9565b9050919050565b612904816128e9565b811461290f57600080fd5b50565b600081359050612921816128fb565b92915050565b60006020828403121561293d5761293c6125b0565b5b600061294b84828501612912565b91505092915050565b6000606082019050818103600083015261296e8186612633565b905081810360208301526129828185612633565b905081810360408301526129968184612633565b9050949350505050565b6000610160830160008301516129b960008601826121c5565b50602083015184820360208601526129d1828261222b565b915050604083015184820360408601526129eb82826122b1565b91505060608301518482036060860152612a058282612377565b91505060808301518482036080860152612a1f828261222b565b91505060a083015184820360a0860152612a39828261222b565b91505060c083015184820360c0860152612a53828261222b565b91505060e083015184820360e0860152612a6d828261222b565b915050610100830151612a846101008601826121c5565b50610120830151612a996101208601826121c5565b50610140830151612aae6101408601826121c5565b508091505092915050565b60006020820190508181036000830152612ad381846129a0565b905092915050565b60008060408385031215612af257612af16125b0565b5b6000612b0085828601612912565b9250506020612b11858286016125d1565b9150509250929050565b600067ffffffffffffffff821115612b3657612b35612726565b5b602082029050602081019050919050565b600080fd5b6000612b5f612b5a84612b1b565b612786565b90508083825260208201905060208402830185811115612b8257612b81612b47565b5b835b81811015612bc957803567ffffffffffffffff811115612ba757612ba661271c565b5b808601612bb48982612823565b85526020850194505050602081019050612b84565b5050509392505050565b600082601f830112612be857612be761271c565b5b8135612bf8848260208601612b4c565b91505092915050565b600067ffffffffffffffff821115612c1c57612c1b612726565b5b602082029050602081019050919050565b6000612c40612c3b84612c01565b612786565b90508083825260208201905060208402830185811115612c6357612c62612b47565b5b835b81811015612c8c5780612c7888826125d1565b845260208401935050602081019050612c65565b5050509392505050565b600082601f830112612cab57612caa61271c565b5b8135612cbb848260208601612c2d565b91505092915050565b60008060008060008060008060008060006101608c8e031215612cea57612ce96125b0565b5b6000612cf88e828f016125d1565b9b505060208c013567ffffffffffffffff811115612d1957612d186125b5565b5b612d258e828f01612823565b9a505060408c013567ffffffffffffffff811115612d4657612d456125b5565b5b612d528e828f01612bd3565b99505060608c013567ffffffffffffffff811115612d7357612d726125b5565b5b612d7f8e828f01612c96565b98505060808c013567ffffffffffffffff811115612da057612d9f6125b5565b5b612dac8e828f01612823565b97505060a08c013567ffffffffffffffff811115612dcd57612dcc6125b5565b5b612dd98e828f01612823565b96505060c08c013567ffffffffffffffff811115612dfa57612df96125b5565b5b612e068e828f01612823565b95505060e08c013567ffffffffffffffff811115612e2757612e266125b5565b5b612e338e828f01612823565b945050610100612e458e828f016125d1565b935050610120612e578e828f016125d1565b925050610140612e698e828f016125d1565b9150509295989b509295989b9093969950565b6000819050919050565b612e8f81612e7c565b82525050565b6000602082019050612eaa6000830184612e86565b92915050565b7f4e487b7100000000000000000000000000000000000000000000000000000000600052602260045260246000fd5b60006002820490506001821680612ef757607f821691505b602082108103612f0a57612f09612eb0565b5b50919050565b60008190508160005260206000209050919050565b60006020601f8301049050919050565b600082821b905092915050565b600060088302612f727fffffffffffffffffffffffffffffffffffffffffffffffffffffffffffffffff82612f35565b612f7c8683612f35565b95508019841693508086168417925050509392505050565b6000819050919050565b6000612fb9612fb4612faf846121bb565b612f94565b6121bb565b9050919050565b6000819050919050565b612fd383612f9e565b612fe7612fdf82612fc0565b848454612f42565b825550505050565b600090565b612ffc612fef565b613007818484612fca565b505050565b5b8181101561302b57613020600082612ff4565b60018101905061300d565b5050565b601f8211156130705761304181612f10565b61304a84612f25565b81016020851015613059578190505b61306d61306585612f25565b83018261300c565b50505b505050565b600082821c905092915050565b600061309360001984600802613075565b1980831691505092915050565b60006130ac8383613082565b9150826002028217905092915050565b6130c5826121d4565b67ffffffffffffffff8111156130de576130dd612726565b5b6130e88254612edf565b6130f382828561302f565b600060209050601f8311600181146131265760008415613114578287015190505b61311e85826130a0565b865550613186565b601f19841661313486612f10565b60005b8281101561315c57848901518255600182019150602085019450602081019050613137565b868310156131795784890151613175601f891682613082565b8355505b6001600288020188555050505b505050505050565b60008160601b9050919050565b60006131a68261318e565b9050919050565b60006131b88261319b565b9050919050565b6131d06131cb826128e9565b6131ad565b82525050565b6000819050919050565b6131f16131ec826121bb565b6131d6565b82525050565b600061320382856131bf565b60148201915061321382846131e0565b602082019150819050939250505056fea264697066735822122010d451b608212baf66282d9741210295adbed97e995cf0e8599747405dfb163964736f6c63430008130033",
  "linkReferences": {},
  "deployedLinkReferences": {}
}