{
  "_format": "hh-sol-artifact-1",
  "contractName": "Crusader",
  "sourceName": "contracts/Crusader.sol",
  "abi": [
    {
      "inputs": [
        {
          "internalType": "address",
          "name": "",
          "type": "address"
        }
      ],
      "name": "analysts",
      "outputs": [
        {
          "internalType": "string",
          "name": "username",
          "type": "string"
        },
        {
          "internalType": "string",
          "name": "password",
          "type": "string"
        },
        {
          "internalType": "string",
          "name": "entity",
          "type": "string"
        }
      ],
      "stateMutability": "view",
      "type": "function"
    },
    {
      "inputs": [],
      "name": "getContractBalance",
      "outputs": [
        {
          "internalType": "uint256",
          "name": "",
          "type": "uint256"
        }
      ],
      "stateMutability": "view",
      "type": "function"
    },
    {
      "inputs": [
        {
          "internalType": "address",
          "name": "",
          "type": "address"
        }
      ],
      "name": "manufacturers",
      "outputs": [
        {
          "internalType": "string",
          "name": "username",
          "type": "string"
        },
        {
          "internalType": "string",
          "name": "password",
          "type": "string"
        },
        {
          "internalType": "string",
          "name": "entity",
          "type": "string"
        }
      ],
      "stateMutability": "view",
      "type": "function"
    },
    {
      "inputs": [
        {
          "internalType": "string",
          "name": "_username",
          "type": "string"
        },
        {
          "internalType": "string",
          "name": "_password",
          "type": "string"
        }
      ],
      "name": "registerAnalyst",
      "outputs": [],
      "stateMutability": "nonpayable",
      "type": "function"
    },
    {
      "inputs": [
        {
          "internalType": "string",
          "name": "_username",
          "type": "string"
        },
        {
          "internalType": "string",
          "name": "_password",
          "type": "string"
        }
      ],
      "name": "registerCommissioner",
      "outputs": [],
      "stateMutability": "nonpayable",
      "type": "function"
    },
    {
      "inputs": [
        {
          "internalType": "string",
          "name": "_username",
          "type": "string"
        },
        {
          "internalType": "string",
          "name": "_password",
          "type": "string"
        }
      ],
      "name": "registerManufacturer",
      "outputs": [],
      "stateMutability": "nonpayable",
      "type": "function"
    },
    {
      "inputs": [
        {
          "internalType": "string",
          "name": "_username",
          "type": "string"
        },
        {
          "internalType": "string",
          "name": "_password",
          "type": "string"
        }
      ],
      "name": "registerSafetyOfficer",
      "outputs": [],
      "stateMutability": "nonpayable",
      "type": "function"
    },
    {
      "inputs": [
        {
          "internalType": "address",
          "name": "",
          "type": "address"
        }
      ],
      "name": "safetycommissioners",
      "outputs": [
        {
          "internalType": "string",
          "name": "username",
          "type": "string"
        },
        {
          "internalType": "string",
          "name": "password",
          "type": "string"
        },
        {
          "internalType": "string",
          "name": "entity",
          "type": "string"
        }
      ],
      "stateMutability": "view",
      "type": "function"
    },
    {
      "inputs": [
        {
          "internalType": "address",
          "name": "",
          "type": "address"
        }
      ],
      "name": "safetyofficers",
      "outputs": [
        {
          "internalType": "string",
          "name": "username",
          "type": "string"
        },
        {
          "internalType": "string",
          "name": "password",
          "type": "string"
        },
        {
          "internalType": "string",
          "name": "entity",
          "type": "string"
        }
      ],
      "stateMutability": "view",
      "type": "function"
    }
  ],
  "bytecode": "0x608060405234801561001057600080fd5b506112cd806100206000396000f3fe608060405234801561001057600080fd5b50600436106100935760003560e01c80636b5eb09c116100665780636b5eb09c1461011e5780636f9fb98a14610150578063992c08611461016e578063b20d4c51146101a0578063fa720d86146101bc57610093565b806319e75151146100985780631e608f46146100b4578063246681e6146100d057806330b15caa14610102575b600080fd5b6100b260048036038101906100ad9190610db7565b6101ee565b005b6100ce60048036038101906100c99190610db7565b6102c6565b005b6100ea60048036038101906100e59190610e8d565b61039e565b6040516100f993929190610f39565b60405180910390f35b61011c60048036038101906101179190610db7565b610560565b005b61013860048036038101906101339190610e8d565b610637565b60405161014793929190610f39565b60405180910390f35b6101586107f9565b6040516101659190610f9e565b60405180910390f35b61018860048036038101906101839190610e8d565b610801565b60405161019793929190610f39565b60405180910390f35b6101ba60048036038101906101b59190610db7565b6109c3565b005b6101d660048036038101906101d19190610e8d565b610a9b565b6040516101e593929190610f39565b60405180910390f35b60405180606001604052808381526020018281526020016040518060400160405280600781526020017f616e616c79737400000000000000000000000000000000000000000000000000815250815250600260003373ffffffffffffffffffffffffffffffffffffffff1673ffffffffffffffffffffffffffffffffffffffff168152602001908152602001600020600082015181600001908161029291906111c5565b5060208201518160010190816102a891906111c5565b5060408201518160020190816102be91906111c5565b509050505050565b60405180606001604052808381526020018281526020016040518060400160405280600d81526020017f7361666574796f66666963657200000000000000000000000000000000000000815250815250600160003373ffffffffffffffffffffffffffffffffffffffff1673ffffffffffffffffffffffffffffffffffffffff168152602001908152602001600020600082015181600001908161036a91906111c5565b50602082015181600101908161038091906111c5565b50604082015181600201908161039691906111c5565b509050505050565b60026020528060005260406000206000915090508060000180546103c190610fe8565b80601f01602080910402602001604051908101604052809291908181526020018280546103ed90610fe8565b801561043a5780601f1061040f5761010080835404028352916020019161043a565b820191906000526020600020905b81548152906001019060200180831161041d57829003601f168201915b50505050509080600101805461044f90610fe8565b80601f016020809104026020016040519081016040528092919081815260200182805461047b90610fe8565b80156104c85780601f1061049d576101008083540402835291602001916104c8565b820191906000526020600020905b8154815290600101906020018083116104ab57829003601f168201915b5050505050908060020180546104dd90610fe8565b80601f016020809104026020016040519081016040528092919081815260200182805461050990610fe8565b80156105565780601f1061052b57610100808354040283529160200191610556565b820191906000526020600020905b81548152906001019060200180831161053957829003601f168201915b5050505050905083565b60405180606001604052808381526020018281526020016040518060400160405280600c81526020017f6d616e75666163747572657200000000000000000000000000000000000000008152508152506000803373ffffffffffffffffffffffffffffffffffffffff1673ffffffffffffffffffffffffffffffffffffffff168152602001908152602001600020600082015181600001908161060391906111c5565b50602082015181600101908161061991906111c5565b50604082015181600201908161062f91906111c5565b509050505050565b600060205280600052604060002060009150905080600001805461065a90610fe8565b80601f016020809104026020016040519081016040528092919081815260200182805461068690610fe8565b80156106d35780601f106106a8576101008083540402835291602001916106d3565b820191906000526020600020905b8154815290600101906020018083116106b657829003601f168201915b5050505050908060010180546106e890610fe8565b80601f016020809104026020016040519081016040528092919081815260200182805461071490610fe8565b80156107615780601f1061073657610100808354040283529160200191610761565b820191906000526020600020905b81548152906001019060200180831161074457829003601f168201915b50505050509080600201805461077690610fe8565b80601f01602080910402602001604051908101604052809291908181526020018280546107a290610fe8565b80156107ef5780601f106107c4576101008083540402835291602001916107ef565b820191906000526020600020905b8154815290600101906020018083116107d257829003601f168201915b5050505050905083565b600047905090565b600360205280600052604060002060009150905080600001805461082490610fe8565b80601f016020809104026020016040519081016040528092919081815260200182805461085090610fe8565b801561089d5780601f106108725761010080835404028352916020019161089d565b820191906000526020600020905b81548152906001019060200180831161088057829003601f168201915b5050505050908060010180546108b290610fe8565b80601f01602080910402602001604051908101604052809291908181526020018280546108de90610fe8565b801561092b5780601f106109005761010080835404028352916020019161092b565b820191906000526020600020905b81548152906001019060200180831161090e57829003601f168201915b50505050509080600201805461094090610fe8565b80601f016020809104026020016040519081016040528092919081815260200182805461096c90610fe8565b80156109b95780601f1061098e576101008083540402835291602001916109b9565b820191906000526020600020905b81548152906001019060200180831161099c57829003601f168201915b5050505050905083565b60405180606001604052808381526020018281526020016040518060400160405280601281526020017f736166657479636f6d6d697373696f6e65720000000000000000000000000000815250815250600360003373ffffffffffffffffffffffffffffffffffffffff1673ffffffffffffffffffffffffffffffffffffffff1681526020019081526020016000206000820151816000019081610a6791906111c5565b506020820151816001019081610a7d91906111c5565b506040820151816002019081610a9391906111c5565b509050505050565b6001602052806000526040600020600091509050806000018054610abe90610fe8565b80601f0160208091040260200160405190810160405280929190818152602001828054610aea90610fe8565b8015610b375780601f10610b0c57610100808354040283529160200191610b37565b820191906000526020600020905b815481529060010190602001808311610b1a57829003601f168201915b505050505090806001018054610b4c90610fe8565b80601f0160208091040260200160405190810160405280929190818152602001828054610b7890610fe8565b8015610bc55780601f10610b9a57610100808354040283529160200191610bc5565b820191906000526020600020905b815481529060010190602001808311610ba857829003601f168201915b505050505090806002018054610bda90610fe8565b80601f0160208091040260200160405190810160405280929190818152602001828054610c0690610fe8565b8015610c535780601f10610c2857610100808354040283529160200191610c53565b820191906000526020600020905b815481529060010190602001808311610c3657829003601f168201915b5050505050905083565b6000604051905090565b600080fd5b600080fd5b600080fd5b600080fd5b6000601f19601f8301169050919050565b7f4e487b7100000000000000000000000000000000000000000000000000000000600052604160045260246000fd5b610cc482610c7b565b810181811067ffffffffffffffff82111715610ce357610ce2610c8c565b5b80604052505050565b6000610cf6610c5d565b9050610d028282610cbb565b919050565b600067ffffffffffffffff821115610d2257610d21610c8c565b5b610d2b82610c7b565b9050602081019050919050565b82818337600083830152505050565b6000610d5a610d5584610d07565b610cec565b905082815260208101848484011115610d7657610d75610c76565b5b610d81848285610d38565b509392505050565b600082601f830112610d9e57610d9d610c71565b5b8135610dae848260208601610d47565b91505092915050565b60008060408385031215610dce57610dcd610c67565b5b600083013567ffffffffffffffff811115610dec57610deb610c6c565b5b610df885828601610d89565b925050602083013567ffffffffffffffff811115610e1957610e18610c6c565b5b610e2585828601610d89565b9150509250929050565b600073ffffffffffffffffffffffffffffffffffffffff82169050919050565b6000610e5a82610e2f565b9050919050565b610e6a81610e4f565b8114610e7557600080fd5b50565b600081359050610e8781610e61565b92915050565b600060208284031215610ea357610ea2610c67565b5b6000610eb184828501610e78565b91505092915050565b600081519050919050565b600082825260208201905092915050565b60005b83811015610ef4578082015181840152602081019050610ed9565b60008484015250505050565b6000610f0b82610eba565b610f158185610ec5565b9350610f25818560208601610ed6565b610f2e81610c7b565b840191505092915050565b60006060820190508181036000830152610f538186610f00565b90508181036020830152610f678185610f00565b90508181036040830152610f7b8184610f00565b9050949350505050565b6000819050919050565b610f9881610f85565b82525050565b6000602082019050610fb36000830184610f8f565b92915050565b7f4e487b7100000000000000000000000000000000000000000000000000000000600052602260045260246000fd5b6000600282049050600182168061100057607f821691505b60208210810361101357611012610fb9565b5b50919050565b60008190508160005260206000209050919050565b60006020601f8301049050919050565b600082821b905092915050565b60006008830261107b7fffffffffffffffffffffffffffffffffffffffffffffffffffffffffffffffff8261103e565b611085868361103e565b95508019841693508086168417925050509392505050565b6000819050919050565b60006110c26110bd6110b884610f85565b61109d565b610f85565b9050919050565b6000819050919050565b6110dc836110a7565b6110f06110e8826110c9565b84845461104b565b825550505050565b600090565b6111056110f8565b6111108184846110d3565b505050565b5b81811015611134576111296000826110fd565b600181019050611116565b5050565b601f8211156111795761114a81611019565b6111538461102e565b81016020851015611162578190505b61117661116e8561102e565b830182611115565b50505b505050565b600082821c905092915050565b600061119c6000198460080261117e565b1980831691505092915050565b60006111b5838361118b565b9150826002028217905092915050565b6111ce82610eba565b67ffffffffffffffff8111156111e7576111e6610c8c565b5b6111f18254610fe8565b6111fc828285611138565b600060209050601f83116001811461122f576000841561121d578287015190505b61122785826111a9565b86555061128f565b601f19841661123d86611019565b60005b8281101561126557848901518255600182019150602085019450602081019050611240565b86831015611282578489015161127e601f89168261118b565b8355505b6001600288020188555050505b50505050505056fea26469706673582212209e0a23f23cdaaf0b9fcb844c9fa8782091f93894bbced224e1d36eba4ec31ba364736f6c63430008130033",
  "linkReferences": {},
  "deployedLinkReferences": {}
}