{
  "_format": "hh-sol-artifact-1",
  "contractName": "Crusader",
  "sourceName": "contracts/Crusader.sol",
  "abi": [
    {
      "inputs": [
        {
          "internalType": "uint256",
          "name": "_id",
          "type": "uint256"
        },
        {
          "internalType": "string",
          "name": "_name",
          "type": "string"
        },
        {
          "internalType": "string[]",
          "name": "_ingredients",
          "type": "string[]"
        },
        {
          "internalType": "uint256[]",
          "name": "_quantity",
          "type": "uint256[]"
        },
        {
          "internalType": "string",
          "name": "_intendedUse",
          "type": "string"
        },
        {
          "internalType": "string",
          "name": "_functionalUse",
          "type": "string"
        },
        {
          "internalType": "string",
          "name": "_manufacturingProcess",
          "type": "string"
        },
        {
          "internalType": "string",
          "name": "_nutritionalBenefits",
          "type": "string"
        },
        {
          "internalType": "uint256",
          "name": "_fatPercentage",
          "type": "uint256"
        },
        {
          "internalType": "uint256",
          "name": "_proteinPercentage",
          "type": "uint256"
        },
        {
          "internalType": "uint256",
          "name": "_carbohydratePercentage",
          "type": "uint256"
        }
      ],
      "name": "addProduct",
      "outputs": [],
      "stateMutability": "nonpayable",
      "type": "function"
    },
    {
      "inputs": [
        {
          "internalType": "address",
          "name": "",
          "type": "address"
        }
      ],
      "name": "analysts",
      "outputs": [
        {
          "internalType": "string",
          "name": "username",
          "type": "string"
        },
        {
          "internalType": "string",
          "name": "password",
          "type": "string"
        },
        {
          "internalType": "string",
          "name": "entity",
          "type": "string"
        }
      ],
      "stateMutability": "view",
      "type": "function"
    },
    {
      "inputs": [],
      "name": "getContractBalance",
      "outputs": [
        {
          "internalType": "uint256",
          "name": "",
          "type": "uint256"
        }
      ],
      "stateMutability": "view",
      "type": "function"
    },
    {
      "inputs": [
        {
          "internalType": "uint256",
          "name": "_id",
          "type": "uint256"
        }
      ],
      "name": "getProductById",
      "outputs": [
        {
          "components": [
            {
              "internalType": "uint256",
              "name": "id",
              "type": "uint256"
            },
            {
              "internalType": "string",
              "name": "name",
              "type": "string"
            },
            {
              "internalType": "string[]",
              "name": "ingredients",
              "type": "string[]"
            },
            {
              "internalType": "uint256[]",
              "name": "quantity",
              "type": "uint256[]"
            },
            {
              "internalType": "string",
              "name": "intendedUse",
              "type": "string"
            },
            {
              "internalType": "string",
              "name": "functionalUse",
              "type": "string"
            },
            {
              "internalType": "string",
              "name": "manufacturingProcess",
              "type": "string"
            },
            {
              "internalType": "string",
              "name": "nutritionalBenefits",
              "type": "string"
            },
            {
              "internalType": "uint256",
              "name": "fatPercentage",
              "type": "uint256"
            },
            {
              "internalType": "uint256",
              "name": "proteinPercentage",
              "type": "uint256"
            },
            {
              "internalType": "uint256",
              "name": "carbohydratePercentage",
              "type": "uint256"
            }
          ],
          "internalType": "struct Crusader.ProductDetails",
          "name": "",
          "type": "tuple"
        }
      ],
      "stateMutability": "view",
      "type": "function"
    },
    {
      "inputs": [],
      "name": "getTotalProducts",
      "outputs": [
        {
          "internalType": "uint256",
          "name": "",
          "type": "uint256"
        }
      ],
      "stateMutability": "view",
      "type": "function"
    },
    {
      "inputs": [
        {
          "internalType": "address",
          "name": "",
          "type": "address"
        }
      ],
      "name": "manufacturers",
      "outputs": [
        {
          "internalType": "string",
          "name": "username",
          "type": "string"
        },
        {
          "internalType": "string",
          "name": "password",
          "type": "string"
        },
        {
          "internalType": "string",
          "name": "entity",
          "type": "string"
        }
      ],
      "stateMutability": "view",
      "type": "function"
    },
    {
      "inputs": [
        {
          "internalType": "uint256",
          "name": "",
          "type": "uint256"
        }
      ],
      "name": "productsIdMapping",
      "outputs": [
        {
          "internalType": "uint256",
          "name": "id",
          "type": "uint256"
        },
        {
          "internalType": "string",
          "name": "name",
          "type": "string"
        },
        {
          "internalType": "string",
          "name": "intendedUse",
          "type": "string"
        },
        {
          "internalType": "string",
          "name": "functionalUse",
          "type": "string"
        },
        {
          "internalType": "string",
          "name": "manufacturingProcess",
          "type": "string"
        },
        {
          "internalType": "string",
          "name": "nutritionalBenefits",
          "type": "string"
        },
        {
          "internalType": "uint256",
          "name": "fatPercentage",
          "type": "uint256"
        },
        {
          "internalType": "uint256",
          "name": "proteinPercentage",
          "type": "uint256"
        },
        {
          "internalType": "uint256",
          "name": "carbohydratePercentage",
          "type": "uint256"
        }
      ],
      "stateMutability": "view",
      "type": "function"
    },
    {
      "inputs": [
        {
          "internalType": "string",
          "name": "_username",
          "type": "string"
        },
        {
          "internalType": "string",
          "name": "_password",
          "type": "string"
        }
      ],
      "name": "registerAnalyst",
      "outputs": [],
      "stateMutability": "nonpayable",
      "type": "function"
    },
    {
      "inputs": [
        {
          "internalType": "string",
          "name": "_username",
          "type": "string"
        },
        {
          "internalType": "string",
          "name": "_password",
          "type": "string"
        }
      ],
      "name": "registerCommissioner",
      "outputs": [],
      "stateMutability": "nonpayable",
      "type": "function"
    },
    {
      "inputs": [
        {
          "internalType": "string",
          "name": "_username",
          "type": "string"
        },
        {
          "internalType": "string",
          "name": "_password",
          "type": "string"
        }
      ],
      "name": "registerManufacturer",
      "outputs": [],
      "stateMutability": "nonpayable",
      "type": "function"
    },
    {
      "inputs": [
        {
          "internalType": "string",
          "name": "_username",
          "type": "string"
        },
        {
          "internalType": "string",
          "name": "_password",
          "type": "string"
        }
      ],
      "name": "registerSafetyOfficer",
      "outputs": [],
      "stateMutability": "nonpayable",
      "type": "function"
    },
    {
      "inputs": [
        {
          "internalType": "address",
          "name": "",
          "type": "address"
        }
      ],
      "name": "safetycommissioners",
      "outputs": [
        {
          "internalType": "string",
          "name": "username",
          "type": "string"
        },
        {
          "internalType": "string",
          "name": "password",
          "type": "string"
        },
        {
          "internalType": "string",
          "name": "entity",
          "type": "string"
        }
      ],
      "stateMutability": "view",
      "type": "function"
    },
    {
      "inputs": [
        {
          "internalType": "address",
          "name": "",
          "type": "address"
        }
      ],
      "name": "safetyofficers",
      "outputs": [
        {
          "internalType": "string",
          "name": "username",
          "type": "string"
        },
        {
          "internalType": "string",
          "name": "password",
          "type": "string"
        },
        {
          "internalType": "string",
          "name": "entity",
          "type": "string"
        }
      ],
      "stateMutability": "view",
      "type": "function"
    },
    {
      "inputs": [],
      "name": "totalProducts",
      "outputs": [
        {
          "internalType": "uint256",
          "name": "",
          "type": "uint256"
        }
      ],
      "stateMutability": "view",
      "type": "function"
    }
  ],
  "bytecode": "0x608060405234801561001057600080fd5b506126e8806100206000396000f3fe608060405234801561001057600080fd5b50600436106100ea5760003560e01c80636b5eb09c1161008c5780639b9d326d116100665780639b9d326d1461027d578063b20d4c511461029b578063c277a550146102b7578063fa720d86146102d3576100ea565b80636b5eb09c146101fb5780636f9fb98a1461022d578063992c08611461024b576100ea565b8063246681e6116100c8578063246681e61461015f57806330b15caa146101915780633f70c2b4146101ad578063570aea8a146101dd576100ea565b806305300de2146100ef57806319e75151146101275780631e608f4614610143575b600080fd5b6101096004803603810190610104919061184a565b610305565b60405161011e99989796959493929190611916565b60405180910390f35b610141600480360381019061013c9190611afb565b6105fb565b005b61015d60048036038101906101589190611afb565b6106d3565b005b61017960048036038101906101749190611bd1565b6107ab565b60405161018893929190611bfe565b60405180910390f35b6101ab60048036038101906101a69190611afb565b61096d565b005b6101c760048036038101906101c2919061184a565b610a44565b6040516101d49190611f2d565b60405180910390f35b6101e5610ea5565b6040516101f29190611f4f565b60405180910390f35b61021560048036038101906102109190611bd1565b610eaf565b60405161022493929190611bfe565b60405180910390f35b610235611071565b6040516102429190611f4f565b60405180910390f35b61026560048036038101906102609190611bd1565b611079565b60405161027493929190611bfe565b60405180910390f35b61028561123b565b6040516102929190611f4f565b60405180910390f35b6102b560048036038101906102b09190611afb565b611241565b005b6102d160048036038101906102cc9190612113565b611319565b005b6102ed60048036038101906102e89190611bd1565b6114bd565b6040516102fc93929190611bfe565b60405180910390f35b600560205280600052604060002060009150905080600001549080600101805461032e906122fa565b80601f016020809104026020016040519081016040528092919081815260200182805461035a906122fa565b80156103a75780601f1061037c576101008083540402835291602001916103a7565b820191906000526020600020905b81548152906001019060200180831161038a57829003601f168201915b5050505050908060040180546103bc906122fa565b80601f01602080910402602001604051908101604052809291908181526020018280546103e8906122fa565b80156104355780601f1061040a57610100808354040283529160200191610435565b820191906000526020600020905b81548152906001019060200180831161041857829003601f168201915b50505050509080600501805461044a906122fa565b80601f0160208091040260200160405190810160405280929190818152602001828054610476906122fa565b80156104c35780601f10610498576101008083540402835291602001916104c3565b820191906000526020600020905b8154815290600101906020018083116104a657829003601f168201915b5050505050908060060180546104d8906122fa565b80601f0160208091040260200160405190810160405280929190818152602001828054610504906122fa565b80156105515780601f1061052657610100808354040283529160200191610551565b820191906000526020600020905b81548152906001019060200180831161053457829003601f168201915b505050505090806007018054610566906122fa565b80601f0160208091040260200160405190810160405280929190818152602001828054610592906122fa565b80156105df5780601f106105b4576101008083540402835291602001916105df565b820191906000526020600020905b8154815290600101906020018083116105c257829003601f168201915b50505050509080600801549080600901549080600a0154905089565b60405180606001604052808381526020018281526020016040518060400160405280600781526020017f616e616c79737400000000000000000000000000000000000000000000000000815250815250600260003373ffffffffffffffffffffffffffffffffffffffff1673ffffffffffffffffffffffffffffffffffffffff168152602001908152602001600020600082015181600001908161069f91906124d7565b5060208201518160010190816106b591906124d7565b5060408201518160020190816106cb91906124d7565b509050505050565b60405180606001604052808381526020018281526020016040518060400160405280600d81526020017f7361666574796f66666963657200000000000000000000000000000000000000815250815250600160003373ffffffffffffffffffffffffffffffffffffffff1673ffffffffffffffffffffffffffffffffffffffff168152602001908152602001600020600082015181600001908161077791906124d7565b50602082015181600101908161078d91906124d7565b5060408201518160020190816107a391906124d7565b509050505050565b60026020528060005260406000206000915090508060000180546107ce906122fa565b80601f01602080910402602001604051908101604052809291908181526020018280546107fa906122fa565b80156108475780601f1061081c57610100808354040283529160200191610847565b820191906000526020600020905b81548152906001019060200180831161082a57829003601f168201915b50505050509080600101805461085c906122fa565b80601f0160208091040260200160405190810160405280929190818152602001828054610888906122fa565b80156108d55780601f106108aa576101008083540402835291602001916108d5565b820191906000526020600020905b8154815290600101906020018083116108b857829003601f168201915b5050505050908060020180546108ea906122fa565b80601f0160208091040260200160405190810160405280929190818152602001828054610916906122fa565b80156109635780601f1061093857610100808354040283529160200191610963565b820191906000526020600020905b81548152906001019060200180831161094657829003601f168201915b5050505050905083565b60405180606001604052808381526020018281526020016040518060400160405280600c81526020017f6d616e75666163747572657200000000000000000000000000000000000000008152508152506000803373ffffffffffffffffffffffffffffffffffffffff1673ffffffffffffffffffffffffffffffffffffffff1681526020019081526020016000206000820151816000019081610a1091906124d7565b506020820151816001019081610a2691906124d7565b506040820151816002019081610a3c91906124d7565b509050505050565b610a4c61167f565b600560008381526020019081526020016000206040518061016001604052908160008201548152602001600182018054610a85906122fa565b80601f0160208091040260200160405190810160405280929190818152602001828054610ab1906122fa565b8015610afe5780601f10610ad357610100808354040283529160200191610afe565b820191906000526020600020905b815481529060010190602001808311610ae157829003601f168201915b5050505050815260200160028201805480602002602001604051908101604052809291908181526020016000905b82821015610bd8578382906000526020600020018054610b4b906122fa565b80601f0160208091040260200160405190810160405280929190818152602001828054610b77906122fa565b8015610bc45780601f10610b9957610100808354040283529160200191610bc4565b820191906000526020600020905b815481529060010190602001808311610ba757829003601f168201915b505050505081526020019060010190610b2c565b50505050815260200160038201805480602002602001604051908101604052809291908181526020018280548015610c2f57602002820191906000526020600020905b815481526020019060010190808311610c1b575b50505050508152602001600482018054610c48906122fa565b80601f0160208091040260200160405190810160405280929190818152602001828054610c74906122fa565b8015610cc15780601f10610c9657610100808354040283529160200191610cc1565b820191906000526020600020905b815481529060010190602001808311610ca457829003601f168201915b50505050508152602001600582018054610cda906122fa565b80601f0160208091040260200160405190810160405280929190818152602001828054610d06906122fa565b8015610d535780601f10610d2857610100808354040283529160200191610d53565b820191906000526020600020905b815481529060010190602001808311610d3657829003601f168201915b50505050508152602001600682018054610d6c906122fa565b80601f0160208091040260200160405190810160405280929190818152602001828054610d98906122fa565b8015610de55780601f10610dba57610100808354040283529160200191610de5565b820191906000526020600020905b815481529060010190602001808311610dc857829003601f168201915b50505050508152602001600782018054610dfe906122fa565b80601f0160208091040260200160405190810160405280929190818152602001828054610e2a906122fa565b8015610e775780601f10610e4c57610100808354040283529160200191610e77565b820191906000526020600020905b815481529060010190602001808311610e5a57829003601f168201915b505050505081526020016008820154815260200160098201548152602001600a820154815250509050919050565b6000600454905090565b6000602052806000526040600020600091509050806000018054610ed2906122fa565b80601f0160208091040260200160405190810160405280929190818152602001828054610efe906122fa565b8015610f4b5780601f10610f2057610100808354040283529160200191610f4b565b820191906000526020600020905b815481529060010190602001808311610f2e57829003601f168201915b505050505090806001018054610f60906122fa565b80601f0160208091040260200160405190810160405280929190818152602001828054610f8c906122fa565b8015610fd95780601f10610fae57610100808354040283529160200191610fd9565b820191906000526020600020905b815481529060010190602001808311610fbc57829003601f168201915b505050505090806002018054610fee906122fa565b80601f016020809104026020016040519081016040528092919081815260200182805461101a906122fa565b80156110675780601f1061103c57610100808354040283529160200191611067565b820191906000526020600020905b81548152906001019060200180831161104a57829003601f168201915b5050505050905083565b600047905090565b600360205280600052604060002060009150905080600001805461109c906122fa565b80601f01602080910402602001604051908101604052809291908181526020018280546110c8906122fa565b80156111155780601f106110ea57610100808354040283529160200191611115565b820191906000526020600020905b8154815290600101906020018083116110f857829003601f168201915b50505050509080600101805461112a906122fa565b80601f0160208091040260200160405190810160405280929190818152602001828054611156906122fa565b80156111a35780601f10611178576101008083540402835291602001916111a3565b820191906000526020600020905b81548152906001019060200180831161118657829003601f168201915b5050505050908060020180546111b8906122fa565b80601f01602080910402602001604051908101604052809291908181526020018280546111e4906122fa565b80156112315780601f1061120657610100808354040283529160200191611231565b820191906000526020600020905b81548152906001019060200180831161121457829003601f168201915b5050505050905083565b60045481565b60405180606001604052808381526020018281526020016040518060400160405280601281526020017f736166657479636f6d6d697373696f6e65720000000000000000000000000000815250815250600360003373ffffffffffffffffffffffffffffffffffffffff1673ffffffffffffffffffffffffffffffffffffffff16815260200190815260200160002060008201518160000190816112e591906124d7565b5060208201518160010190816112fb91906124d7565b50604082015181600201908161131191906124d7565b509050505050565b875189511461135d576040517f08c379a00000000000000000000000000000000000000000000000000000000081526004016113549061261b565b60405180910390fd5b600460008154809291906113709061266a565b919050555060006040518061016001604052808d81526020018c81526020018b81526020018a815260200189815260200188815260200187815260200186815260200185815260200184815260200183815250905080600560008e81526020019081526020016000206000820151816000015560208201518160010190816113f891906124d7565b5060408201518160020190805190602001906114159291906116d9565b506060820151816003019080519060200190611432929190611732565b50608082015181600401908161144891906124d7565b5060a082015181600501908161145e91906124d7565b5060c082015181600601908161147491906124d7565b5060e082015181600701908161148a91906124d7565b506101008201518160080155610120820151816009015561014082015181600a0155905050505050505050505050505050565b60016020528060005260406000206000915090508060000180546114e0906122fa565b80601f016020809104026020016040519081016040528092919081815260200182805461150c906122fa565b80156115595780601f1061152e57610100808354040283529160200191611559565b820191906000526020600020905b81548152906001019060200180831161153c57829003601f168201915b50505050509080600101805461156e906122fa565b80601f016020809104026020016040519081016040528092919081815260200182805461159a906122fa565b80156115e75780601f106115bc576101008083540402835291602001916115e7565b820191906000526020600020905b8154815290600101906020018083116115ca57829003601f168201915b5050505050908060020180546115fc906122fa565b80601f0160208091040260200160405190810160405280929190818152602001828054611628906122fa565b80156116755780601f1061164a57610100808354040283529160200191611675565b820191906000526020600020905b81548152906001019060200180831161165857829003601f168201915b5050505050905083565b60405180610160016040528060008152602001606081526020016060815260200160608152602001606081526020016060815260200160608152602001606081526020016000815260200160008152602001600081525090565b828054828255906000526020600020908101928215611721579160200282015b8281111561172057825182908161171091906124d7565b50916020019190600101906116f9565b5b50905061172e919061177f565b5090565b82805482825590600052602060002090810192821561176e579160200282015b8281111561176d578251825591602001919060010190611752565b5b50905061177b91906117a3565b5090565b5b8082111561179f576000818161179691906117c0565b50600101611780565b5090565b5b808211156117bc5760008160009055506001016117a4565b5090565b5080546117cc906122fa565b6000825580601f106117de57506117fd565b601f0160209004906000526020600020908101906117fc91906117a3565b5b50565b6000604051905090565b600080fd5b600080fd5b6000819050919050565b61182781611814565b811461183257600080fd5b50565b6000813590506118448161181e565b92915050565b6000602082840312156118605761185f61180a565b5b600061186e84828501611835565b91505092915050565b61188081611814565b82525050565b600081519050919050565b600082825260208201905092915050565b60005b838110156118c05780820151818401526020810190506118a5565b60008484015250505050565b6000601f19601f8301169050919050565b60006118e882611886565b6118f28185611891565b93506119028185602086016118a2565b61190b816118cc565b840191505092915050565b60006101208201905061192c600083018c611877565b818103602083015261193e818b6118dd565b90508181036040830152611952818a6118dd565b9050818103606083015261196681896118dd565b9050818103608083015261197a81886118dd565b905081810360a083015261198e81876118dd565b905061199d60c0830186611877565b6119aa60e0830185611877565b6119b8610100830184611877565b9a9950505050505050505050565b600080fd5b600080fd5b7f4e487b7100000000000000000000000000000000000000000000000000000000600052604160045260246000fd5b611a08826118cc565b810181811067ffffffffffffffff82111715611a2757611a266119d0565b5b80604052505050565b6000611a3a611800565b9050611a4682826119ff565b919050565b600067ffffffffffffffff821115611a6657611a656119d0565b5b611a6f826118cc565b9050602081019050919050565b82818337600083830152505050565b6000611a9e611a9984611a4b565b611a30565b905082815260208101848484011115611aba57611ab96119cb565b5b611ac5848285611a7c565b509392505050565b600082601f830112611ae257611ae16119c6565b5b8135611af2848260208601611a8b565b91505092915050565b60008060408385031215611b1257611b1161180a565b5b600083013567ffffffffffffffff811115611b3057611b2f61180f565b5b611b3c85828601611acd565b925050602083013567ffffffffffffffff811115611b5d57611b5c61180f565b5b611b6985828601611acd565b9150509250929050565b600073ffffffffffffffffffffffffffffffffffffffff82169050919050565b6000611b9e82611b73565b9050919050565b611bae81611b93565b8114611bb957600080fd5b50565b600081359050611bcb81611ba5565b92915050565b600060208284031215611be757611be661180a565b5b6000611bf584828501611bbc565b91505092915050565b60006060820190508181036000830152611c1881866118dd565b90508181036020830152611c2c81856118dd565b90508181036040830152611c4081846118dd565b9050949350505050565b611c5381611814565b82525050565b600082825260208201905092915050565b6000611c7582611886565b611c7f8185611c59565b9350611c8f8185602086016118a2565b611c98816118cc565b840191505092915050565b600081519050919050565b600082825260208201905092915050565b6000819050602082019050919050565b6000611cdb8383611c6a565b905092915050565b6000602082019050919050565b6000611cfb82611ca3565b611d058185611cae565b935083602082028501611d1785611cbf565b8060005b85811015611d535784840389528151611d348582611ccf565b9450611d3f83611ce3565b925060208a01995050600181019050611d1b565b50829750879550505050505092915050565b600081519050919050565b600082825260208201905092915050565b6000819050602082019050919050565b6000611d9d8383611c4a565b60208301905092915050565b6000602082019050919050565b6000611dc182611d65565b611dcb8185611d70565b9350611dd683611d81565b8060005b83811015611e07578151611dee8882611d91565b9750611df983611da9565b925050600181019050611dda565b5085935050505092915050565b600061016083016000830151611e2d6000860182611c4a565b5060208301518482036020860152611e458282611c6a565b91505060408301518482036040860152611e5f8282611cf0565b91505060608301518482036060860152611e798282611db6565b91505060808301518482036080860152611e938282611c6a565b91505060a083015184820360a0860152611ead8282611c6a565b91505060c083015184820360c0860152611ec78282611c6a565b91505060e083015184820360e0860152611ee18282611c6a565b915050610100830151611ef8610100860182611c4a565b50610120830151611f0d610120860182611c4a565b50610140830151611f22610140860182611c4a565b508091505092915050565b60006020820190508181036000830152611f478184611e14565b905092915050565b6000602082019050611f646000830184611877565b92915050565b600067ffffffffffffffff821115611f8557611f846119d0565b5b602082029050602081019050919050565b600080fd5b6000611fae611fa984611f6a565b611a30565b90508083825260208201905060208402830185811115611fd157611fd0611f96565b5b835b8181101561201857803567ffffffffffffffff811115611ff657611ff56119c6565b5b8086016120038982611acd565b85526020850194505050602081019050611fd3565b5050509392505050565b600082601f830112612037576120366119c6565b5b8135612047848260208601611f9b565b91505092915050565b600067ffffffffffffffff82111561206b5761206a6119d0565b5b602082029050602081019050919050565b600061208f61208a84612050565b611a30565b905080838252602082019050602084028301858111156120b2576120b1611f96565b5b835b818110156120db57806120c78882611835565b8452602084019350506020810190506120b4565b5050509392505050565b600082601f8301126120fa576120f96119c6565b5b813561210a84826020860161207c565b91505092915050565b60008060008060008060008060008060006101608c8e0312156121395761213861180a565b5b60006121478e828f01611835565b9b505060208c013567ffffffffffffffff8111156121685761216761180f565b5b6121748e828f01611acd565b9a505060408c013567ffffffffffffffff8111156121955761219461180f565b5b6121a18e828f01612022565b99505060608c013567ffffffffffffffff8111156121c2576121c161180f565b5b6121ce8e828f016120e5565b98505060808c013567ffffffffffffffff8111156121ef576121ee61180f565b5b6121fb8e828f01611acd565b97505060a08c013567ffffffffffffffff81111561221c5761221b61180f565b5b6122288e828f01611acd565b96505060c08c013567ffffffffffffffff8111156122495761224861180f565b5b6122558e828f01611acd565b95505060e08c013567ffffffffffffffff8111156122765761227561180f565b5b6122828e828f01611acd565b9450506101006122948e828f01611835565b9350506101206122a68e828f01611835565b9250506101406122b88e828f01611835565b9150509295989b509295989b9093969950565b7f4e487b7100000000000000000000000000000000000000000000000000000000600052602260045260246000fd5b6000600282049050600182168061231257607f821691505b602082108103612325576123246122cb565b5b50919050565b60008190508160005260206000209050919050565b60006020601f8301049050919050565b600082821b905092915050565b60006008830261238d7fffffffffffffffffffffffffffffffffffffffffffffffffffffffffffffffff82612350565b6123978683612350565b95508019841693508086168417925050509392505050565b6000819050919050565b60006123d46123cf6123ca84611814565b6123af565b611814565b9050919050565b6000819050919050565b6123ee836123b9565b6124026123fa826123db565b84845461235d565b825550505050565b600090565b61241761240a565b6124228184846123e5565b505050565b5b818110156124465761243b60008261240f565b600181019050612428565b5050565b601f82111561248b5761245c8161232b565b61246584612340565b81016020851015612474578190505b61248861248085612340565b830182612427565b50505b505050565b600082821c905092915050565b60006124ae60001984600802612490565b1980831691505092915050565b60006124c7838361249d565b9150826002028217905092915050565b6124e082611886565b67ffffffffffffffff8111156124f9576124f86119d0565b5b61250382546122fa565b61250e82828561244a565b600060209050601f831160018114612541576000841561252f578287015190505b61253985826124bb565b8655506125a1565b601f19841661254f8661232b565b60005b8281101561257757848901518255600182019150602085019450602081019050612552565b868310156125945784890151612590601f89168261249d565b8355505b6001600288020188555050505b505050505050565b7f496e6772656469656e747320616e64207175616e74697479206172726179732060008201527f6d7573742068617665207468652073616d65206c656e67746800000000000000602082015250565b6000612605603983611891565b9150612610826125a9565b604082019050919050565b60006020820190508181036000830152612634816125f8565b9050919050565b7f4e487b7100000000000000000000000000000000000000000000000000000000600052601160045260246000fd5b600061267582611814565b91507fffffffffffffffffffffffffffffffffffffffffffffffffffffffffffffffff82036126a7576126a661263b565b5b60018201905091905056fea26469706673582212207f286057a36b0373ef5ca69b6e9a6422d77ede16e2a5d5ef8767f2faede27d6464736f6c63430008130033",
  "linkReferences": {},
  "deployedLinkReferences": {}
}