{
  "_format": "hh-sol-artifact-1",
  "contractName": "Crusader",
  "sourceName": "contracts/Crusader.sol",
  "abi": [
    {
      "inputs": [
        {
          "internalType": "uint256",
          "name": "_id",
          "type": "uint256"
        },
        {
          "internalType": "string",
          "name": "_name",
          "type": "string"
        },
        {
          "internalType": "string[]",
          "name": "_ingredients",
          "type": "string[]"
        },
        {
          "internalType": "uint256[]",
          "name": "_quantity",
          "type": "uint256[]"
        },
        {
          "internalType": "string",
          "name": "_intendedUse",
          "type": "string"
        },
        {
          "internalType": "string",
          "name": "_functionalUse",
          "type": "string"
        },
        {
          "internalType": "string",
          "name": "_manufacturingProcess",
          "type": "string"
        },
        {
          "internalType": "string",
          "name": "_nutritionalBenefits",
          "type": "string"
        },
        {
          "internalType": "uint256",
          "name": "_fatPercentage",
          "type": "uint256"
        },
        {
          "internalType": "uint256",
          "name": "_proteinPercentage",
          "type": "uint256"
        },
        {
          "internalType": "uint256",
          "name": "_carbohydratePercentage",
          "type": "uint256"
        }
      ],
      "name": "addProduct",
      "outputs": [],
      "stateMutability": "nonpayable",
      "type": "function"
    },
    {
      "inputs": [
        {
          "internalType": "address",
          "name": "",
          "type": "address"
        }
      ],
      "name": "analysts",
      "outputs": [
        {
          "internalType": "string",
          "name": "username",
          "type": "string"
        },
        {
          "internalType": "string",
          "name": "password",
          "type": "string"
        },
        {
          "internalType": "string",
          "name": "entity",
          "type": "string"
        }
      ],
      "stateMutability": "view",
      "type": "function"
    },
    {
      "inputs": [
        {
          "internalType": "bytes32",
          "name": "_txHash",
          "type": "bytes32"
        }
      ],
      "name": "approveProductByFSC",
      "outputs": [
        {
          "components": [
            {
              "internalType": "uint256",
              "name": "id",
              "type": "uint256"
            },
            {
              "internalType": "string",
              "name": "name",
              "type": "string"
            },
            {
              "internalType": "string[]",
              "name": "ingredients",
              "type": "string[]"
            },
            {
              "internalType": "uint256[]",
              "name": "quantity",
              "type": "uint256[]"
            },
            {
              "internalType": "string",
              "name": "intendedUse",
              "type": "string"
            },
            {
              "internalType": "string",
              "name": "functionalUse",
              "type": "string"
            },
            {
              "internalType": "string",
              "name": "manufacturingProcess",
              "type": "string"
            },
            {
              "internalType": "string",
              "name": "nutritionalBenefits",
              "type": "string"
            },
            {
              "internalType": "uint256",
              "name": "fatPercentage",
              "type": "uint256"
            },
            {
              "internalType": "uint256",
              "name": "proteinPercentage",
              "type": "uint256"
            },
            {
              "internalType": "uint256",
              "name": "carbohydratePercentage",
              "type": "uint256"
            },
            {
              "internalType": "enum Crusader.ApprovalStatus",
              "name": "foodSafetyOfficerApproval",
              "type": "uint8"
            },
            {
              "internalType": "enum Crusader.ApprovalStatus",
              "name": "foodAnalystApproval",
              "type": "uint8"
            },
            {
              "internalType": "enum Crusader.ApprovalStatus",
              "name": "fscApproval",
              "type": "uint8"
            }
          ],
          "internalType": "struct Crusader.ProductDetails",
          "name": "",
          "type": "tuple"
        }
      ],
      "stateMutability": "nonpayable",
      "type": "function"
    },
    {
      "inputs": [
        {
          "internalType": "bytes32",
          "name": "_txHash",
          "type": "bytes32"
        }
      ],
      "name": "approveProductByFoodAnalyst",
      "outputs": [
        {
          "components": [
            {
              "internalType": "uint256",
              "name": "id",
              "type": "uint256"
            },
            {
              "internalType": "string",
              "name": "name",
              "type": "string"
            },
            {
              "internalType": "string[]",
              "name": "ingredients",
              "type": "string[]"
            },
            {
              "internalType": "uint256[]",
              "name": "quantity",
              "type": "uint256[]"
            },
            {
              "internalType": "string",
              "name": "intendedUse",
              "type": "string"
            },
            {
              "internalType": "string",
              "name": "functionalUse",
              "type": "string"
            },
            {
              "internalType": "string",
              "name": "manufacturingProcess",
              "type": "string"
            },
            {
              "internalType": "string",
              "name": "nutritionalBenefits",
              "type": "string"
            },
            {
              "internalType": "uint256",
              "name": "fatPercentage",
              "type": "uint256"
            },
            {
              "internalType": "uint256",
              "name": "proteinPercentage",
              "type": "uint256"
            },
            {
              "internalType": "uint256",
              "name": "carbohydratePercentage",
              "type": "uint256"
            },
            {
              "internalType": "enum Crusader.ApprovalStatus",
              "name": "foodSafetyOfficerApproval",
              "type": "uint8"
            },
            {
              "internalType": "enum Crusader.ApprovalStatus",
              "name": "foodAnalystApproval",
              "type": "uint8"
            },
            {
              "internalType": "enum Crusader.ApprovalStatus",
              "name": "fscApproval",
              "type": "uint8"
            }
          ],
          "internalType": "struct Crusader.ProductDetails",
          "name": "",
          "type": "tuple"
        }
      ],
      "stateMutability": "nonpayable",
      "type": "function"
    },
    {
      "inputs": [
        {
          "internalType": "bytes32",
          "name": "_txHash",
          "type": "bytes32"
        }
      ],
      "name": "approveProductByFoodSafetyOfficer",
      "outputs": [
        {
          "components": [
            {
              "internalType": "uint256",
              "name": "id",
              "type": "uint256"
            },
            {
              "internalType": "string",
              "name": "name",
              "type": "string"
            },
            {
              "internalType": "string[]",
              "name": "ingredients",
              "type": "string[]"
            },
            {
              "internalType": "uint256[]",
              "name": "quantity",
              "type": "uint256[]"
            },
            {
              "internalType": "string",
              "name": "intendedUse",
              "type": "string"
            },
            {
              "internalType": "string",
              "name": "functionalUse",
              "type": "string"
            },
            {
              "internalType": "string",
              "name": "manufacturingProcess",
              "type": "string"
            },
            {
              "internalType": "string",
              "name": "nutritionalBenefits",
              "type": "string"
            },
            {
              "internalType": "uint256",
              "name": "fatPercentage",
              "type": "uint256"
            },
            {
              "internalType": "uint256",
              "name": "proteinPercentage",
              "type": "uint256"
            },
            {
              "internalType": "uint256",
              "name": "carbohydratePercentage",
              "type": "uint256"
            },
            {
              "internalType": "enum Crusader.ApprovalStatus",
              "name": "foodSafetyOfficerApproval",
              "type": "uint8"
            },
            {
              "internalType": "enum Crusader.ApprovalStatus",
              "name": "foodAnalystApproval",
              "type": "uint8"
            },
            {
              "internalType": "enum Crusader.ApprovalStatus",
              "name": "fscApproval",
              "type": "uint8"
            }
          ],
          "internalType": "struct Crusader.ProductDetails",
          "name": "",
          "type": "tuple"
        }
      ],
      "stateMutability": "nonpayable",
      "type": "function"
    },
    {
      "inputs": [
        {
          "internalType": "uint256",
          "name": "",
          "type": "uint256"
        }
      ],
      "name": "foodAnalystApprovalTimestamps",
      "outputs": [
        {
          "internalType": "uint256",
          "name": "",
          "type": "uint256"
        }
      ],
      "stateMutability": "view",
      "type": "function"
    },
    {
      "inputs": [
        {
          "internalType": "uint256",
          "name": "",
          "type": "uint256"
        }
      ],
      "name": "foodAnalystApprovers",
      "outputs": [
        {
          "internalType": "address",
          "name": "",
          "type": "address"
        }
      ],
      "stateMutability": "view",
      "type": "function"
    },
    {
      "inputs": [
        {
          "internalType": "address",
          "name": "",
          "type": "address"
        },
        {
          "internalType": "uint256",
          "name": "",
          "type": "uint256"
        }
      ],
      "name": "foodProducts",
      "outputs": [
        {
          "internalType": "uint256",
          "name": "id",
          "type": "uint256"
        },
        {
          "internalType": "string",
          "name": "name",
          "type": "string"
        },
        {
          "internalType": "string",
          "name": "intendedUse",
          "type": "string"
        },
        {
          "internalType": "string",
          "name": "functionalUse",
          "type": "string"
        },
        {
          "internalType": "string",
          "name": "manufacturingProcess",
          "type": "string"
        },
        {
          "internalType": "string",
          "name": "nutritionalBenefits",
          "type": "string"
        },
        {
          "internalType": "uint256",
          "name": "fatPercentage",
          "type": "uint256"
        },
        {
          "internalType": "uint256",
          "name": "proteinPercentage",
          "type": "uint256"
        },
        {
          "internalType": "uint256",
          "name": "carbohydratePercentage",
          "type": "uint256"
        },
        {
          "internalType": "enum Crusader.ApprovalStatus",
          "name": "foodSafetyOfficerApproval",
          "type": "uint8"
        },
        {
          "internalType": "enum Crusader.ApprovalStatus",
          "name": "foodAnalystApproval",
          "type": "uint8"
        },
        {
          "internalType": "enum Crusader.ApprovalStatus",
          "name": "fscApproval",
          "type": "uint8"
        }
      ],
      "stateMutability": "view",
      "type": "function"
    },
    {
      "inputs": [
        {
          "internalType": "uint256",
          "name": "",
          "type": "uint256"
        }
      ],
      "name": "foodSafetyComissionerApprovers",
      "outputs": [
        {
          "internalType": "address",
          "name": "",
          "type": "address"
        }
      ],
      "stateMutability": "view",
      "type": "function"
    },
    {
      "inputs": [
        {
          "internalType": "uint256",
          "name": "",
          "type": "uint256"
        }
      ],
      "name": "foodSafetyComissionerTimestamps",
      "outputs": [
        {
          "internalType": "uint256",
          "name": "",
          "type": "uint256"
        }
      ],
      "stateMutability": "view",
      "type": "function"
    },
    {
      "inputs": [
        {
          "internalType": "uint256",
          "name": "",
          "type": "uint256"
        }
      ],
      "name": "foodSafetyOfficerApprovalTimestamps",
      "outputs": [
        {
          "internalType": "uint256",
          "name": "",
          "type": "uint256"
        }
      ],
      "stateMutability": "view",
      "type": "function"
    },
    {
      "inputs": [
        {
          "internalType": "uint256",
          "name": "",
          "type": "uint256"
        }
      ],
      "name": "foodSafetyOfficerApprovers",
      "outputs": [
        {
          "internalType": "address",
          "name": "",
          "type": "address"
        }
      ],
      "stateMutability": "view",
      "type": "function"
    },
    {
      "inputs": [],
      "name": "getAllProducts",
      "outputs": [
        {
          "components": [
            {
              "internalType": "uint256",
              "name": "id",
              "type": "uint256"
            },
            {
              "internalType": "string",
              "name": "name",
              "type": "string"
            },
            {
              "internalType": "string[]",
              "name": "ingredients",
              "type": "string[]"
            },
            {
              "internalType": "uint256[]",
              "name": "quantity",
              "type": "uint256[]"
            },
            {
              "internalType": "string",
              "name": "intendedUse",
              "type": "string"
            },
            {
              "internalType": "string",
              "name": "functionalUse",
              "type": "string"
            },
            {
              "internalType": "string",
              "name": "manufacturingProcess",
              "type": "string"
            },
            {
              "internalType": "string",
              "name": "nutritionalBenefits",
              "type": "string"
            },
            {
              "internalType": "uint256",
              "name": "fatPercentage",
              "type": "uint256"
            },
            {
              "internalType": "uint256",
              "name": "proteinPercentage",
              "type": "uint256"
            },
            {
              "internalType": "uint256",
              "name": "carbohydratePercentage",
              "type": "uint256"
            },
            {
              "internalType": "enum Crusader.ApprovalStatus",
              "name": "foodSafetyOfficerApproval",
              "type": "uint8"
            },
            {
              "internalType": "enum Crusader.ApprovalStatus",
              "name": "foodAnalystApproval",
              "type": "uint8"
            },
            {
              "internalType": "enum Crusader.ApprovalStatus",
              "name": "fscApproval",
              "type": "uint8"
            }
          ],
          "internalType": "struct Crusader.ProductDetails[]",
          "name": "",
          "type": "tuple[]"
        }
      ],
      "stateMutability": "view",
      "type": "function"
    },
    {
      "inputs": [
        {
          "internalType": "uint256",
          "name": "_productId",
          "type": "uint256"
        }
      ],
      "name": "getFoodAnalystApprovalTimestamp",
      "outputs": [
        {
          "internalType": "uint256",
          "name": "",
          "type": "uint256"
        }
      ],
      "stateMutability": "view",
      "type": "function"
    },
    {
      "inputs": [
        {
          "internalType": "uint256",
          "name": "_productId",
          "type": "uint256"
        }
      ],
      "name": "getFoodAnalystApprover",
      "outputs": [
        {
          "internalType": "address",
          "name": "",
          "type": "address"
        }
      ],
      "stateMutability": "view",
      "type": "function"
    },
    {
      "inputs": [
        {
          "internalType": "uint256",
          "name": "_productId",
          "type": "uint256"
        }
      ],
      "name": "getFoodSafetyComissionerApprovalTimestamp",
      "outputs": [
        {
          "internalType": "uint256",
          "name": "",
          "type": "uint256"
        }
      ],
      "stateMutability": "view",
      "type": "function"
    },
    {
      "inputs": [
        {
          "internalType": "uint256",
          "name": "_productId",
          "type": "uint256"
        }
      ],
      "name": "getFoodSafetyComissionerApprover",
      "outputs": [
        {
          "internalType": "address",
          "name": "",
          "type": "address"
        }
      ],
      "stateMutability": "view",
      "type": "function"
    },
    {
      "inputs": [
        {
          "internalType": "uint256",
          "name": "_productId",
          "type": "uint256"
        }
      ],
      "name": "getFoodSafetyOfficerApprovalTimestamp",
      "outputs": [
        {
          "internalType": "uint256",
          "name": "",
          "type": "uint256"
        }
      ],
      "stateMutability": "view",
      "type": "function"
    },
    {
      "inputs": [
        {
          "internalType": "uint256",
          "name": "_productId",
          "type": "uint256"
        }
      ],
      "name": "getFoodSafetyOfficerApprover",
      "outputs": [
        {
          "internalType": "address",
          "name": "",
          "type": "address"
        }
      ],
      "stateMutability": "view",
      "type": "function"
    },
    {
      "inputs": [
        {
          "internalType": "uint256",
          "name": "_id",
          "type": "uint256"
        }
      ],
      "name": "getIdtoTxHash",
      "outputs": [
        {
          "internalType": "bytes32",
          "name": "",
          "type": "bytes32"
        }
      ],
      "stateMutability": "view",
      "type": "function"
    },
    {
      "inputs": [
        {
          "internalType": "uint256",
          "name": "_id",
          "type": "uint256"
        }
      ],
      "name": "getProductById",
      "outputs": [
        {
          "components": [
            {
              "internalType": "uint256",
              "name": "id",
              "type": "uint256"
            },
            {
              "internalType": "string",
              "name": "name",
              "type": "string"
            },
            {
              "internalType": "string[]",
              "name": "ingredients",
              "type": "string[]"
            },
            {
              "internalType": "uint256[]",
              "name": "quantity",
              "type": "uint256[]"
            },
            {
              "internalType": "string",
              "name": "intendedUse",
              "type": "string"
            },
            {
              "internalType": "string",
              "name": "functionalUse",
              "type": "string"
            },
            {
              "internalType": "string",
              "name": "manufacturingProcess",
              "type": "string"
            },
            {
              "internalType": "string",
              "name": "nutritionalBenefits",
              "type": "string"
            },
            {
              "internalType": "uint256",
              "name": "fatPercentage",
              "type": "uint256"
            },
            {
              "internalType": "uint256",
              "name": "proteinPercentage",
              "type": "uint256"
            },
            {
              "internalType": "uint256",
              "name": "carbohydratePercentage",
              "type": "uint256"
            },
            {
              "internalType": "enum Crusader.ApprovalStatus",
              "name": "foodSafetyOfficerApproval",
              "type": "uint8"
            },
            {
              "internalType": "enum Crusader.ApprovalStatus",
              "name": "foodAnalystApproval",
              "type": "uint8"
            },
            {
              "internalType": "enum Crusader.ApprovalStatus",
              "name": "fscApproval",
              "type": "uint8"
            }
          ],
          "internalType": "struct Crusader.ProductDetails",
          "name": "",
          "type": "tuple"
        }
      ],
      "stateMutability": "view",
      "type": "function"
    },
    {
      "inputs": [
        {
          "internalType": "uint256",
          "name": "",
          "type": "uint256"
        }
      ],
      "name": "idToTxHash",
      "outputs": [
        {
          "internalType": "bytes32",
          "name": "",
          "type": "bytes32"
        }
      ],
      "stateMutability": "view",
      "type": "function"
    },
    {
      "inputs": [
        {
          "internalType": "address",
          "name": "",
          "type": "address"
        }
      ],
      "name": "manufacturers",
      "outputs": [
        {
          "internalType": "string",
          "name": "username",
          "type": "string"
        },
        {
          "internalType": "string",
          "name": "password",
          "type": "string"
        },
        {
          "internalType": "string",
          "name": "entity",
          "type": "string"
        }
      ],
      "stateMutability": "view",
      "type": "function"
    },
    {
      "inputs": [
        {
          "internalType": "uint256",
          "name": "",
          "type": "uint256"
        }
      ],
      "name": "productsIdMapping",
      "outputs": [
        {
          "internalType": "uint256",
          "name": "id",
          "type": "uint256"
        },
        {
          "internalType": "string",
          "name": "name",
          "type": "string"
        },
        {
          "internalType": "string",
          "name": "intendedUse",
          "type": "string"
        },
        {
          "internalType": "string",
          "name": "functionalUse",
          "type": "string"
        },
        {
          "internalType": "string",
          "name": "manufacturingProcess",
          "type": "string"
        },
        {
          "internalType": "string",
          "name": "nutritionalBenefits",
          "type": "string"
        },
        {
          "internalType": "uint256",
          "name": "fatPercentage",
          "type": "uint256"
        },
        {
          "internalType": "uint256",
          "name": "proteinPercentage",
          "type": "uint256"
        },
        {
          "internalType": "uint256",
          "name": "carbohydratePercentage",
          "type": "uint256"
        },
        {
          "internalType": "enum Crusader.ApprovalStatus",
          "name": "foodSafetyOfficerApproval",
          "type": "uint8"
        },
        {
          "internalType": "enum Crusader.ApprovalStatus",
          "name": "foodAnalystApproval",
          "type": "uint8"
        },
        {
          "internalType": "enum Crusader.ApprovalStatus",
          "name": "fscApproval",
          "type": "uint8"
        }
      ],
      "stateMutability": "view",
      "type": "function"
    },
    {
      "inputs": [
        {
          "internalType": "string",
          "name": "_username",
          "type": "string"
        },
        {
          "internalType": "string",
          "name": "_password",
          "type": "string"
        }
      ],
      "name": "registerAnalyst",
      "outputs": [],
      "stateMutability": "nonpayable",
      "type": "function"
    },
    {
      "inputs": [
        {
          "internalType": "string",
          "name": "_username",
          "type": "string"
        },
        {
          "internalType": "string",
          "name": "_password",
          "type": "string"
        }
      ],
      "name": "registerCommissioner",
      "outputs": [],
      "stateMutability": "nonpayable",
      "type": "function"
    },
    {
      "inputs": [
        {
          "internalType": "string",
          "name": "_username",
          "type": "string"
        },
        {
          "internalType": "string",
          "name": "_password",
          "type": "string"
        }
      ],
      "name": "registerManufacturer",
      "outputs": [],
      "stateMutability": "nonpayable",
      "type": "function"
    },
    {
      "inputs": [
        {
          "internalType": "string",
          "name": "_username",
          "type": "string"
        },
        {
          "internalType": "string",
          "name": "_password",
          "type": "string"
        }
      ],
      "name": "registerSafetyOfficer",
      "outputs": [],
      "stateMutability": "nonpayable",
      "type": "function"
    },
    {
      "inputs": [
        {
          "internalType": "address",
          "name": "",
          "type": "address"
        }
      ],
      "name": "safetycommissioners",
      "outputs": [
        {
          "internalType": "string",
          "name": "username",
          "type": "string"
        },
        {
          "internalType": "string",
          "name": "password",
          "type": "string"
        },
        {
          "internalType": "string",
          "name": "entity",
          "type": "string"
        }
      ],
      "stateMutability": "view",
      "type": "function"
    },
    {
      "inputs": [
        {
          "internalType": "address",
          "name": "",
          "type": "address"
        }
      ],
      "name": "safetyofficers",
      "outputs": [
        {
          "internalType": "string",
          "name": "username",
          "type": "string"
        },
        {
          "internalType": "string",
          "name": "password",
          "type": "string"
        },
        {
          "internalType": "string",
          "name": "entity",
          "type": "string"
        }
      ],
      "stateMutability": "view",
      "type": "function"
    },
    {
      "inputs": [
        {
          "internalType": "bytes32",
          "name": "",
          "type": "bytes32"
        }
      ],
      "name": "txHashToProductId",
      "outputs": [
        {
          "internalType": "uint256",
          "name": "",
          "type": "uint256"
        }
      ],
      "stateMutability": "view",
      "type": "function"
    }
  ],
  "bytecode": "0x608060405234801561001057600080fd5b506159db80620000216000396000f3fe608060405234801561001057600080fd5b50600436106101e55760003560e01c80636970c35b1161010f578063c277a550116100a2578063ca4fc08e11610071578063ca4fc08e146106a0578063dc9784e7146106d0578063ec72848314610700578063fa720d8614610730576101e5565b8063c277a550146105f4578063c50b726f14610610578063c5c8f89f14610640578063c72c692114610670576101e5565b806397970b2f116100de57806397970b2f14610546578063992c086114610576578063b20d4c51146105a8578063b78deb43146105c4576101e5565b80636970c35b146104845780636b5eb09c146104b457806379bb290b146104e65780639697384a14610516576101e5565b8063246681e61161018757806330b15caa1161015657806330b15caa146103cd5780633de14ef9146103e95780633f70c2b414610419578063600f223d14610449576101e5565b8063246681e61461030b57806327aa2a431461033d5780632d236ec31461036d5780632ddd38131461039d576101e5565b80630e9e7ad3116101c35780630e9e7ad3146102735780631029a604146102a357806319e75151146102d35780631e608f46146102ef576101e5565b80630254ce2c146101ea57806302ee3a521461021a57806305300de214610238575b600080fd5b61020460048036038101906101ff91906142a4565b610762565b6040516102119190614312565b60405180910390f35b610222610795565b60405161022f91906147ce565b60405180910390f35b610252600480360381019061024d91906142a4565b610d16565b60405161026a9c9b9a99989796959493929190614858565b60405180910390f35b61028d600480360381019061028891906142a4565b611045565b60405161029a9190614935565b60405180910390f35b6102bd60048036038101906102b89190614986565b611062565b6040516102ca9190614b0b565b60405180910390f35b6102ed60048036038101906102e89190614c62565b61176c565b005b61030960048036038101906103049190614c62565b6118c6565b005b61032560048036038101906103209190614d06565b611a20565b60405161033493929190614d33565b60405180910390f35b61035760048036038101906103529190614986565b611be2565b6040516103649190614b0b565b60405180910390f35b610387600480360381019061038291906142a4565b6122ec565b6040516103949190614312565b60405180910390f35b6103b760048036038101906103b291906142a4565b61231f565b6040516103c49190614312565b60405180910390f35b6103e760048036038101906103e29190614c62565b61235c565b005b61040360048036038101906103fe91906142a4565b6124b5565b6040516104109190614935565b60405180910390f35b610433600480360381019061042e91906142a4565b6124cd565b6040516104409190614b0b565b60405180910390f35b610463600480360381019061045e9190614d7f565b6129df565b60405161047b9c9b9a99989796959493929190614858565b60405180910390f35b61049e600480360381019061049991906142a4565b612d2b565b6040516104ab9190614312565b60405180910390f35b6104ce60048036038101906104c99190614d06565b612d5e565b6040516104dd93929190614d33565b60405180910390f35b61050060048036038101906104fb91906142a4565b612f20565b60405161050d9190614935565b60405180910390f35b610530600480360381019061052b91906142a4565b612f3d565b60405161053d9190614312565b60405180910390f35b610560600480360381019061055b9190614986565b612f7a565b60405161056d9190614935565b60405180910390f35b610590600480360381019061058b9190614d06565b612f92565b60405161059f93929190614d33565b60405180910390f35b6105c260048036038101906105bd9190614c62565b613154565b005b6105de60048036038101906105d99190614986565b6132ae565b6040516105eb9190614b0b565b60405180910390f35b61060e60048036038101906106099190614f68565b6139b8565b005b61062a600480360381019061062591906142a4565b613e0d565b604051610637919061512f565b60405180910390f35b61065a600480360381019061065591906142a4565b613e2a565b6040516106679190614935565b60405180910390f35b61068a600480360381019061068591906142a4565b613e47565b604051610697919061512f565b60405180910390f35b6106ba60048036038101906106b591906142a4565b613e5f565b6040516106c79190614935565b60405180910390f35b6106ea60048036038101906106e591906142a4565b613e77565b6040516106f79190614312565b60405180910390f35b61071a600480360381019061071591906142a4565b613eb4565b6040516107279190614935565b60405180910390f35b61074a60048036038101906107459190614d06565b613ecc565b60405161075993929190614d33565b60405180910390f35b60076020528060005260406000206000915054906101000a900473ffffffffffffffffffffffffffffffffffffffff1681565b6060600b60003373ffffffffffffffffffffffffffffffffffffffff1673ffffffffffffffffffffffffffffffffffffffff168152602001908152602001600020805480602002602001604051908101604052809291908181526020016000905b82821015610d0d57838290600052602060002090600c0201604051806101c00160405290816000820154815260200160018201805461083490615179565b80601f016020809104026020016040519081016040528092919081815260200182805461086090615179565b80156108ad5780601f10610882576101008083540402835291602001916108ad565b820191906000526020600020905b81548152906001019060200180831161089057829003601f168201915b5050505050815260200160028201805480602002602001604051908101604052809291908181526020016000905b828210156109875783829060005260206000200180546108fa90615179565b80601f016020809104026020016040519081016040528092919081815260200182805461092690615179565b80156109735780601f1061094857610100808354040283529160200191610973565b820191906000526020600020905b81548152906001019060200180831161095657829003601f168201915b5050505050815260200190600101906108db565b505050508152602001600382018054806020026020016040519081016040528092919081815260200182805480156109de57602002820191906000526020600020905b8154815260200190600101908083116109ca575b505050505081526020016004820180546109f790615179565b80601f0160208091040260200160405190810160405280929190818152602001828054610a2390615179565b8015610a705780601f10610a4557610100808354040283529160200191610a70565b820191906000526020600020905b815481529060010190602001808311610a5357829003601f168201915b50505050508152602001600582018054610a8990615179565b80601f0160208091040260200160405190810160405280929190818152602001828054610ab590615179565b8015610b025780601f10610ad757610100808354040283529160200191610b02565b820191906000526020600020905b815481529060010190602001808311610ae557829003601f168201915b50505050508152602001600682018054610b1b90615179565b80601f0160208091040260200160405190810160405280929190818152602001828054610b4790615179565b8015610b945780601f10610b6957610100808354040283529160200191610b94565b820191906000526020600020905b815481529060010190602001808311610b7757829003601f168201915b50505050508152602001600782018054610bad90615179565b80601f0160208091040260200160405190810160405280929190818152602001828054610bd990615179565b8015610c265780601f10610bfb57610100808354040283529160200191610c26565b820191906000526020600020905b815481529060010190602001808311610c0957829003601f168201915b505050505081526020016008820154815260200160098201548152602001600a8201548152602001600b820160009054906101000a900460ff166002811115610c7257610c71614569565b5b6002811115610c8457610c83614569565b5b8152602001600b820160019054906101000a900460ff166002811115610cad57610cac614569565b5b6002811115610cbf57610cbe614569565b5b8152602001600b820160029054906101000a900460ff166002811115610ce857610ce7614569565b5b6002811115610cfa57610cf9614569565b5b81525050815260200190600101906107f6565b50505050905090565b600c602052806000526040600020600091509050806000015490806001018054610d3f90615179565b80601f0160208091040260200160405190810160405280929190818152602001828054610d6b90615179565b8015610db85780601f10610d8d57610100808354040283529160200191610db8565b820191906000526020600020905b815481529060010190602001808311610d9b57829003601f168201915b505050505090806004018054610dcd90615179565b80601f0160208091040260200160405190810160405280929190818152602001828054610df990615179565b8015610e465780601f10610e1b57610100808354040283529160200191610e46565b820191906000526020600020905b815481529060010190602001808311610e2957829003601f168201915b505050505090806005018054610e5b90615179565b80601f0160208091040260200160405190810160405280929190818152602001828054610e8790615179565b8015610ed45780601f10610ea957610100808354040283529160200191610ed4565b820191906000526020600020905b815481529060010190602001808311610eb757829003601f168201915b505050505090806006018054610ee990615179565b80601f0160208091040260200160405190810160405280929190818152602001828054610f1590615179565b8015610f625780601f10610f3757610100808354040283529160200191610f62565b820191906000526020600020905b815481529060010190602001808311610f4557829003601f168201915b505050505090806007018054610f7790615179565b80601f0160208091040260200160405190810160405280929190818152602001828054610fa390615179565b8015610ff05780601f10610fc557610100808354040283529160200191610ff0565b820191906000526020600020905b815481529060010190602001808311610fd357829003601f168201915b50505050509080600801549080600901549080600a01549080600b0160009054906101000a900460ff169080600b0160019054906101000a900460ff169080600b0160029054906101000a900460ff1690508c565b600060066000838152602001908152602001600020549050919050565b61106a61408e565b6000600e60008481526020019081526020016000205490506000600c600083815260200190815260200160002090506040516020016110a890615201565b60405160208183030381529060405280519060200120600460003373ffffffffffffffffffffffffffffffffffffffff1673ffffffffffffffffffffffffffffffffffffffff16815260200190815260200160002060405160200161110d91906152ae565b6040516020818303038152906040528051906020012014611163576040517f08c379a000000000000000000000000000000000000000000000000000000000815260040161115a90615311565b60405180910390fd5b6000600281111561117757611176614569565b5b81600b0160019054906101000a900460ff16600281111561119b5761119a614569565b5b146111db576040517f08c379a00000000000000000000000000000000000000000000000000000000081526004016111d2906153a3565b60405180910390fd5b600181600b0160016101000a81548160ff0219169083600281111561120357611202614569565b5b0217905550336007600084815260200190815260200160002060006101000a81548173ffffffffffffffffffffffffffffffffffffffff021916908373ffffffffffffffffffffffffffffffffffffffff16021790555042600860008481526020019081526020016000208190555080604051806101c00160405290816000820154815260200160018201805461129990615179565b80601f01602080910402602001604051908101604052809291908181526020018280546112c590615179565b80156113125780601f106112e757610100808354040283529160200191611312565b820191906000526020600020905b8154815290600101906020018083116112f557829003601f168201915b5050505050815260200160028201805480602002602001604051908101604052809291908181526020016000905b828210156113ec57838290600052602060002001805461135f90615179565b80601f016020809104026020016040519081016040528092919081815260200182805461138b90615179565b80156113d85780601f106113ad576101008083540402835291602001916113d8565b820191906000526020600020905b8154815290600101906020018083116113bb57829003601f168201915b505050505081526020019060010190611340565b5050505081526020016003820180548060200260200160405190810160405280929190818152602001828054801561144357602002820191906000526020600020905b81548152602001906001019080831161142f575b5050505050815260200160048201805461145c90615179565b80601f016020809104026020016040519081016040528092919081815260200182805461148890615179565b80156114d55780601f106114aa576101008083540402835291602001916114d5565b820191906000526020600020905b8154815290600101906020018083116114b857829003601f168201915b505050505081526020016005820180546114ee90615179565b80601f016020809104026020016040519081016040528092919081815260200182805461151a90615179565b80156115675780601f1061153c57610100808354040283529160200191611567565b820191906000526020600020905b81548152906001019060200180831161154a57829003601f168201915b5050505050815260200160068201805461158090615179565b80601f01602080910402602001604051908101604052809291908181526020018280546115ac90615179565b80156115f95780601f106115ce576101008083540402835291602001916115f9565b820191906000526020600020905b8154815290600101906020018083116115dc57829003601f168201915b5050505050815260200160078201805461161290615179565b80601f016020809104026020016040519081016040528092919081815260200182805461163e90615179565b801561168b5780601f106116605761010080835404028352916020019161168b565b820191906000526020600020905b81548152906001019060200180831161166e57829003601f168201915b505050505081526020016008820154815260200160098201548152602001600a8201548152602001600b820160009054906101000a900460ff1660028111156116d7576116d6614569565b5b60028111156116e9576116e8614569565b5b8152602001600b820160019054906101000a900460ff16600281111561171257611711614569565b5b600281111561172457611723614569565b5b8152602001600b820160029054906101000a900460ff16600281111561174d5761174c614569565b5b600281111561175f5761175e614569565b5b8152505092505050919050565b60405180606001604052808381526020018281526020016040518060400160405280600781526020017f616e616c79737400000000000000000000000000000000000000000000000000815250815250600260003373ffffffffffffffffffffffffffffffffffffffff1673ffffffffffffffffffffffffffffffffffffffff1681526020019081526020016000206000820151816000019081611810919061555a565b506020820151816001019081611826919061555a565b50604082015181600201908161183c919061555a565b509050506040518060400160405280600781526020017f616e616c79737400000000000000000000000000000000000000000000000000815250600460003373ffffffffffffffffffffffffffffffffffffffff1673ffffffffffffffffffffffffffffffffffffffff16815260200190815260200160002090816118c1919061555a565b505050565b60405180606001604052808381526020018281526020016040518060400160405280600d81526020017f7361666574796f66666963657200000000000000000000000000000000000000815250815250600160003373ffffffffffffffffffffffffffffffffffffffff1673ffffffffffffffffffffffffffffffffffffffff168152602001908152602001600020600082015181600001908161196a919061555a565b506020820151816001019081611980919061555a565b506040820151816002019081611996919061555a565b509050506040518060400160405280600d81526020017f7361666574796f66666963657200000000000000000000000000000000000000815250600460003373ffffffffffffffffffffffffffffffffffffffff1673ffffffffffffffffffffffffffffffffffffffff1681526020019081526020016000209081611a1b919061555a565b505050565b6002602052806000526040600020600091509050806000018054611a4390615179565b80601f0160208091040260200160405190810160405280929190818152602001828054611a6f90615179565b8015611abc5780601f10611a9157610100808354040283529160200191611abc565b820191906000526020600020905b815481529060010190602001808311611a9f57829003601f168201915b505050505090806001018054611ad190615179565b80601f0160208091040260200160405190810160405280929190818152602001828054611afd90615179565b8015611b4a5780601f10611b1f57610100808354040283529160200191611b4a565b820191906000526020600020905b815481529060010190602001808311611b2d57829003601f168201915b505050505090806002018054611b5f90615179565b80601f0160208091040260200160405190810160405280929190818152602001828054611b8b90615179565b8015611bd85780601f10611bad57610100808354040283529160200191611bd8565b820191906000526020600020905b815481529060010190602001808311611bbb57829003601f168201915b5050505050905083565b611bea61408e565b6000600e60008481526020019081526020016000205490506000600c60008381526020019081526020016000209050604051602001611c2890615678565b60405160208183030381529060405280519060200120600460003373ffffffffffffffffffffffffffffffffffffffff1673ffffffffffffffffffffffffffffffffffffffff168152602001908152602001600020604051602001611c8d91906152ae565b6040516020818303038152906040528051906020012014611ce3576040517f08c379a0000000000000000000000000000000000000000000000000000000008152600401611cda906156ff565b60405180910390fd5b60006002811115611cf757611cf6614569565b5b81600b0160009054906101000a900460ff166002811115611d1b57611d1a614569565b5b14611d5b576040517f08c379a0000000000000000000000000000000000000000000000000000000008152600401611d5290615791565b60405180910390fd5b600181600b0160006101000a81548160ff02191690836002811115611d8357611d82614569565b5b0217905550336005600084815260200190815260200160002060006101000a81548173ffffffffffffffffffffffffffffffffffffffff021916908373ffffffffffffffffffffffffffffffffffffffff16021790555042600660008481526020019081526020016000208190555080604051806101c001604052908160008201548152602001600182018054611e1990615179565b80601f0160208091040260200160405190810160405280929190818152602001828054611e4590615179565b8015611e925780601f10611e6757610100808354040283529160200191611e92565b820191906000526020600020905b815481529060010190602001808311611e7557829003601f168201915b5050505050815260200160028201805480602002602001604051908101604052809291908181526020016000905b82821015611f6c578382906000526020600020018054611edf90615179565b80601f0160208091040260200160405190810160405280929190818152602001828054611f0b90615179565b8015611f585780601f10611f2d57610100808354040283529160200191611f58565b820191906000526020600020905b815481529060010190602001808311611f3b57829003601f168201915b505050505081526020019060010190611ec0565b50505050815260200160038201805480602002602001604051908101604052809291908181526020018280548015611fc357602002820191906000526020600020905b815481526020019060010190808311611faf575b50505050508152602001600482018054611fdc90615179565b80601f016020809104026020016040519081016040528092919081815260200182805461200890615179565b80156120555780601f1061202a57610100808354040283529160200191612055565b820191906000526020600020905b81548152906001019060200180831161203857829003601f168201915b5050505050815260200160058201805461206e90615179565b80601f016020809104026020016040519081016040528092919081815260200182805461209a90615179565b80156120e75780601f106120bc576101008083540402835291602001916120e7565b820191906000526020600020905b8154815290600101906020018083116120ca57829003601f168201915b5050505050815260200160068201805461210090615179565b80601f016020809104026020016040519081016040528092919081815260200182805461212c90615179565b80156121795780601f1061214e57610100808354040283529160200191612179565b820191906000526020600020905b81548152906001019060200180831161215c57829003601f168201915b5050505050815260200160078201805461219290615179565b80601f01602080910402602001604051908101604052809291908181526020018280546121be90615179565b801561220b5780601f106121e05761010080835404028352916020019161220b565b820191906000526020600020905b8154815290600101906020018083116121ee57829003601f168201915b505050505081526020016008820154815260200160098201548152602001600a8201548152602001600b820160009054906101000a900460ff16600281111561225757612256614569565b5b600281111561226957612268614569565b5b8152602001600b820160019054906101000a900460ff16600281111561229257612291614569565b5b60028111156122a4576122a3614569565b5b8152602001600b820160029054906101000a900460ff1660028111156122cd576122cc614569565b5b60028111156122df576122de614569565b5b8152505092505050919050565b60096020528060005260406000206000915054906101000a900473ffffffffffffffffffffffffffffffffffffffff1681565b60006009600083815260200190815260200160002060009054906101000a900473ffffffffffffffffffffffffffffffffffffffff169050919050565b60405180606001604052808381526020018281526020016040518060400160405280600c81526020017f6d616e75666163747572657200000000000000000000000000000000000000008152508152506000803373ffffffffffffffffffffffffffffffffffffffff1673ffffffffffffffffffffffffffffffffffffffff16815260200190815260200160002060008201518160000190816123ff919061555a565b506020820151816001019081612415919061555a565b50604082015181600201908161242b919061555a565b509050506040518060400160405280600c81526020017f6d616e7566616374757265720000000000000000000000000000000000000000815250600460003373ffffffffffffffffffffffffffffffffffffffff1673ffffffffffffffffffffffffffffffffffffffff16815260200190815260200160002090816124b0919061555a565b505050565b60086020528060005260406000206000915090505481565b6124d561408e565b600c6000838152602001908152602001600020604051806101c00160405290816000820154815260200160018201805461250e90615179565b80601f016020809104026020016040519081016040528092919081815260200182805461253a90615179565b80156125875780601f1061255c57610100808354040283529160200191612587565b820191906000526020600020905b81548152906001019060200180831161256a57829003601f168201915b5050505050815260200160028201805480602002602001604051908101604052809291908181526020016000905b828210156126615783829060005260206000200180546125d490615179565b80601f016020809104026020016040519081016040528092919081815260200182805461260090615179565b801561264d5780601f106126225761010080835404028352916020019161264d565b820191906000526020600020905b81548152906001019060200180831161263057829003601f168201915b5050505050815260200190600101906125b5565b505050508152602001600382018054806020026020016040519081016040528092919081815260200182805480156126b857602002820191906000526020600020905b8154815260200190600101908083116126a4575b505050505081526020016004820180546126d190615179565b80601f01602080910402602001604051908101604052809291908181526020018280546126fd90615179565b801561274a5780601f1061271f5761010080835404028352916020019161274a565b820191906000526020600020905b81548152906001019060200180831161272d57829003601f168201915b5050505050815260200160058201805461276390615179565b80601f016020809104026020016040519081016040528092919081815260200182805461278f90615179565b80156127dc5780601f106127b1576101008083540402835291602001916127dc565b820191906000526020600020905b8154815290600101906020018083116127bf57829003601f168201915b505050505081526020016006820180546127f590615179565b80601f016020809104026020016040519081016040528092919081815260200182805461282190615179565b801561286e5780601f106128435761010080835404028352916020019161286e565b820191906000526020600020905b81548152906001019060200180831161285157829003601f168201915b5050505050815260200160078201805461288790615179565b80601f01602080910402602001604051908101604052809291908181526020018280546128b390615179565b80156129005780601f106128d557610100808354040283529160200191612900565b820191906000526020600020905b8154815290600101906020018083116128e357829003601f168201915b505050505081526020016008820154815260200160098201548152602001600a8201548152602001600b820160009054906101000a900460ff16600281111561294c5761294b614569565b5b600281111561295e5761295d614569565b5b8152602001600b820160019054906101000a900460ff16600281111561298757612986614569565b5b600281111561299957612998614569565b5b8152602001600b820160029054906101000a900460ff1660028111156129c2576129c1614569565b5b60028111156129d4576129d3614569565b5b815250509050919050565b600b60205281600052604060002081815481106129fb57600080fd5b90600052602060002090600c020160009150915050806000015490806001018054612a2590615179565b80601f0160208091040260200160405190810160405280929190818152602001828054612a5190615179565b8015612a9e5780601f10612a7357610100808354040283529160200191612a9e565b820191906000526020600020905b815481529060010190602001808311612a8157829003601f168201915b505050505090806004018054612ab390615179565b80601f0160208091040260200160405190810160405280929190818152602001828054612adf90615179565b8015612b2c5780601f10612b0157610100808354040283529160200191612b2c565b820191906000526020600020905b815481529060010190602001808311612b0f57829003601f168201915b505050505090806005018054612b4190615179565b80601f0160208091040260200160405190810160405280929190818152602001828054612b6d90615179565b8015612bba5780601f10612b8f57610100808354040283529160200191612bba565b820191906000526020600020905b815481529060010190602001808311612b9d57829003601f168201915b505050505090806006018054612bcf90615179565b80601f0160208091040260200160405190810160405280929190818152602001828054612bfb90615179565b8015612c485780601f10612c1d57610100808354040283529160200191612c48565b820191906000526020600020905b815481529060010190602001808311612c2b57829003601f168201915b505050505090806007018054612c5d90615179565b80601f0160208091040260200160405190810160405280929190818152602001828054612c8990615179565b8015612cd65780601f10612cab57610100808354040283529160200191612cd6565b820191906000526020600020905b815481529060010190602001808311612cb957829003601f168201915b50505050509080600801549080600901549080600a01549080600b0160009054906101000a900460ff169080600b0160019054906101000a900460ff169080600b0160029054906101000a900460ff1690508c565b60056020528060005260406000206000915054906101000a900473ffffffffffffffffffffffffffffffffffffffff1681565b6000602052806000526040600020600091509050806000018054612d8190615179565b80601f0160208091040260200160405190810160405280929190818152602001828054612dad90615179565b8015612dfa5780601f10612dcf57610100808354040283529160200191612dfa565b820191906000526020600020905b815481529060010190602001808311612ddd57829003601f168201915b505050505090806001018054612e0f90615179565b80601f0160208091040260200160405190810160405280929190818152602001828054612e3b90615179565b8015612e885780601f10612e5d57610100808354040283529160200191612e88565b820191906000526020600020905b815481529060010190602001808311612e6b57829003601f168201915b505050505090806002018054612e9d90615179565b80601f0160208091040260200160405190810160405280929190818152602001828054612ec990615179565b8015612f165780601f10612eeb57610100808354040283529160200191612f16565b820191906000526020600020905b815481529060010190602001808311612ef957829003601f168201915b5050505050905083565b6000600a6000838152602001908152602001600020549050919050565b60006005600083815260200190815260200160002060009054906101000a900473ffffffffffffffffffffffffffffffffffffffff169050919050565b600e6020528060005260406000206000915090505481565b6003602052806000526040600020600091509050806000018054612fb590615179565b80601f0160208091040260200160405190810160405280929190818152602001828054612fe190615179565b801561302e5780601f106130035761010080835404028352916020019161302e565b820191906000526020600020905b81548152906001019060200180831161301157829003601f168201915b50505050509080600101805461304390615179565b80601f016020809104026020016040519081016040528092919081815260200182805461306f90615179565b80156130bc5780601f10613091576101008083540402835291602001916130bc565b820191906000526020600020905b81548152906001019060200180831161309f57829003601f168201915b5050505050908060020180546130d190615179565b80601f01602080910402602001604051908101604052809291908181526020018280546130fd90615179565b801561314a5780601f1061311f5761010080835404028352916020019161314a565b820191906000526020600020905b81548152906001019060200180831161312d57829003601f168201915b5050505050905083565b60405180606001604052808381526020018281526020016040518060400160405280601281526020017f736166657479636f6d6d697373696f6e65720000000000000000000000000000815250815250600360003373ffffffffffffffffffffffffffffffffffffffff1673ffffffffffffffffffffffffffffffffffffffff16815260200190815260200160002060008201518160000190816131f8919061555a565b50602082015181600101908161320e919061555a565b506040820151816002019081613224919061555a565b509050506040518060400160405280601281526020017f736166657479636f6d6d697373696f6e65720000000000000000000000000000815250600460003373ffffffffffffffffffffffffffffffffffffffff1673ffffffffffffffffffffffffffffffffffffffff16815260200190815260200160002090816132a9919061555a565b505050565b6132b661408e565b6000600e60008481526020019081526020016000205490506000600c600083815260200190815260200160002090506040516020016132f4906157fd565b60405160208183030381529060405280519060200120600460003373ffffffffffffffffffffffffffffffffffffffff1673ffffffffffffffffffffffffffffffffffffffff16815260200190815260200160002060405160200161335991906152ae565b60405160208183030381529060405280519060200120146133af576040517f08c379a00000000000000000000000000000000000000000000000000000000081526004016133a69061585e565b60405180910390fd5b600060028111156133c3576133c2614569565b5b81600b0160029054906101000a900460ff1660028111156133e7576133e6614569565b5b14613427576040517f08c379a000000000000000000000000000000000000000000000000000000000815260040161341e906158f0565b60405180910390fd5b600181600b0160026101000a81548160ff0219169083600281111561344f5761344e614569565b5b0217905550336009600084815260200190815260200160002060006101000a81548173ffffffffffffffffffffffffffffffffffffffff021916908373ffffffffffffffffffffffffffffffffffffffff16021790555042600a60008481526020019081526020016000208190555080604051806101c0016040529081600082015481526020016001820180546134e590615179565b80601f016020809104026020016040519081016040528092919081815260200182805461351190615179565b801561355e5780601f106135335761010080835404028352916020019161355e565b820191906000526020600020905b81548152906001019060200180831161354157829003601f168201915b5050505050815260200160028201805480602002602001604051908101604052809291908181526020016000905b828210156136385783829060005260206000200180546135ab90615179565b80601f01602080910402602001604051908101604052809291908181526020018280546135d790615179565b80156136245780601f106135f957610100808354040283529160200191613624565b820191906000526020600020905b81548152906001019060200180831161360757829003601f168201915b50505050508152602001906001019061358c565b5050505081526020016003820180548060200260200160405190810160405280929190818152602001828054801561368f57602002820191906000526020600020905b81548152602001906001019080831161367b575b505050505081526020016004820180546136a890615179565b80601f01602080910402602001604051908101604052809291908181526020018280546136d490615179565b80156137215780601f106136f657610100808354040283529160200191613721565b820191906000526020600020905b81548152906001019060200180831161370457829003601f168201915b5050505050815260200160058201805461373a90615179565b80601f016020809104026020016040519081016040528092919081815260200182805461376690615179565b80156137b35780601f10613788576101008083540402835291602001916137b3565b820191906000526020600020905b81548152906001019060200180831161379657829003601f168201915b505050505081526020016006820180546137cc90615179565b80601f01602080910402602001604051908101604052809291908181526020018280546137f890615179565b80156138455780601f1061381a57610100808354040283529160200191613845565b820191906000526020600020905b81548152906001019060200180831161382857829003601f168201915b5050505050815260200160078201805461385e90615179565b80601f016020809104026020016040519081016040528092919081815260200182805461388a90615179565b80156138d75780601f106138ac576101008083540402835291602001916138d7565b820191906000526020600020905b8154815290600101906020018083116138ba57829003601f168201915b505050505081526020016008820154815260200160098201548152602001600a8201548152602001600b820160009054906101000a900460ff16600281111561392357613922614569565b5b600281111561393557613934614569565b5b8152602001600b820160019054906101000a900460ff16600281111561395e5761395d614569565b5b60028111156139705761396f614569565b5b8152602001600b820160029054906101000a900460ff16600281111561399957613998614569565b5b60028111156139ab576139aa614569565b5b8152505092505050919050565b6000604051806101c001604052808d81526020018c81526020018b81526020018a815260200189815260200188815260200187815260200186815260200185815260200184815260200183815260200160006002811115613a1c57613a1b614569565b5b815260200160006002811115613a3557613a34614569565b5b815260200160006002811115613a4e57613a4d614569565b5b8152509050600b60003373ffffffffffffffffffffffffffffffffffffffff1673ffffffffffffffffffffffffffffffffffffffff1681526020019081526020016000208190806001815401808255809150506001900390600052602060002090600c0201600090919091909150600082015181600001556020820151816001019081613adb919061555a565b506040820151816002019080519060200190613af8929190614133565b506060820151816003019080519060200190613b1592919061418c565b506080820151816004019081613b2b919061555a565b5060a0820151816005019081613b41919061555a565b5060c0820151816006019081613b57919061555a565b5060e0820151816007019081613b6d919061555a565b506101008201518160080155610120820151816009015561014082015181600a015561016082015181600b0160006101000a81548160ff02191690836002811115613bbb57613bba614569565b5b021790555061018082015181600b0160016101000a81548160ff02191690836002811115613bec57613beb614569565b5b02179055506101a082015181600b0160026101000a81548160ff02191690836002811115613c1d57613c1c614569565b5b0217905550505080600c60008e8152602001908152602001600020600082015181600001556020820151816001019081613c57919061555a565b506040820151816002019080519060200190613c74929190614133565b506060820151816003019080519060200190613c9192919061418c565b506080820151816004019081613ca7919061555a565b5060a0820151816005019081613cbd919061555a565b5060c0820151816006019081613cd3919061555a565b5060e0820151816007019081613ce9919061555a565b506101008201518160080155610120820151816009015561014082015181600a015561016082015181600b0160006101000a81548160ff02191690836002811115613d3757613d36614569565b5b021790555061018082015181600b0160016101000a81548160ff02191690836002811115613d6857613d67614569565b5b02179055506101a082015181600b0160026101000a81548160ff02191690836002811115613d9957613d98614569565b5b02179055509050506000338d604051602001613db6929190615979565b60405160208183030381529060405280519060200120905080600d60008f8152602001908152602001600020819055508c600e60008381526020019081526020016000208190555050505050505050505050505050565b6000600d6000838152602001908152602001600020549050919050565b600060086000838152602001908152602001600020549050919050565b600d6020528060005260406000206000915090505481565b60066020528060005260406000206000915090505481565b60006007600083815260200190815260200160002060009054906101000a900473ffffffffffffffffffffffffffffffffffffffff169050919050565b600a6020528060005260406000206000915090505481565b6001602052806000526040600020600091509050806000018054613eef90615179565b80601f0160208091040260200160405190810160405280929190818152602001828054613f1b90615179565b8015613f685780601f10613f3d57610100808354040283529160200191613f68565b820191906000526020600020905b815481529060010190602001808311613f4b57829003601f168201915b505050505090806001018054613f7d90615179565b80601f0160208091040260200160405190810160405280929190818152602001828054613fa990615179565b8015613ff65780601f10613fcb57610100808354040283529160200191613ff6565b820191906000526020600020905b815481529060010190602001808311613fd957829003601f168201915b50505050509080600201805461400b90615179565b80601f016020809104026020016040519081016040528092919081815260200182805461403790615179565b80156140845780601f1061405957610100808354040283529160200191614084565b820191906000526020600020905b81548152906001019060200180831161406757829003601f168201915b5050505050905083565b604051806101c001604052806000815260200160608152602001606081526020016060815260200160608152602001606081526020016060815260200160608152602001600081526020016000815260200160008152602001600060028111156140fb576140fa614569565b5b81526020016000600281111561411457614113614569565b5b81526020016000600281111561412d5761412c614569565b5b81525090565b82805482825590600052602060002090810192821561417b579160200282015b8281111561417a57825182908161416a919061555a565b5091602001919060010190614153565b5b50905061418891906141d9565b5090565b8280548282559060005260206000209081019282156141c8579160200282015b828111156141c75782518255916020019190600101906141ac565b5b5090506141d591906141fd565b5090565b5b808211156141f957600081816141f0919061421a565b506001016141da565b5090565b5b808211156142165760008160009055506001016141fe565b5090565b50805461422690615179565b6000825580601f106142385750614257565b601f01602090049060005260206000209081019061425691906141fd565b5b50565b6000604051905090565b600080fd5b600080fd5b6000819050919050565b6142818161426e565b811461428c57600080fd5b50565b60008135905061429e81614278565b92915050565b6000602082840312156142ba576142b9614264565b5b60006142c88482850161428f565b91505092915050565b600073ffffffffffffffffffffffffffffffffffffffff82169050919050565b60006142fc826142d1565b9050919050565b61430c816142f1565b82525050565b60006020820190506143276000830184614303565b92915050565b600081519050919050565b600082825260208201905092915050565b6000819050602082019050919050565b6143628161426e565b82525050565b600081519050919050565b600082825260208201905092915050565b60005b838110156143a2578082015181840152602081019050614387565b60008484015250505050565b6000601f19601f8301169050919050565b60006143ca82614368565b6143d48185614373565b93506143e4818560208601614384565b6143ed816143ae565b840191505092915050565b600081519050919050565b600082825260208201905092915050565b6000819050602082019050919050565b600061443083836143bf565b905092915050565b6000602082019050919050565b6000614450826143f8565b61445a8185614403565b93508360208202850161446c85614414565b8060005b858110156144a857848403895281516144898582614424565b945061449483614438565b925060208a01995050600181019050614470565b50829750879550505050505092915050565b600081519050919050565b600082825260208201905092915050565b6000819050602082019050919050565b60006144f28383614359565b60208301905092915050565b6000602082019050919050565b6000614516826144ba565b61452081856144c5565b935061452b836144d6565b8060005b8381101561455c57815161454388826144e6565b975061454e836144fe565b92505060018101905061452f565b5085935050505092915050565b7f4e487b7100000000000000000000000000000000000000000000000000000000600052602160045260246000fd5b600381106145a9576145a8614569565b5b50565b60008190506145ba82614598565b919050565b60006145ca826145ac565b9050919050565b6145da816145bf565b82525050565b60006101c0830160008301516145f96000860182614359565b506020830151848203602086015261461182826143bf565b9150506040830151848203604086015261462b8282614445565b91505060608301518482036060860152614645828261450b565b9150506080830151848203608086015261465f82826143bf565b91505060a083015184820360a086015261467982826143bf565b91505060c083015184820360c086015261469382826143bf565b91505060e083015184820360e08601526146ad82826143bf565b9150506101008301516146c4610100860182614359565b506101208301516146d9610120860182614359565b506101408301516146ee610140860182614359565b506101608301516147036101608601826145d1565b506101808301516147186101808601826145d1565b506101a083015161472d6101a08601826145d1565b508091505092915050565b600061474483836145e0565b905092915050565b6000602082019050919050565b60006147648261432d565b61476e8185614338565b93508360208202850161478085614349565b8060005b858110156147bc578484038952815161479d8582614738565b94506147a88361474c565b925060208a01995050600181019050614784565b50829750879550505050505092915050565b600060208201905081810360008301526147e88184614759565b905092915050565b6147f98161426e565b82525050565b600082825260208201905092915050565b600061481b82614368565b61482581856147ff565b9350614835818560208601614384565b61483e816143ae565b840191505092915050565b614852816145bf565b82525050565b60006101808201905061486e600083018f6147f0565b8181036020830152614880818e614810565b90508181036040830152614894818d614810565b905081810360608301526148a8818c614810565b905081810360808301526148bc818b614810565b905081810360a08301526148d0818a614810565b90506148df60c08301896147f0565b6148ec60e08301886147f0565b6148fa6101008301876147f0565b614908610120830186614849565b614916610140830185614849565b614924610160830184614849565b9d9c50505050505050505050505050565b600060208201905061494a60008301846147f0565b92915050565b6000819050919050565b61496381614950565b811461496e57600080fd5b50565b6000813590506149808161495a565b92915050565b60006020828403121561499c5761499b614264565b5b60006149aa84828501614971565b91505092915050565b60006101c0830160008301516149cc6000860182614359565b50602083015184820360208601526149e482826143bf565b915050604083015184820360408601526149fe8282614445565b91505060608301518482036060860152614a18828261450b565b91505060808301518482036080860152614a3282826143bf565b91505060a083015184820360a0860152614a4c82826143bf565b91505060c083015184820360c0860152614a6682826143bf565b91505060e083015184820360e0860152614a8082826143bf565b915050610100830151614a97610100860182614359565b50610120830151614aac610120860182614359565b50610140830151614ac1610140860182614359565b50610160830151614ad66101608601826145d1565b50610180830151614aeb6101808601826145d1565b506101a0830151614b006101a08601826145d1565b508091505092915050565b60006020820190508181036000830152614b2581846149b3565b905092915050565b600080fd5b600080fd5b7f4e487b7100000000000000000000000000000000000000000000000000000000600052604160045260246000fd5b614b6f826143ae565b810181811067ffffffffffffffff82111715614b8e57614b8d614b37565b5b80604052505050565b6000614ba161425a565b9050614bad8282614b66565b919050565b600067ffffffffffffffff821115614bcd57614bcc614b37565b5b614bd6826143ae565b9050602081019050919050565b82818337600083830152505050565b6000614c05614c0084614bb2565b614b97565b905082815260208101848484011115614c2157614c20614b32565b5b614c2c848285614be3565b509392505050565b600082601f830112614c4957614c48614b2d565b5b8135614c59848260208601614bf2565b91505092915050565b60008060408385031215614c7957614c78614264565b5b600083013567ffffffffffffffff811115614c9757614c96614269565b5b614ca385828601614c34565b925050602083013567ffffffffffffffff811115614cc457614cc3614269565b5b614cd085828601614c34565b9150509250929050565b614ce3816142f1565b8114614cee57600080fd5b50565b600081359050614d0081614cda565b92915050565b600060208284031215614d1c57614d1b614264565b5b6000614d2a84828501614cf1565b91505092915050565b60006060820190508181036000830152614d4d8186614810565b90508181036020830152614d618185614810565b90508181036040830152614d758184614810565b9050949350505050565b60008060408385031215614d9657614d95614264565b5b6000614da485828601614cf1565b9250506020614db58582860161428f565b9150509250929050565b600067ffffffffffffffff821115614dda57614dd9614b37565b5b602082029050602081019050919050565b600080fd5b6000614e03614dfe84614dbf565b614b97565b90508083825260208201905060208402830185811115614e2657614e25614deb565b5b835b81811015614e6d57803567ffffffffffffffff811115614e4b57614e4a614b2d565b5b808601614e588982614c34565b85526020850194505050602081019050614e28565b5050509392505050565b600082601f830112614e8c57614e8b614b2d565b5b8135614e9c848260208601614df0565b91505092915050565b600067ffffffffffffffff821115614ec057614ebf614b37565b5b602082029050602081019050919050565b6000614ee4614edf84614ea5565b614b97565b90508083825260208201905060208402830185811115614f0757614f06614deb565b5b835b81811015614f305780614f1c888261428f565b845260208401935050602081019050614f09565b5050509392505050565b600082601f830112614f4f57614f4e614b2d565b5b8135614f5f848260208601614ed1565b91505092915050565b60008060008060008060008060008060006101608c8e031215614f8e57614f8d614264565b5b6000614f9c8e828f0161428f565b9b505060208c013567ffffffffffffffff811115614fbd57614fbc614269565b5b614fc98e828f01614c34565b9a505060408c013567ffffffffffffffff811115614fea57614fe9614269565b5b614ff68e828f01614e77565b99505060608c013567ffffffffffffffff81111561501757615016614269565b5b6150238e828f01614f3a565b98505060808c013567ffffffffffffffff81111561504457615043614269565b5b6150508e828f01614c34565b97505060a08c013567ffffffffffffffff81111561507157615070614269565b5b61507d8e828f01614c34565b96505060c08c013567ffffffffffffffff81111561509e5761509d614269565b5b6150aa8e828f01614c34565b95505060e08c013567ffffffffffffffff8111156150cb576150ca614269565b5b6150d78e828f01614c34565b9450506101006150e98e828f0161428f565b9350506101206150fb8e828f0161428f565b92505061014061510d8e828f0161428f565b9150509295989b509295989b9093969950565b61512981614950565b82525050565b60006020820190506151446000830184615120565b92915050565b7f4e487b7100000000000000000000000000000000000000000000000000000000600052602260045260246000fd5b6000600282049050600182168061519157607f821691505b6020821081036151a4576151a361514a565b5b50919050565b600081905092915050565b7f616e616c79737400000000000000000000000000000000000000000000000000600082015250565b60006151eb6007836151aa565b91506151f6826151b5565b600782019050919050565b600061520c826151de565b9150819050919050565b60008190508160005260206000209050919050565b6000815461523881615179565b61524281866151aa565b9450600182166000811461525d5760018114615272576152a5565b60ff19831686528115158202860193506152a5565b61527b85615216565b60005b8381101561529d5781548189015260018201915060208101905061527e565b838801955050505b50505092915050565b60006152ba828461522b565b915081905092915050565b7f4f6e6c7920616e616c7973742063616e20617070726f76650000000000000000600082015250565b60006152fb6018836147ff565b9150615306826152c5565b602082019050919050565b6000602082019050818103600083015261532a816152ee565b9050919050565b7f50726f6475637420616c726561647920617070726f766564206f722072656a6560008201527f6374656420627920666f6f6420616e616c797374000000000000000000000000602082015250565b600061538d6034836147ff565b915061539882615331565b604082019050919050565b600060208201905081810360008301526153bc81615380565b9050919050565b60006020601f8301049050919050565b600082821b905092915050565b6000600883026154107fffffffffffffffffffffffffffffffffffffffffffffffffffffffffffffffff826153d3565b61541a86836153d3565b95508019841693508086168417925050509392505050565b6000819050919050565b600061545761545261544d8461426e565b615432565b61426e565b9050919050565b6000819050919050565b6154718361543c565b61548561547d8261545e565b8484546153e0565b825550505050565b600090565b61549a61548d565b6154a5818484615468565b505050565b5b818110156154c9576154be600082615492565b6001810190506154ab565b5050565b601f82111561550e576154df81615216565b6154e8846153c3565b810160208510156154f7578190505b61550b615503856153c3565b8301826154aa565b50505b505050565b600082821c905092915050565b600061553160001984600802615513565b1980831691505092915050565b600061554a8383615520565b9150826002028217905092915050565b61556382614368565b67ffffffffffffffff81111561557c5761557b614b37565b5b6155868254615179565b6155918282856154cd565b600060209050601f8311600181146155c457600084156155b2578287015190505b6155bc858261553e565b865550615624565b601f1984166155d286615216565b60005b828110156155fa578489015182556001820191506020850194506020810190506155d5565b868310156156175784890151615613601f891682615520565b8355505b6001600288020188555050505b505050505050565b7f7361666574796f66666963657200000000000000000000000000000000000000600082015250565b6000615662600d836151aa565b915061566d8261562c565b600d82019050919050565b600061568382615655565b9150819050919050565b7f4f6e6c7920666f6f6420736166657479206f6666696365722063616e2061707060008201527f726f766500000000000000000000000000000000000000000000000000000000602082015250565b60006156e96024836147ff565b91506156f48261568d565b604082019050919050565b60006020820190508181036000830152615718816156dc565b9050919050565b7f50726f6475637420616c726561647920617070726f766564206f722072656a6560008201527f6374656420627920666f6f6420736166657479206f6666696365720000000000602082015250565b600061577b603b836147ff565b91506157868261571f565b604082019050919050565b600060208201905081810360008301526157aa8161576e565b9050919050565b7f736166657479636f6d6d697373696f6e65720000000000000000000000000000600082015250565b60006157e76012836151aa565b91506157f2826157b1565b601282019050919050565b6000615808826157da565b9150819050919050565b7f4f6e6c79206d616e756661637475726572732063616e20617070726f76650000600082015250565b6000615848601e836147ff565b915061585382615812565b602082019050919050565b600060208201905081810360008301526158778161583b565b9050919050565b7f50726f6475637420616c726561647920617070726f766564206f722072656a6560008201527f63746564206279206d616e756661637475726572000000000000000000000000602082015250565b60006158da6034836147ff565b91506158e58261587e565b604082019050919050565b60006020820190508181036000830152615909816158cd565b9050919050565b60008160601b9050919050565b600061592882615910565b9050919050565b600061593a8261591d565b9050919050565b61595261594d826142f1565b61592f565b82525050565b6000819050919050565b61597361596e8261426e565b615958565b82525050565b60006159858285615941565b6014820191506159958284615962565b602082019150819050939250505056fea264697066735822122010022870dc34d0fcf82f143cb4dd011abc647c2b27e0765763293ab56798e34e64736f6c63430008130033",
  "linkReferences": {},
  "deployedLinkReferences": {}
}